:100000000C9445000C9462000C9462000C94620005
:100010000C9462000C9462000C9462000C946200D8
:100020000C9462000C9462000C9462000C946200C8
:100030000C9462000C94F8040C9462000C9462001E
:100040000C9462000C9462000C9462000C946200A8
:100050000C9462000C9462000C9462000C94620098
:100060000C9462000C9462000907250728072F07EB
:10007000350775076F0884079007A007BF07F807C3
:100080008A07D60743086907580811241FBECFEF17
:10009000D4E0DEBFCDBF11E0A0E0B1E0E0E9F7E1E0
:1000A00002C005900D92A232B107D9F723E0A2E277
:1000B000B1E001C01D92A435B207E1F70E94CD0561
:1000C0000C94C60B0C94000081E080933F021B9BB4
:1000D00008C083ED95E41B9B04C00197E1F780E025
:1000E00008951092B2008091B2008630E0F320E0D3
:1000F00030E080E096E041E050E0935F6091B20034
:100100006917E0F31B9B07C0BA01022E01C0660FFE
:100110000A94EAF7862B2F5F3F4F9E3671F7909136
:10012000B2009F37E0F31B9BDACF10923F02089595
:100130001092B2009091B2009A30E0F31092B200A7
:10014000239A2B981092B2009091B2009A30E0F36B
:100150009AE080FF02C02B9A01C02B98935F86958E
:100160002091B2002917E0F3923799F72B9A239840
:10017000089520913201809146029091470238E023
:10018000AC0142279695879540FF04C041E0842743
:1001900040EA94272695315099F79093470280932F
:1001A0004602209332010895EF92FF920F931F931E
:1001B000CF93DF938C01D62F109247021092460204
:1001C00010923401109233017C01C0E00E9464005F
:1001D000F70181937F0180913F02882311F0DFEFC7
:1001E00039C0CF5FDC13F2CF80913701811108C095
:1001F0000E946400D82F80913F02882391F02AC08A
:100200000E9464008093330180913F028111E7CF07
:100210000E9464008093340180913F02882341F35F
:10022000DECF809137018823A9F0F80181918F01F9
:10023000809332010E94B900C150B9F72091460263
:10024000309147028091330190913401281739078A
:1002500009F0D2EC81E0D03309F080E0DF91CF915A
:100260001F910F91FF90EF900895EF92FF920F93DF
:100270001F93CF93DF938C01C62F239A10924702CE
:100280001092460280913701882359F07801D62FC9
:10029000F70181917F01809332010E94B900D15012
:1002A000B9F7F80181918F01809332010E94980083
:1002B000C150B9F780913701882341F080914602FF
:1002C0000E949800809147020E9498002398DF9135
:1002D000CF911F910F91FF90EF900895CF93DF93EF
:1002E000CDB7DEB76D970FB6F894DEBF0FBECDBFAA
:1002F0008091000190910101A09102018B8F9C8F50
:10030000AD8F81E1E4E0F1E0DE01119601900D9204
:100310008A95E1F761E1CE0101960E94350168E01E
:10032000CE0142960E94D4008823C9F0FE01729645
:10033000DE015B96CE01459631912D9132130EC0B0
:10034000E817F907C9F78D89809339018E89809361
:1003500038018F898093370181E001C080E06D967C
:100360000FB6F894DEBF0FBECDBFDF91CF910895D9
:10037000CF93C82F0E946400C15090913F029923EF
:1003800019F0C111F7CF8FEFCF910895CF93DF937D
:1003900000D0CDB7DEB78DEF89831A8262E0CE013F
:1003A00001960E94350181E00E94B801813C21F054
:1003B0000E940E0580E001C081E00F900F90DF9158
:1003C000CF910895CF93DF9300D0CDB7DEB71982D8
:1003D0001A8281E08093370162E0CE0101960E948B
:1003E00035010E940E050F900F90DF91CF91089577
:1003F000CF93DF9300D000D0CDB7DEB79091440209
:10040000809140029F3F11F48F3F91F02FEF29839D
:100410001A829B838C8364E0CE0101960E94350191
:1004200082E00E94B80191E0803319F090E001C0B1
:1004300091E0892F0F900F900F900F90DF91CF9147
:100440000895CF93DF9300D000D0CDB7DEB78EEF05
:1004500089831A821B82809145028C83811102C09C
:1004600081E08B8364E0CE0101960E94350182E039
:100470000E94B8018F3F71F460914502809135016F
:10048000909136010E94350188E20E94B80191E006
:10049000803309F090E0892F0F900F900F900F900C
:1004A000DF91CF910895CF93DF9300D0CDB7DEB722
:1004B0000E94F8018823E9F0809145028A838091A7
:1004C0004302823029F0843029F0813029F402C0BF
:1004D00087E001C083E0898362E0CE0101960E943B
:1004E00035016091450280913501909136010E945D
:1004F000D4000F900F90DF91CF910895CF93DF93A9
:1005000000D0CDB7DEB70E94F801882391F084E0D7
:100510008983809145028A8362E0CE0101960E9420
:1005200035016091450280913501909136010E941C
:10053000D4000F900F90DF91CF910895CF93DF9368
:1005400000D0CDB7DEB70E94F801982F8823A9F01C
:100550000E942102982F882381F085E0898381E021
:100560008A8362E0CE0101960E94350180E00E94FC
:10057000B80191E0803309F090E0892F0F900F903F
:10058000DF91CF910895CF93DF9300D0CDB7DEB741
:100590000E94F801882389F082E0898381E08A83C0
:1005A00062E0CE0101960E94350180E00E94B80110
:1005B000803311F481E001C080E00F900F90DF9153
:1005C000CF910895CF93DF9300D0CDB7DEB70E94CF
:1005D000F801982F8823A1F00E942102982F8823E8
:1005E00079F081E089838A8362E0CE0101960E94DE
:1005F000350182E30E94B80191E0803309F090E078
:10060000892F0F900F90DF91CF910895CF93DF93B3
:1006100000D0CDB7DEB70E94F801882381F00E9498
:100620002102882361F084E0898381E08A8362E08B
:10063000CE0101960E94350184E00E94B8010F901E
:100640000F90DF91CF9108952B98000000002B9A16
:1006500008951092370110923801109239011092CA
:100660003A0193B193FB992790F9239A2B9880E84C
:100670008A95F1F71C9992602C9824982B9A8AE01D
:100680008A95F1F700C023989093390181E0911188
:1006900001C080E00895239A0E942403249A0895BB
:1006A0002C9824980E94240323980895CF93DF93D5
:1006B0000E944B032C980E9424032C9A0E9424032E
:1006C0002C982498D8E0C0E0C6950E9424031C9979
:1006D000C068D150C9F70E9450038C2FDF91CF9191
:1006E0000895CF93DF93CFEFDFEF0E94560380FD95
:1006F00004C0209711F02197F8CF81E0CD2B09F4A9
:1007000080E0DF91CF910895CF93DF93D82F0E949F
:100710004B032C9A0E9424030E942403C8E0D0FFBC
:1007200002C02C9A01C02C980E942403D695C15077
:10073000B1F7DF91CF910C945003CF93DF932C98B6
:100740002498CFEFDFEF0E942403219711F01C9B28
:10075000FACF81E0CD2B09F480E0DF91CF910895AD
:10076000CF9310924C030E944B032C980E942403B9
:100770000E9424030E9424030E9424030E949D03DC
:100780008823A1F0C8E080914C03869580934C03A8
:100790000E9424031C9B05C080914C0380688093B9
:1007A0004C03C15081F70E94500381E0CF9108951E
:1007B0000E947103882349F00E94B003882329F026
:1007C00081E090914C039D3009F080E0089580E035
:1007D0000E9484030E94B00380914C0388508233AE
:1007E00010F010924C0380914C03809337010895D0
:1007F000CF93DF93D82F0E944B032C9A0E9424039F
:100800002C980E9424030E9424030E942403C8E021
:10081000D0FF02C02C9A01C02C980E942403D695C8
:10082000C150B1F70E949D03882361F00E945003DC
:10083000CFEFDFEF0E94560381FF04C0209711F035
:100840002197F8CFDF91CF910895809144020E94C3
:10085000F803809140020E94F803809145020E94B3
:10086000F8030C94D803CF93C82F84EB0E94840321
:100870008C2F0E94F803CF910C94D8030E94290377
:10088000811102C080E008950E94E7038823D1F31C
:1008900082E00E94840382E00E94F80384E00E94C8
:1008A000F80387EB91E00197F1F700C0000081E0C9
:1008B0000E94F8039FE725EB81E0915020408040A3
:1008C000E1F700C0000082E00E9433048823D1F2E7
:1008D0000E94B00380914C03809338018FEF0E94F7
:1008E000840380E80E94F8038FE99FE00197F1F705
:1008F00000C000008FEE0E94840382E00E94F80393
:1009000081E00895CF9386E00E943304811102C0F4
:1009100080E01EC00E9425048823D1F3C0914502C7
:100920000E9471038823A1F30E94B003882381F3FE
:10093000E0913501F0913601CF0101969093360197
:100940008093350180914C038083C15049F781E049
:10095000CF910895CF9387E00E9433048823C1F09C
:100960000E9425048823A1F0C0914502E091350141
:10097000F0913601CF0101969093360180933501B5
:1009800080810E94F803C15089F7CF910C947103C4
:1009900080E0CF910895CF93C0914402C695CF30A7
:1009A00090F488E00E943304882369F08C2F0E9421
:1009B000F8030E94D803882331F080E00E94F803F6
:1009C000CF910C94710380E0CF91089583E00E9451
:1009D0003304882359F08EED0E94F8038DEA0E94BB
:1009E000F80385EA0E94F8030C94710380E00895EF
:1009F0001F920F920FB60F9211240C9400000F90CB
:100A00000FBE0F901F90189580914302882329F004
:100A100084E08093B10023982B9A089510923801B6
:100A2000109237010895EF92FF920F931F93CF9387
:100A3000DF9310923801109237018091430288238E
:100A400061F0853008F09DC0C8E3D0E014E003E019
:100A5000FF24F39482E0E82E62C00E943E048FC01F
:100A60008091C00087FD84C080914302843009F4E6
:100A70005BC00E94660A882309F456C000934302B3
:100A800080913701909138018730934909F454C01F
:100A900080913701909138018A30934909F44CC014
:100AA00080913701909138018F30934909F444C007
:100AB000809137019091380121E08B30944909F001
:100AC00020E040913701509138018091380188230E
:100AD000A9F180913801803988F58091370161E072
:100AE00030E0863009F060E0862F932F382F2111F7
:100AF00028C0413068EE560720F5992790914302AF
:100B0000913010F52197B9F1811134C02FEF34E302
:100B10006CE0215030406040E1F700C0000080915F
:100B2000C10084FFA1CF9CCF0E946E01882309F4ED
:100B3000A7CF10934302A4CF21E0C3CF80E090E081
:100B4000D5CF81E090E0DACF933010F09430D1F639
:100B50004130584E18F0F0924302D4CF222319F0BE
:100B6000E0924302CFCF332369F210934302CACFFE
:100B700080E001C081E09091430290933A0181119D
:100B800005C0109238011092370180E0DF91CF91BB
:100B90001F910F91FF90EF9008950FB6F894A895CC
:100BA00080916000886180936000109260000FBEA9
:100BB0000E9404050E94840B0E945706EECF9627E0
:100BC000092E0294202D2F702927692F6025660F8A
:100BD000607E2627602D6927607F6695092E000CB0
:100BE000661F9695969596959F7196279827822FC2
:100BF00008952F923F92EF92FF921F93CF93DF932E
:100C0000E1016EE280E090E00E94DF056F810E94CA
:100C1000DF05609144020E94DF05609140020E945E
:100C2000DF056E810E94DF05382F292FEC80FD80C3
:100C30001E81F70161917F01832F922F0E94DF05B2
:100C4000382F292F1150A9F76B810E94DF05F82E4C
:100C5000E92E8EE20E94990B8F810E94990B809160
:100C600044020E94990B809140020E94990B8E8150
:100C70000E94990B1E81EC81FD8180810E94990B5D
:100C80008C819D8101969D838C831150A1F78B816E
:100C90000E94990B8E2D0E94990B8F2DDF91CF9181
:100CA0001F91FF90EF903F902F900C94990B2F92F3
:100CB0003F924F925F926F927F928F929F92AF92EC
:100CC000BF92CF92DF92EF92FF920F931F93CF9339
:100CD000DF93CDB7DEB72A970FB6F894DEBF0FBE0D
:100CE000CDBFF8942E0129E0420E511C08E412E019
:100CF00022E0B22E3BE3C32E31E0D32E44E0A42EFB
:100D000057E3652E51E0752E0E94A40B8F32E1F758
:100D10001A8619865E824D8281E08F830E94A40B21
:100D2000888790914D039111EFCF8F3219F40E9473
:100D3000A40B88876FE280E090E00E94DF05688561
:100D40000E94DF057C010E94A40B809344029091D5
:100D50004D03992311F081E048C0682FC7010E941C
:100D6000DF057C010E94A40B8093400290914D030B
:100D70009111F1CF682FC7010E94DF057C010E940D
:100D8000A40B8B8390914D039111E5CF682FC70180
:100D90000E94DF057C013B8098E4892E92E0992E29
:100DA0000E94A40BF40181934F0190914D03911186
:100DB000D2CF682FC7010E94DF057C013A94311021
:100DC000EFCF0E94A40B8A8380914D038111C3CF82
:100DD0000E94A40B898380914D038111BCCF29818E
:100DE0003A81E216F30609F083E08C83811178C121
:100DF0001093360100933501E8858E2F90E0FC01B9
:100E0000F097E131F10508F06AC1EC5CFF4F0C94FA
:100E1000C00B80913701882309F462C1809143029D
:100E2000833028F4813040F40E94E70307C0833008
:100E300049F0843009F054C10E94C601811150C1AB
:100E40008FE04CC00E94F409F9CF8CE6898748C135
:100E50008BE08F8385E191E09E838D8341C1BF82CA
:100E600088EC898786E08A873BC1FE0131961F01A5
:100E70000E94F90580914302882329F0853028F4E7
:100E800023982B9A02C00E9429030E940E05FFEFAF
:100E900023EC89E0F15020408040E1F700C00000E1
:100EA0002A960FB6F894DEBF0FBECDBFDF91CF916B
:100EB0001F910F91FF90EF90DF90CF90BF90AF9078
:100EC0009F908F907F906F905F904F903F902F906A
:100ED000089580914802853018F089E08C8300C124
:100EE000809343020E940405FBC08091430283303B
:100EF00028F4813030F40E942903F2C0843009F0D4
:100F0000EFC00E94E201ECC0AF827E826D820E943F
:100F1000130594CF809143028111E2C02B98E0C069
:100F200080914302833030F4813008F0D8C00E94B1
:100F3000E60484CF833009F0B2C00E942F0B7ECF2D
:100F400090914302943018F4923020F0C8C094304D
:100F500009F0C6C0809148028987943019F4880F3F
:100F6000880F01C0880F80934402109240029111B3
:100F700003C00E94CB0462CF0E94C3025FCF809166
:100F800048028093450280914302833028F48130E7
:100F900038F40E9482041BC0833029F08430F9F4B5
:100FA0000E94530214C00E94580B11C08091480245
:100FB0008093450280914302823039F020F08330E3
:100FC00059F0843061F4BC820AC00E947E02811113
:100FD00006C08FE08C8303C00E94630BF8CF8C8126
:100FE00081117EC0809145028F831E830D8378C05E
:100FF0008B81809345028FE08C8380914302833004
:1010000018F4813030F037C08330D1F1843099F159
:1010100067C00E94AA04882309F462C0D0923601F6
:10102000C09235010E948204882309F459C01C82B1
:101030001093360100933501D0924202C0924102D2
:1010400080914502A0913501B0913601E0914102B5
:10105000F09142022C9190812913AC821196B093A9
:101060003601A09335013196F0934202E09341029C
:10107000815041F735C00E94E202882389F12BC0DC
:101080000E946E0BFACF8B81809345028FE08C8398
:1010900080914302823031F010F1833031F084309E
:1010A000F9F41DC00E949E02E8CF0E94790BE5CFA3
:1010B000E090430294E0E91212C08B8180934502D4
:1010C0008FE0F82EFC820E940603803321F0803CE2
:1010D00021F4EC8205C01C8203C0FC8201C0BC82EA
:1010E000FE0131961F010E94F9050ECE9091520328
:1010F00098279093520398E02B9A1092B20080FFA9
:101100000FC02091B2002031E0F32B981092B20072
:101110002091B2002031E0F38695915069F708954F
:101120002091B2002830E0F32B981092B200209169
:10113000B2002830E0F32B9A1092B2002091B20056
:101140002830E0F32B981092B2002091B2002830A2
:10115000E0F3E2CF239A8FEF0E9476088FEF0E9490
:1011600076088FE70E947608109252038BE10E9466
:10117000760880914F038F5F80934F030C9476081D
:10118000809152030E9476082B9A1092B2008091AF
:10119000B2008830E0F3239808951092B2001B9BB0
:1011A0000AC08091B2008E37D0F38FEF08958091FE
:1011B000B2008E37D0F71B9BFACF8091B20080939C
:1011C000510390915303981788F01092B2001B9B23
:1011D00009C08091B2008E37D0F3E7CF8091B20082
:1011E0008E3718F71B9BFACF80E0089581E00895B1
:1011F000FC01108280E090E041E050E01092B200EB
:101200001B9B0AC02091B2002E37D0F380E00895D6
:101210002091B2002E37D0F71B9BFACF3091B2004D
:1012200020915303231780F01092B2001B9B09C03A
:101230002091B2002E37D0F3E9CF2091B2002E37A3
:1012400028F71B9BFACF09C060819A01082E01C0C4
:10125000220F0A94EAF7262B208301968830910505
:1012600069F690914E038081892780934E0381E037
:101270000895CF93DF9388E18093530380915003C7
:10128000853139F0823129F0813031F0C6E4D0E087
:1012900005C0C0E6DAEE02C0C1E0D0E00E94CD0891
:1012A00087FF04C02197D1F780E017C0CAE00E94F1
:1012B000CD088F3FC9F3C150D1F780915103982FCA
:1012C000969586958695890F809353030E94CD0845
:1012D0008F3F51F31816D4F381E0DF91CF91089539
:1012E000EF92FF920F931F93CF93DF9300D01F9243
:1012F000CDB7DEB77C011B820E943909811102C083
:1013000080E068C010924E03CE0103960E94F80858
:101310008823B1F38B818B3199F7CE0103960E941C
:10132000F808882369F39B8180914F039813E8CFD5
:10133000CE0102960E94F808882311F38A81823038
:10134000F8F6CE0101960E94F8088823C9F2898137
:101350009A81892BA9F2CE0103960E94F80888236E
:1013600079F28B818E3061F6CE0103960E94F808E7
:10137000882331F29B81809150039813C1CFCE0115
:1013800003960E94F808882309F4BACF8B81811153
:10139000B7CF00E010E0C701800F911F29813A818B
:1013A000225031090217130740F40E94F8088823DD
:1013B00009F4A6CF0F5F1F4FEECFCE0103960E9418
:1013C000F808882309F49CCF80914E03811198CFAF
:1013D0002B9A81E00F900F900F90DF91CF911F918A
:1013E0000F91FF90EF900895CF9381E08093500389
:1013F0000E94AA0880E00E94760881E00E94760898
:101400008EE00E94760881E00E9476080E94C00863
:1014100082E291E00E947009C82F811103C00E94EE
:101420000E0501C0C1E08C2FCF910895FF920F935C
:101430001F93CF93DF938C01C62FF42ED22F8DE113
:10144000809350030E94AA0880E00E94760888E0FA
:101450000E9476088EE00E9476088DE10E94760850
:1014600084E00E94760884E00E94760880E00E9472
:1014700076088C2F0E9476088F2D0E9476088D2F7B
:101480000E94760880E00E9476080E94C00882E2EE
:1014900091E00E947009882399F0809122018111C6
:1014A0000EC080912301C81711F0811108C08091EE
:1014B0002401811104C080912501F801808381E01D
:1014C000DF91CF911F910F91FF9008950E94F40931
:1014D000882399F021E040E060E388E391E00E94F6
:1014E000160A882351F022E040E060E387E391E0B0
:1014F0000E94160A91E0811101C090E0892F0895A1
:10150000809144028F3F21F4809140028F3F29F166
:1015100086E0809350030E94AA0880E00E9476082B
:1015200085E00E9476088EE00E94760886E00E94A0
:10153000760880E00E94760880E00E94760880911C
:1015400044020E947608809140020E9476080E9420
:10155000C00882E291E00C94700981E00895CF9375
:10156000C1E0809145028111C0E00E94AA0880E09C
:101570000E94760884E00E9476088EE00E94760839
:10158000809150030E9476088C2F0E9476088091EB
:1015900045020E94760880EA0E9476080E94C008F0
:1015A0008091350190913601CF910C9470090F9381
:1015B0001F93CF93DF93C0914502CC2339F08C2F3A
:1015C00090E00A96182F092FD0E003C01AE001E03E
:1015D000D1E00E94AA08802F0E947608812F0E94E5
:1015E00076088EE00E947608809150030E9476086B
:1015F0008D2F0E9476088C2F0E94760880E00E9432
:10160000760880E00E94760880E00E94760880E0FC
:101610000E94760880E00E94760880E00E947608AA
:1016200080E00E947608E0913501F09136018081DA
:101630000E94760880913501909136010196909331
:10164000360180933501C15071F70E94C00882E2D3
:1016500091E0DF91CF911F910F910C94700982E17D
:10166000809350030E94AA0880E00E94760887E0D9
:101670000E9476088EE00E94760882E10E94760839
:1016800084E10E94760880E00E9476088CEA0E943D
:10169000760888E80E94760883E10E94760886E74B
:1016A0000E9476080E94C00882E291E00C947009C2
:1016B0000E94800A882329F084E1809350030C94CF
:1016C000AF0A80E008950E94800A882329F086E10D
:1016D000809350030C94AF0A80E008950E94800A22
:1016E000882329F083E1809350030C94D70A80E08B
:1016F00008950E94800A882329F085E18093500391
:101700000C94D70A80E00895E0ECF0E080818D7FB2
:10171000808389E190E09093C5008093C40086E0C7
:101720008093C20088E18093C10085E080938100AE
:1017300008959091C00095FFFCCF8093C6008091E2
:10174000C00086FFFCCF089510924D0310928500D3
:10175000109284008091C00087FD0FC080918400AA
:101760009091850021E0853C39E0930708F420E062
:1017700020934D03853C994068F38091C6000895FD
:10178000EE0FFF1F0590F491E02D0994F894FFCF20
:101790003437310000000000000000000D424C48CA
:1017A000656C69F47D347741526D3136385F31367E
:0217B000000037
:00000001FF
