:100000000C944D000C946A000C946A000C946A00E5
:100010000C946A000C946A000C946A000C946A00B8
:100020000C946A000C946A000C946A000C946A00A8
:100030000C946A000C9441060C946A000C946A00BB
:100040000C946A000C946A000C946A000C946A0088
:100050000C946A000C946A000C946A000C946A0078
:100060000C946A000C946A003107450759076D0724
:1000700081079507AA07BE074B0967096A096F0937
:100080007609B809220B1A0A410A510A700AA90A0C
:10009000CA09870AF60AAD090B0B11241FBECFEF60
:1000A000D8E0DEBFCDBF11E0A0E0B1E0E6ECFEE1BC
:1000B00002C005900D92A232B107D9F723E0A2E267
:1000C000B1E001C01D92AC35B207E1F70E9409080A
:1000D0000C94610F0C94000081E080934702E09142
:1000E0003301F091340180812091320190E002C00F
:1000F000959587952A95E2F780FF12C020EC32E1B2
:1001000080814091320190E002C0959587954A9593
:10011000E2F780FF05C02150310991F780E0089592
:100120001092B2008091B2008630E0F3E09133018A
:10013000F091340140E050E080E096E061E070E052
:10014000935F2091B2002917E0F32081A091320142
:1001500030E002C035952795AA95E2F720FF07C049
:100160009B01042E01C0220F0A94EAF7822B4F5FF5
:100170005F4F9E3629F79091B2009F37E0F32081C0
:100180009091320130E002C0359527959A95E2F7BB
:1001900020FFC4CF1092470208951092B2009091B0
:1001A000B2009A30E0F31092B20040913201E09137
:1001B0003801F0913901908121E030E0B90102C0AD
:1001C000660F771F4A95E2F7AB01492B40834091B8
:1001D0003201E0913A01F0913B01908102C0220F7F
:1001E000331F4A95E2F720953095292320831092FA
:1001F000B2009091B2009A30E0F39AE041E050E012
:10020000E0913A01F0913B01209132016081DA01E5
:1002100002C0AA0FBB1F2A95E2F79D0180FF02C012
:10022000262B03C02095309526232083935F869547
:100230002091B2002917E0F3923711F72091320193
:10024000E0913A01F0913B01408181E090E0BC01F6
:1002500002C0660F771F2A95E2F79B01242B2083AB
:1002600030913201E0913801F0913901208102C0D2
:10027000880F991F3A95E2F78095909582238083A5
:1002800008952091350180914E0290914F0238E0FF
:10029000AC0142279695879540FF04C041E0842732
:1002A00040EA94272695315099F790934F02809316
:1002B0004E02209335010895EF92FF920F931F9302
:1002C000CF93DF938C01D62F10924F0210924E02E3
:1002D00010923701109236017C01C0E00E946C0040
:1002E000F70181937F0180914702882311F0DFEFAE
:1002F00039C0CF5FDC13F2CF80913E01811108C07D
:100300000E946C00D82F80914702882391F02AC068
:100310000E946C0080933601809147028111E7CFE3
:100320000E946C008093370180914702882341F33B
:10033000DECF80913E018823A9F0F80181918F01E1
:10034000809335010E944101C150B9F720914E02BE
:1003500030914F028091360190913701281739076B
:1003600009F0D2EC81E0D03309F080E0DF91CF9149
:100370001F910F91FF90EF900895EF92FF920F93CE
:100380001F93CF93DF938C01C62F30913201E09100
:100390003801F0913901208181E090E001C0880F9F
:1003A0003A95EAF7822B808310924F0210924E0208
:1003B00080913E01882359F07801D62FF701819171
:1003C0007F01809335010E944101D150B9F7F801B6
:1003D00081918F01809335010E94CD00C150B9F702
:1003E00080913E01882341F080914E020E94CD0011
:1003F00080914F020E94CD0030913201E09138018E
:10040000F0913901208181E090E002C0880F991FAE
:100410003A95E2F78095909582238083DF91CF9182
:100420001F910F91FF90EF900895CF93DF93CDB779
:10043000DEB76D970FB6F894DEBF0FBECDBF8091CB
:10044000000190910101A09102018B8F9C8FAD8FD3
:1004500081E1E4E0F1E0DE01119601900D928A95D0
:10046000E1F761E1CE0101960E94BD0168E0CE0195
:1004700042960E945C018823C9F0FE017296DE015B
:100480005B96CE01459631912D9132130EC0E8173F
:10049000F907C9F78D89809340018E8980933F01C8
:1004A0008F8980933E0181E001C080E06D960FB698
:1004B000F894DEBF0FBECDBFDF91CF910895CF93EB
:1004C000C82F0E946C00C15090914702992319F0E7
:1004D000C111F7CF8FEFCF910895CF93DF9300D065
:1004E000CDB7DEB78DEF89831A8262E0CE01019627
:1004F0000E94BD0181E00E945F02813C21F00E94C8
:100500004D0680E001C081E00F900F90DF91CF9108
:100510000895CF93DF9300D0CDB7DEB719821A824A
:1005200081E080933E0162E0CE0101960E94BD0110
:100530000E944D060F900F90DF91CF910895CF93B9
:10054000DF9300D000D0CDB7DEB790914C02809100
:1005500048029F3F11F48F3F91F02FEF29831A82B9
:100560009B838C8364E0CE0101960E94BD0182E0F2
:100570000E945F0291E0803319F090E001C091E0A9
:10058000892F0F900F900F900F90DF91CF910895CA
:10059000CF93DF9300D000D0CDB7DEB78EEF898345
:1005A0001A821B8280914D028C83811102C081E0EE
:1005B0008B8364E0CE0101960E94BD0182E00E941F
:1005C0005F028F3F71F460914D0280913C019091E8
:1005D0003D010E94BD0188E20E945F0291E08033EC
:1005E00009F090E0892F0F900F900F900F90DF91FE
:1005F000CF910895CF93DF9300D0CDB7DEB70E949F
:100600009F028823E9F080914D028A8380914B02FA
:10061000823029F0843029F0813029F402C087E04B
:1006200001C083E0898362E0CE0101960E94BD0192
:1006300060914D0280913C0190913D010E945C01CE
:100640000F900F90DF91CF910895CF93DF9300D05B
:10065000CDB7DEB70E949F02882391F084E08983A2
:1006600080914D028A8362E0CE0101960E94BD0115
:1006700060914D0280913C0190913D010E945C018E
:100680000F900F90DF91CF910895CF93DF9300D01B
:10069000CDB7DEB70E949F02982F8823A9F00E9451
:1006A000C802982F882381F085E0898381E08A83BE
:1006B00062E0CE0101960E94BD0180E00E945F02CF
:1006C00091E0803309F090E0892F0F900F90DF9137
:1006D000CF910895CF93DF9300D0CDB7DEB70E94BE
:1006E0009F02882389F082E0898381E08A8362E027
:1006F000CE0101960E94BD0180E00E945F0280331E
:1007000011F481E001C080E00F900F90DF91CF9154
:100710000895CF93DF9300D0CDB7DEB70E949F023C
:10072000982F8823A1F00E94C802982F882379F07F
:1007300081E089838A8362E0CE0101960E94BD0137
:1007400082E30E945F0291E0803309F090E0892FFC
:100750000F900F90DF91CF910895CF93DF9300D04A
:10076000CDB7DEB70E949F02882381F00E94C802A5
:10077000882361F084E0898381E08A8362E0CE018E
:1007800001960E94BD0184E00E945F020F900F90CD
:10079000DF91CF91089520913201E0913A01F091DB
:1007A0003B01408181E090E0BC0102C0660F771FF1
:1007B0002A95E2F79B0120953095242320833091E0
:1007C0003201E0913A01F0913B01208101C0880F94
:1007D0003A95EAF7822B8083089510923E01109299
:1007E0003F0110924001109241010E94E8070E94CF
:1007F000DF0720913201E0913801F0913901408109
:1008000081E090E0BC0102C0660F771F2A95E2F7F5
:100810009B012095309524232083EFE8F1E0319768
:10082000F1F700C00000E0913301F0913401208124
:100830004091320130E002C0359527954A95E2F7A4
:10084000217040913201E0913801F09139013081FD
:10085000BC0102C0660F771F4A95E2F7AB01432B3C
:10086000408340913201E0913A01F0913B013081A7
:1008700002C0880F991F4A95E2F7809590958323CF
:10088000808370E77A95F1F74A9922605A985298D6
:1008900040913201E0913A01F0913B01308181E0D9
:1008A00090E0BC0102C0660F771F4A95E2F7AB01EA
:1008B000432B408375E07A95F1F7000040913201B7
:1008C000E0913801F0913901308102C0880F991F01
:1008D0004A95E2F780959095832380832093400189
:1008E00081E0211101C080E0089530913201E09152
:1008F0003801F0913901208181E090E001C0880F3A
:100900003A95EAF7822B80830E94CB03529A08958E
:100910005A9852980E94CB0330913201E0913801ED
:10092000F0913901208181E090E002C0880F991F89
:100930003A95E2F780959095822380830895CF932E
:10094000DF930E9475045A980E94CB035A9A0E9422
:10095000CB035A985298D8E0C0E0C6950E94CB03CA
:100960004A99C068D150C9F70E9488048C2FDF9142
:10097000CF910895CF93DF93CFEFDFEF0E949F04D5
:1009800080FD04C0209711F02197F8CF81E0CD2B96
:1009900009F480E0DF91CF910895CF93DF93D82FB2
:1009A0000E9475045A9A0E94CB030E94CB03C8E0B0
:1009B000D0FF02C05A9A01C05A980E94CB03D69524
:1009C000C150B1F7DF91CF910C948804CF93DF939E
:1009D0005A985298CFEFDFEF0E94CB03219711F086
:1009E0004A9BFACF81E0CD2B09F480E0DF91CF91D3
:1009F0000895CF93109254030E9475045A980E9450
:100A0000CB030E94CB030E94CB030E94CB030E9426
:100A1000E6048823A1F0C8E0809154038695809372
:100A200054030E94CB034A9B05C080915403806805
:100A300080935403C15081F70E94880481E0CF91D4
:100A400008950E94BA04882349F00E94F90488237B
:100A500029F081E0909154039D3009F080E00895E1
:100A600080E00E94CD040E94F904809154038850D4
:100A7000823310F0109254038091540380933E010E
:100A80000895CF93DF93D82F0E9475045A9A0E943D
:100A9000CB035A980E94CB030E94CB030E94CB0346
:100AA000C8E0D0FF02C05A9A01C05A980E94CB03F6
:100AB000D695C150B1F70E94E604882361F00E94E8
:100AC0008804CFEFDFEF0E949F0481FF04C02097CE
:100AD00011F02197F8CFDF91CF91089580914C02CA
:100AE0000E944105809148020E94410580914D027B
:100AF0000E9441050C942105CF93C82F84EB0E94DE
:100B0000CD048C2F0E944105CF910C9421050E94A9
:100B1000ED03811102C080E008950E943005882312
:100B2000D1F382E00E94CD0482E00E94410584E07E
:100B30000E94410587EB91E00197F1F700C00000AA
:100B400081E00E9441059FE725EB81E09150204024
:100B50008040E1F700C0000082E00E947C0588230D
:100B6000D1F20E94F9048091540380933F018FEFEA
:100B70000E94CD0480E80E9441058FE99FE0019723
:100B8000F1F700C000008FEE0E94CD0482E00E94C9
:100B9000410581E00895CF9386E00E947C05811194
:100BA00002C080E01EC00E946E058823D1F3C09170
:100BB0004D020E94BA048823A1F30E94F9048823FD
:100BC00081F3E0913C01F0913D01CF0101969093BA
:100BD0003D0180933C01809154038083C15049F7CB
:100BE00081E0CF910895CF9387E00E947C05882310
:100BF000C1F00E946E058823A1F0C0914D02E091E2
:100C00003C01F0913D01CF01019690933D0180930D
:100C10003C0180810E944105C15089F7CF910C941D
:100C2000BA0480E0CF910895CF93C0914C02C6954D
:100C3000CF3090F488E00E947C05882369F08C2FE7
:100C40000E9441050E942105882331F080E00E9426
:100C50004105CF910C94BA0480E0CF91089583E0D0
:100C60000E947C05882359F08EED0E9441058DEA93
:100C70000E94410585EA0E9441050C94BA0480E077
:100C800008951F920F920FB60F9211240C9400003A
:100C90000F900FBE0F901F90189510923F01109269
:100CA0003E010895EF92FF920F931F93CF93DF932E
:100CB00010923F0110923E0180914B02882361F017
:100CC000853008F09DC0C3E0D0E014E003E0FF24CD
:100CD000F39482E0E82E62C00E9487058FC0809165
:100CE000C00087FD84C080914B02843009F45BC052
:100CF0000E94010E882309F456C000934B02809194
:100D00003E0190913F018730934909F454C080918E
:100D10003E0190913F018A30934909F44CC0809183
:100D20003E0190913F018F30934909F444C0809176
:100D30003E0190913F0121E08B30944909F020E081
:100D400040913E0150913F0180913F018823A9F1DC
:100D500080913F01803988F580913E0161E030E06B
:100D6000863009F060E0862F932F382F211128C09C
:100D7000413068EE560720F5992790914B0291304B
:100D800010F52197B9F1811134C02FEF39EF60E0F0
:100D9000215030406040E1F700C000008091C10068
:100DA00084FFA1CF9CCF0E941502882309F4A7CF0E
:100DB00010934B02A4CF21E0C3CF80E090E0D5CFC9
:100DC00081E090E0DACF933010F09430D1F64130EA
:100DD000584E18F0F0924B02D4CF222319F0E09233
:100DE0004B02CFCF332369F210934B02CACF80E07E
:100DF00001C081E090914B0290934101811105C0A7
:100E000010923F0110923E0180E0DF91CF911F913F
:100E10000F91FF90EF900895909146029817B1F0CE
:100E200090914B02911112C040913201E0913A0130
:100E3000F0913B01908121E030E002C0220F331F8E
:100E40004A95E2F72095309529232083482F50E0DA
:100E50004830510508F0A7C0FA01EC5CFF4F0C9434
:100E60005B0F2AE230E030933901209338012BE206
:100E700030E030933B0120933A0129E230E0309397
:100E800034012093330193E08CC02AE230E03093A8
:100E90003901209338012BE230E030933B0120935D
:100EA0003A0129E230E0309334012093330194E099
:100EB00078C02AE230E030933901209338012BE2E8
:100EC00030E030933B0120933A0129E230E0309347
:100ED00034012093330195E064C02AE230E030937E
:100EE0003901209338012BE230E030933B0120930D
:100EF0003A0129E230E0309334012093330196E047
:100F000050C02AE230E030933901209338012BE2BF
:100F100030E030933B0120933A0129E230E03093F6
:100F200034012093330197E03CC024E230E0309359
:100F300039012093380125E230E030933B012093C2
:100F40003A0123E230E030933401209333011092D0
:100F5000320129C024E230E0309339012093380176
:100F600025E230E030933B0120933A0123E230E068
:100F7000309334012093330191E013C024E230E038
:100F8000309339012093380125E230E030933B0162
:100F900020933A0123E230E030933401209333016F
:100FA00092E0909332018093460208955B9A5C9A96
:100FB0005D9A5E9A5F9A289A299A2A9A08955B9870
:100FC0005C985D985E985F98289829982A9808956B
:100FD000539A549A559A569A579A209A219A229A35
:100FE0000895539854985598569857982098219852
:100FF0002298089580914B02882351F084E08093D9
:10100000B1000E94F1070E94D60780E00C940C0703
:1010100008950FB6F894A895809160008861809338
:101020006000109260000FBE0E94FA070E941F0F1E
:101030000E949308EECF9627092E0294202D2F7040
:101040002927692F6025660F607E2627602D692776
:10105000607F6695092E000C661F9695969596956D
:101060009F7196279827822F08952F923F92EF9293
:10107000FF921F93CF93DF93E1016EE280E090E057
:101080000E941B086F810E941B0860914C020E9405
:101090001B08609148020E941B086E810E941B0879
:1010A000382F292FEC80FD801E81F70161917F018F
:1010B000832F922F0E941B08382F292F1150A9F738
:1010C0006B810E941B08F82EE92E8EE20E94340FDD
:1010D0008F810E94340F80914C020E94340F8091C6
:1010E00048020E94340F8E810E94340F1E81EC81D1
:1010F000FD8180810E94340F8C819D8101969D83AA
:101100008C831150A1F78B810E94340F8E2D0E9489
:10111000340F8F2DDF91CF911F91FF90EF903F9073
:101120002F900C94340F2F923F924F925F926F92B8
:101130007F928F929F92AF92BF92CF92DF92EF9267
:10114000FF920F931F93CF93DF93CDB7DEB72C970A
:101150000FB6F894DEBF0FBECDBFF8944E0129E064
:10116000820E911C90E5E92E92E0F92E22E4A22E47
:1011700021E0B22E01E010E03EE3432E31E0532E99
:1011800045E1642E41E0742E0E943F0F8F32E1F75B
:101190001A8619869E828D8241E04F830E943F0FFE
:1011A0008887909155039111EFCF8F3219F40E94E7
:1011B0003F0F88876FE280E090E00E941B086885FF
:1011C0000E941B086C010E943F0F80934C0290917B
:1011D0005503992311F081E04AC0682FC6010E948F
:1011E0001B086C010E943F0F8093480290915503A9
:1011F0009111F1CF682FC6010E941B086C010E945B
:101200003F0F8B83909155039111E5CF682FC60155
:101210000E941B086C013B8080E592E09C878B87D5
:101220000E943F0FEB85FC858193FC87EB879091B3
:1012300055039111D0CF682FC6010E941B086C0185
:101240003A943110EDCF0E943F0F8A83809155036D
:101250008111C1CF0E943F0F898380915503811175
:10126000BACF29813A81C216D30609F083E08C8374
:101270008111EAC1F0923D01E0923C01E8858E2F98
:1012800090E0FC01F097E131F10508F0DBC1E45C8E
:10129000FF4F0C945B0F80913E01882309F4D4C169
:1012A00080914B02833028F4813040F40E94300555
:1012B00007C0833049F0843009F0C6C10E946D0236
:1012C0008111C2C18FE0BFC10E948F0DF9CF8CE6A2
:1012D0008987BAC18CE08F837E826D82B5C182E03E
:1012E0008F8388EC898786E08A87AEC1AE014F5F25
:1012F0005F4F1A010E94350880914B02811106C090
:101300000E94ED030E94F1070E94DF0780E00E9427
:101310000C070E944D065FEF83EC99E0515080402E
:101320009040E1F700C000002C960FB6F894DEBFA5
:101330000FBECDBFDF91CF911F910F91FF90EF9026
:10134000DF90CF90BF90AF909F908F907F906F90E5
:101350005F904F903F902F9008958091500285307C
:1013600010F089E070C180934B020E94FA076CC1B3
:1013700080915002883098F40E940C0780914B02B3
:10138000833028F4813068F40E94ED035DC184301D
:1013900041F05AC180915002883008F459C088E069
:1013A00052C1D09048020E948902E1E0DE124CC195
:1013B00080913201E0913801F09139012081A8013A
:1013C00002C0440F551F8A95E2F7CA01822B808321
:1013D00080913201E0913A01F0913B012081A80116
:1013E00002C0440F551F8A95E2F7CA018095909577
:1013F000822380835FEF85EA9EE0515080409040D9
:10140000E1F700C0000080913201E0913A01F091D3
:101410003B012081A80102C0440F551F8A95E2F7C5
:10142000CA01822B808380913201E0913801F091D2
:1014300039011AC080915002883008F0B0CF0E9464
:101440000C0754E05F835E824D820E94520638CFC3
:101450000E940C0780914B028111F6C080913201ED
:10146000E0913A01F0913B012081A80102C0440FB4
:10147000551F8A95E2F7CA01809590958223808353
:10148000E3C080914B02833030F4813008F0DAC041
:101490000E942F0615CF833009F0B4C00E94CA0EF7
:1014A0000FCF90914B02943018F4923020F0CAC0C4
:1014B000943009F0C9C0809150028987943019F4A2
:1014C000880F880F01C0880F80934C021092480249
:1014D000911103C00E941406F3CE0E946A03F0CE5D
:1014E0008091500280934D0280914B02833028F40A
:1014F000813038F40E94CB051BC0833029F0843042
:10150000F9F40E94FA0214C00E94F30E11C08091F7
:10151000500280934D0280914B02823039F020F0CE
:10152000833059F0843061F482E005C00E942503C5
:10153000811106C08FE08C8303C00E94FE0EF8CF9D
:101540008C81811181C080914D028F83FE82ED825A
:101550007BC08B8180934D028FE08C8380914B0206
:10156000833018F4813030F039C08330E1F18430B9
:10157000A9F16AC00E94F305882309F465C0B092FE
:101580003D01A0923C010E94CB05882309F45CC078
:101590001C82F0923D01E0923C01B0924A02A0927E
:1015A000490280914D02A0913C01B0913D01E09132
:1015B0004902F0914A022C919081291711F054E0D0
:1015C0005C831196B0933D01A0933C013196F0935A
:1015D0004A02E0934902815031F736C00E948903E4
:1015E000882391F12BC00E94090FFACF8B81809341
:1015F0004D028FE08C8380914B02823031F010F1EC
:10160000833031F0843001F51DC00E944503E8CFDE
:101610000E94140FE5CFC0904B0284E0C81212C0A4
:101620008B8180934D028FE0D82EDC820E94AD0327
:10163000803321F0803C21F4CC8206C01C8204C09F
:10164000DC8202C082E08C83FE0131961F010E9481
:1016500035089ACD90915A03982790935A0398E0B1
:1016600021E030E0E0913A01F0913B0140913201FC
:101670006081D90102C0AA0FBB1F4A95E2F7AD01F4
:10168000462B40831092B20080FF20C04091B200F0
:101690004031E0F340913201E0913A01F0913B0199
:1016A0006081D90102C0AA0FBB1F4A95E2F7AD01C4
:1016B00040955095462340831092B2004091B2006D
:1016C0004031E0F38695915069F608954091B2005B
:1016D0004830E0F340913201E0913A01F0913B0152
:1016E0006081D90102C0AA0FBB1F4A95E2F7AD0184
:1016F00040955095462340831092B2004091B2002D
:101700004830E0F340913201E0913A01F0913B0121
:101710006081D90102C0AA0FBB1F4A95E2F7AD0153
:10172000462B40831092B2004091B2004830E0F363
:1017300040913201E0913A01F0913B016081D90181
:1017400002C0AA0FBB1F4A95E2F7AD014095509524
:10175000462340831092B2004091B2004830E0F33B
:10176000B1CF30913201E0913801F09139012081FF
:1017700081E090E001C0880F3A95EAF7822B8083E0
:101780008FEF0E942A0B8FEF0E942A0B8FE70E9497
:101790002A0B10925A038BE10E942A0B8091570367
:1017A0008F5F809357030C942A0B80915A030E94F9
:1017B0002A0B30913201E0913A01F0913B012081F6
:1017C00081E090E001C0880F3A95EAF7822B808390
:1017D0001092B2008091B2008830E0F33091320173
:1017E000E0913801F0913901208181E090E002C060
:1017F000880F991F3A95E2F7809590958223808310
:1018000008951092B200E0913301F091340180818B
:101810002091320190E002C0959587952A95E2F7D4
:1018200080FF0AC08091B2008E3788F38FEF089551
:101830008091B2008E37D0F780812091320190E004
:1018400002C0959587952A95E2F780FFF1CF8091A8
:10185000B2008093590390915B03981738F110926E
:10186000B200E0913301F091340180812091320186
:1018700090E002C0959587952A95E2F780FF09C010
:101880008091B2008E3788F3D1CF8091B2008E372D
:1018900068F680812091320190E002C0959587958D
:1018A0002A95E2F780FFF1CF80E0089581E0089566
:1018B000FC01108280E090E041E050E01092B20024
:1018C000A0913301B09134012C916091320130E04C
:1018D00002C0359527956A95E2F720FF0AC020914E
:1018E000B2002E3788F380E008952091B2002E37A1
:1018F000D0F72C916091320130E002C035952795E8
:101900006A95E2F720FFF1CF3091B20020915B039E
:10191000231730F11092B200A0913301B09134013D
:101920002C916091320130E002C0359527956A957F
:10193000E2F720FF09C02091B2002E3788F3D3CF01
:101940002091B2002E3778F62C916091320130E070
:1019500002C0359527956A95E2F720FFF1CF09C0BF
:1019600060819A01082E01C0220F0A94EAF7262B03
:10197000208301968830910509F0A0CF90915603FD
:10198000808189278093560381E00895CF93DF9368
:1019900088E180935B0380915803853139F082316F
:1019A00029F0813031F0C6E4D0E005C0C0E6DAEEBF
:1019B00002C0C1E0D0E00E94010C87FF04C0219763
:1019C000D1F780E017C0CAE00E94010C8F3FC9F335
:1019D000C150D1F780915903982F96958695869599
:1019E000890F80935B030E94010C8F3F51F31816FF
:1019F000D4F381E0DF91CF910895EF92FF920F939E
:101A00001F93CF93DF9300D01F92CDB7DEB77C0139
:101A10001B820E94C60C811102C080E076C0109229
:101A20005603CE0103960E94580C8823B1F38B8194
:101A30008B3199F7CE0103960E94580C882369F3E5
:101A40009B81809157039813E8CFCE0102960E94A4
:101A5000580C882311F38A818230F8F6CE01019662
:101A60000E94580C8823C9F289819A81892BA9F296
:101A7000CE0103960E94580C882379F28B818E3018
:101A800061F6CE0103960E94580C882331F29B81A7
:101A9000809158039813C1CFCE0103960E94580C31
:101AA000882309F4BACF8B818111B7CF00E010E011
:101AB000C701800F911F29813A81225031090217F5
:101AC000130740F40E94580C882309F4A6CF0F5F37
:101AD0001F4FEECFCE0103960E94580C882309F4C5
:101AE0009CCF80915603811198CF30913201E091C3
:101AF0003A01F0913B01208181E090E001C0880F24
:101B00003A95EAF7822B808381E00F900F900F9037
:101B1000DF91CF911F910F91FF90EF900895CF9398
:101B200081E0809358030E94B10B80E00E942A0B51
:101B300081E00E942A0B8EE00E942A0B81E00E9425
:101B40002A0B0E94D50B82E291E00E94FD0CC82F67
:101B5000811103C00E944D0601C0C1E08C2FCF91BE
:101B60000895FF920F931F93CF93DF938C01C62F9D
:101B7000F42ED22F8DE1809358030E94B10B80E0A8
:101B80000E942A0B88E00E942A0B8EE00E942A0BFA
:101B90008DE10E942A0B84E00E942A0B84E00E94BF
:101BA0002A0B80E00E942A0B8C2F0E942A0B8F2D7B
:101BB0000E942A0B8D2F0E942A0B80E00E942A0B84
:101BC0000E94D50B82E291E00E94FD0C882399F0DF
:101BD0008091220181110EC080912301C81711F05C
:101BE000811108C080912401811104C080912501D8
:101BF000F801808381E0DF91CF911F910F91FF90D9
:101C000008950E948F0D882399F021E040E060E361
:101C10008FE391E00E94B10D882351F022E040E073
:101C200060E38EE391E00E94B10D91E0811101C06B
:101C300090E0892F089580914C028F3F21F480918C
:101C400048028F3F29F186E0809358030E94B10B30
:101C500080E00E942A0B85E00E942A0B8EE00E9401
:101C60002A0B86E00E942A0B80E00E942A0B80E06B
:101C70000E942A0B80914C020E942A0B80914802FC
:101C80000E942A0B0E94D50B82E291E00C94FD0C7D
:101C900081E00895CF93C1E080914D028111C0E0B1
:101CA0000E94B10B80E00E942A0B84E00E942A0B64
:101CB0008EE00E942A0B809158030E942A0B8C2FE1
:101CC0000E942A0B80914D020E942A0B80EA0E94FA
:101CD0002A0B0E94D50B80913C0190913D01CF9140
:101CE0000C94FD0C0F931F93CF93DF93C0914D0283
:101CF000CC2339F08C2F90E00A96182F092FD0E0D2
:101D000003C01AE001E0D1E00E94B10B802F0E94D5
:101D10002A0B812F0E942A0B8EE00E942A0B8091B1
:101D200058030E942A0B8D2F0E942A0B8C2F0E9491
:101D30002A0B80E00E942A0B80E00E942A0B80E0A0
:101D40000E942A0B80E00E942A0B80E00E942A0B4E
:101D500080E00E942A0B80E00E942A0BE0913C0167
:101D6000F0913D0180810E942A0B80913C0190916D
:101D70003D01019690933D0180933C01C15071F764
:101D80000E94D50B82E291E0DF91CF911F910F91DC
:101D90000C94FD0C82E1809358030E94B10B80E00B
:101DA0000E942A0B87E00E942A0B8EE00E942A0BD9
:101DB00082E10E942A0B84E10E942A0B80E00E94AB
:101DC0002A0B8CEA0E942A0B88E80E942A0B83E1E6
:101DD0000E942A0B86E70E942A0B0E94D50B82E202
:101DE00091E00C94FD0C0E941B0E882329F084E1E5
:101DF000809358030C944A0E80E008950E941B0EB5
:101E0000882329F086E1809358030C944A0E80E0E1
:101E100008950E941B0E882329F083E180935803C4
:101E20000C94720E80E008950E941B0E882329F006
:101E300085E1809358030C94720E80E00895E0ECE5
:101E4000F0E080818D7F808389E190E09093C500F0
:101E50008093C40086E08093C20088E18093C10033
:101E600085E08093810008959091C00095FFFCCF9C
:101E70008093C6008091C00086FFFCCF0895109229
:101E8000550310928500109284008091C00087FD58
:101E90000FC0809184009091850021E0853C39E05D
:101EA000930708F420E020935503853C994068F39C
:101EB0008091C6000895EE0FFF1F0590F491E02D6C
:061EC0000994F894FFCF25
:101EC6003437310000000000000000000D424C488D
:101ED600656C69F47D6D3477414E6D33323850311F
:021EE6003600C4
:00000001FF
