:100000000C94A5000C94C6000C94C6000C94C60079
:100010000C94C6000C94C6000C94C6000C94C60048
:100020000C94C6000C94C6000C94C6000C94C60038
:100030000C94C6000C94C6000C94C6000C94C60028
:100040000C94C6000C94C6000C94C6000C94C60018
:100050000C9463050C94C6000C94C6000C94C60066
:100060000C94C6000C94C6000C94C6000C94C600F8
:100070000C94C6000C94C6000C94C6000C94C600E8
:100080000C94C6000C94C6000C94C6000C94C600D8
:100090000C94C6000C94C6000C94C6000C94C600C8
:1000A0000C94C6000C94C6000C94C6000C94C600B8
:1000B0000C94C6000C94C6000C94C6000C94C600A8
:1000C0000C94C6000C94C6000C94C6000C94C60098
:1000D0000C94C6000C94C6000C94C6000C94C60088
:1000E0000C94C6007607920795079C07A207E207C3
:1000F000DC08F107FD070D082C086508F707430821
:10010000B008D607C5080C94C5080C940D080C94CB
:1001100065080C9495070C94DC080C94A2070C94C9
:10012000E2070C9476070C94D6070C942C080C94D8
:10013000F7070C9443080C94F1070C94B0080C9446
:100140009C070C94FD070C94920711241FBECFEF5F
:10015000D1E2DEBFCDBF00E00CBF12E0A0E0B2E014
:10016000ECE6F8E100E00BBF02C007900D92A2326E
:10017000B107D9F724E0A2E2B2E001C01D92A43594
:10018000B207E1F70E9438060C94340C0C9400007E
:1001900081E080933F03799B08C083ED95E4799BD0
:1001A00004C00197E1F780E008951092B2008091B9
:1001B000B2008630E0F320E030E080E096E041E0FD
:1001C00050E0935F6091B2006917E0F3799B07C03C
:1001D000BA01022E01C0660F0A94EAF7862B2F5F40
:1001E0003F4F9E3671F79091B2009F37E0F3799BB5
:1001F000DACF10923F0308951092B2009091B200AE
:100200009A30E0F31092B200819A89981092B2006D
:100210009091B2009A30E0F39AE080FF02C0899A90
:1002200001C08998935F86952091B2002917E0F369
:10023000923799F7899A8198089520913202809196
:1002400046039091470338E0AC0142279695879585
:1002500040FF04C041E0842740EA942726953150AE
:1002600099F79093470380934603209332020895B1
:10027000EF92FF920F931F93CF93DF938C01D62FB2
:1002800010924703109246031092340210923302E8
:100290007C01C0E00E94C800F70181937F0180913A
:1002A0003F03882311F0DFEF39C0CF5FDC13F2CFBB
:1002B00080913702811108C00E94C800D82F809118
:1002C0003F03882391F02AC00E94C8008093330224
:1002D00080913F038111E7CF0E94C80080933402D0
:1002E00080913F03882341F3DECF8091370288233A
:1002F000A9F0F80181918F01809332020E941D01C3
:10030000C150B9F7209146033091470380913302E1
:10031000909134022817390709F0D2EC81E0D033EC
:1003200009F080E0DF91CF911F910F91FF90EF9046
:100330000895EF92FF920F931F93CF93DF938C0159
:10034000C62F819A1092470310924603809137027C
:10035000882359F07801D62FF70181917F0180938E
:1003600032020E941D01D150B9F7F80181918F012D
:10037000809332020E94FC00C150B9F7809137028D
:10038000882341F0809146030E94FC00809147033E
:100390000E94FC008198DF91CF911F910F91FF90F7
:1003A000EF900895CF93DF93CDB7DEB76D970FB67B
:1003B000F894DEBF0FBECDBF809100029091010284
:1003C000A09102028B8F9C8FAD8F81E1E4E0F2E07F
:1003D000DE01119601900D928A95E1F761E1CE015F
:1003E00001960E94990168E0CE0142960E94380170
:1003F0008823C9F0FE017296DE015B96CE01459618
:1004000031912D9132130EC0E817F907C9F78D8984
:10041000809339028E89809338028F8980933702C6
:1004200081E001C080E06D960FB6F894DEBF0FBE8C
:10043000CDBFDF91CF910895CF93C82F0E94C80000
:10044000C15090913F03992319F0C111F7CF8FEF5D
:10045000CF910895CF93DF931F921F92CDB7DEB750
:100460008DEF89831A8262E0CE0101960E94990184
:1004700081E00E941C02813C21F00E94790580E00D
:1004800001C081E00F900F90DF91CF910895CF933D
:10049000DF931F921F92CDB7DEB719821A8281E0D7
:1004A0008093370262E0CE0101960E9499010E947A
:1004B00079050F900F90DF91CF910895CF93DF933F
:1004C00000D01F92CDB7DEB79091440380914003D6
:1004D0009F3F11F48F3F91F02FEF29831A829B8366
:1004E0008C8364E0CE0101960E94990182E00E9413
:1004F0001C0291E0803319F090E001C091E0892F57
:100500000F900F900F900F90DF91CF910895CF93A0
:10051000DF9300D01F92CDB7DEB78EEF89831A82AA
:100520001B82809145038C83811102C081E08B8303
:1005300064E0CE0101960E94990182E00E941C02B3
:100540008F3F71F46091450380913502909136029E
:100550000E94990188E20E941C0291E0803309F018
:1005600090E0892F0F900F900F900F90DF91CF9117
:100570000895CF93DF931F921F92CDB7DEB70E94ED
:100580005E028823E9F0809145038A8380914303CA
:10059000823029F0843029F0813029F402C087E0CC
:1005A00001C083E0898362E0CE0101960E94990137
:1005B0006091450380913502909136020E94380186
:1005C0000F900F90DF91CF910895CF93DF931F92FB
:1005D0001F92CDB7DEB70E945E02882391F084E0BF
:1005E0008983809145038A8362E0CE0101960E944F
:1005F00099016091450380913502909136020E94E5
:1006000038010F900F90DF91CF910895CF93DF9332
:100610001F921F92CDB7DEB70E945E02982F8823EB
:10062000A9F00E948702982F882381F085E08983B2
:1006300081E08A8362E0CE0101960E94990180E008
:100640000E941C0291E0803309F090E0892F0F9006
:100650000F90DF91CF910895CF93DF931F921F9258
:10066000CDB7DEB70E945E02882389F082E08983DD
:1006700081E08A8362E0CE0101960E94990180E0C8
:100680000E941C02803311F481E001C080E00F90D1
:100690000F90DF91CF910895CF93DF931F921F9218
:1006A000CDB7DEB70E945E02982F8823A1F00E948A
:1006B0008702982F882379F081E089838A8362E01A
:1006C000CE0101960E94990182E30E941C0291E0F2
:1006D000803309F090E0892F0F900F90DF91CF9138
:1006E0000895CF93DF931F921F92CDB7DEB70E947C
:1006F0005E02882381F00E948702882361F084E0F3
:10070000898381E08A8362E0CE0101960E9499018B
:1007100084E00E941C020F900F90DF91CF9108950A
:10072000899800000000899A08951092370210926B
:1007300038021092390210923A029FB19695917048
:10074000819A899880E88A95F1F7789992608898DB
:100750008098899A8AE08A95F1F700C081989093F1
:10076000390281E0911101C080E00895819A0E94D0
:100770009003809A0895889880980E9490038198A9
:100780000895CF93DF930E94B60388980E94900348
:10079000889A0E94900388988098D8E0C0E0C69517
:1007A0000E9490037899C068D150C9F70E94BB039A
:1007B0008C2FDF91CF910895CF93DF93CFEFDFEFB1
:1007C0000E94C10380FD04C0209711F02197F8CF4B
:1007D00081E0CD2B09F480E0DF91CF910895CF9394
:1007E000DF93D82F0E94B603889A0E9490030E943C
:1007F0009003C8E0D0FF02C0889A01C088980E9488
:100800009003D695C150B1F7DF91CF910C94BB0303
:10081000CF93DF9388988098CFEFDFEF0E9490030B
:10082000219711F0789BFACF81E0CD2B09F480E07D
:10083000DF91CF910895CF9310924C040E94B6039C
:1008400088980E9490030E9490030E9490030E9447
:1008500090030E9408048823A1F0C8E080914C0412
:10086000869580934C040E949003789B05C08091EC
:100870004C04806880934C04C15081F70E94BB03F4
:1008800081E0CF9108950E94DC03882349F00E9403
:100890001B04882329F081E090914C049D3009F0DD
:1008A00080E0089580E00E94EF030E941B04809185
:1008B0004C048850823310F010924C0480914C0408
:1008C000809337020895CF93DF93D82F0E94B60309
:1008D000889A0E94900388980E9490030E94900337
:1008E0000E949003C8E0D0FF02C0889A01C0889897
:1008F0000E949003D695C150B1F70E940804882346
:1009000061F00E94BB03CFEFDFEF0E94C10381FFC4
:1009100004C0209711F02197F8CFDF91CF9108956F
:10092000809144030E946304809140030E94630409
:10093000809145030E9463040C944304CF93C82F15
:1009400084EB0E94EF038C2F0E946304CF910C94E0
:1009500043040E949503811102C080E008950E9423
:1009600052048823D1F382E00E94EF0382E00E94C8
:10097000630484E00E94630487EB91E00197F1F740
:1009800000C0000081E00E9463049FE725EB81E046
:10099000915020408040E1F700C0000082E00E94BA
:1009A0009E048823D1F20E941B0480914C04809302
:1009B00038028FEF0E94EF0380E80E9463048FE902
:1009C0009FE00197F1F700C000008FEE0E94EF0357
:1009D00082E00E94630481E00895CF9386E00E9444
:1009E0009E04811102C080E01EC00E9490048823F2
:1009F000D1F3C09145030E94DC038823A1F30E9438
:100A00001B04882381F3E0913502F0913602CF0177
:100A10000196909336028093350280914C04808336
:100A2000C15049F781E0CF910895CF9387E00E94AC
:100A30009E048823C1F00E9490048823A1F0C091F5
:100A40004503E0913502F0913602CF010196909373
:100A500036028093350280810E946304C15089F779
:100A6000CF910C94DC0380E0CF910895CF93C09197
:100A70004403C695CF3090F488E00E949E048823FA
:100A800069F08C2F0E9463040E944304882331F094
:100A900080E00E946304CF910C94DC0380E0CF914E
:100AA000089583E00E949E04882359F08EED0E94F1
:100AB00063048DEA0E94630485EA0E9463040C9437
:100AC000DC0380E008951F920F920FB60F9211245D
:100AD0000C9400000F900FBE0F901F9018958091FE
:100AE0004303882329F084E08093B1008198899A98
:100AF000089510923802109237020895EF92FF92F3
:100B00000F931F93CF93DF93109238021092370206
:100B100080914303882361F0853008F09DC0C8E3CD
:100B2000D0E014E003E0FF24F39482E0E82E62C0FA
:100B30000E94A9048FC08091C00087FD84C080916D
:100B40004303843009F45BC00E94D20A882309F46D
:100B500056C000934303809137029091380287304A
:100B6000934909F454C080913702909138028A3039
:100B7000934909F44CC080913702909138028F302C
:100B8000934909F444C0809137029091380221E0E2
:100B90008B30944909F020E040913702509138029F
:100BA000809138028823A9F180913802803988F534
:100BB0008091370261E030E0863009F060E0862FF6
:100BC000932F382F211128C0413068EE560720F5A9
:100BD000992790914303913010F52197B9F1811134
:100BE00034C02FEF34E36CE0215030406040E1F737
:100BF00000C000008091C10084FFA1CF9CCF0E9463
:100C0000D201882309F4A7CF10934303A4CF21E096
:100C1000C3CF80E090E0D5CF81E090E0DACF933091
:100C200010F09430D1F64130584E18F0F092430352
:100C3000D4CF222319F0E0924303CFCF332369F2BC
:100C400010934303CACF80E001C081E09091430339
:100C500090933A02811105C0109238021092370227
:100C600080E0DF91CF911F910F91FF90EF90089559
:100C70000FB6F894A8958091600088618093600019
:100C8000109260000FBE0E946F050E94F00B0E9440
:100C9000C206EECF9627092E0294202D2F70292709
:100CA000692F6025660F607E2627602D6927607F8B
:100CB0006695092E000C661F9695969596959F71E0
:100CC00096279827822F08952F923F92EF92FF92B6
:100CD0001F93CF93DF93E1016EE280E090E00E94EA
:100CE0004A066F810E944A06609144030E944A06A8
:100CF000609140030E944A066E810E944A06382F86
:100D0000292FEC80FD801E81F70161917F01832FE7
:100D1000922F0E944A06382F292F1150A9F76B8174
:100D20000E944A06F82EE92E8EE20E94050C8F8161
:100D30000E94050C809144030E94050C80914003A1
:100D40000E94050C8E810E94050C1E81EC81FD81A4
:100D500080810E94050C8C819D8101969D838C83EE
:100D60001150A1F78B810E94050C8E2D0E94050C5D
:100D70008F2DDF91CF911F91FF90EF903F902F909B
:100D80000C94050C2F923F924F925F926F927F923C
:100D90008F929F92AF92BF92CF92DF92EF92FF928B
:100DA0000F931F93CF93DF93CDB7DEB72A970FB67C
:100DB000F894DEBF0FBECDBFF8942E0129E0420E9D
:100DC000511C08E413E022E0B22E3BE3C32E32E0D4
:100DD000D32E44E0A42E57E3652E52E0752E0E94D8
:100DE000100C8F32E1F71A8619865E824D8281E0FF
:100DF0008F830E94100C888790914D049111EFCF42
:100E00008F3219F40E94100C88876FE280E090E026
:100E10000E944A0668850E944A067C010E94100CC6
:100E20008093440390914D04992311F081E048C0D0
:100E3000682FC7010E944A067C010E94100C809313
:100E4000400390914D049111F1CF682FC7010E948A
:100E50004A067C010E94100C8B8390914D049111E5
:100E6000E5CF682FC7010E944A067C013B8098E4C9
:100E7000892E93E0992E0E94100CF40181934F016A
:100E800090914D049111D2CF682FC7010E944A065C
:100E90007C013A943110EFCF0E94100C8A8380912C
:100EA0004D048111C3CF0E94100C898380914D04A1
:100EB0008111BCCF29813A81E216F30609F083E063
:100EC0008C8381117AC11093360200933502E88534
:100ED0008E2F90E0FC01F097E131F10508F06CC134
:100EE0008827EE58FF4F8F4F0C942C0C80913702BF
:100EF000882309F462C180914303833028F4813050
:100F000040F40E94520407C0833049F0843009F055
:100F100054C10E942A02811150C18FE04CC00E942E
:100F2000600AF9CF8CE6898748C18CE08F8385E120
:100F300092E09E838D8341C1BF8288EC898786E0E1
:100F40008A873BC1FE0131961F010E946406809191
:100F50004303882329F0853028F48198899A02C0B8
:100F60000E9495030E947905FFEF23EC89E0F15080
:100F700020408040E1F700C000002A960FB6F894A8
:100F8000DEBF0FBECDBFDF91CF911F910F91FF90BC
:100F9000EF90DF90CF90BF90AF909F908F907F9019
:100FA0006F905F904F903F902F90089580914803ED
:100FB000853018F089E08C8300C1809343030E9440
:100FC0006F05FBC080914303833028F4813030F4F7
:100FD0000E949503F2C0843009F0EFC00E944702DE
:100FE000ECC0AF827E826D820E947E0594CF80919C
:100FF00043038111E2C08998E0C0809143038330AC
:1010000030F4813008F0D8C00E94510584CF83307D
:1010100009F0B2C00E949B0B7ECF909143039430A5
:1010200018F4923020F0C8C0943009F0C6C0809106
:1010300048038987943019F4880F880F01C0880FFE
:101040008093440310924003911103C00E9436051F
:1010500062CF0E942C035FCF8091480380934503A9
:1010600080914303833028F4813038F40E94ED04EA
:101070001BC0833029F08430F9F40E94B90214C0F7
:101080000E94C40B11C08091480380934503809156
:101090004303823039F020F0833059F0843061F41A
:1010A000BC820AC00E94E502811106C08FE08C83D9
:1010B00003C00E94CF0BF8CF8C8181117EC080913C
:1010C00045038F831E830D8378C08B8180934503F6
:1010D0008FE08C8380914303833018F4813030F0AB
:1010E00037C08330D1F1843099F167C00E94150573
:1010F000882309F462C0D0923602C09235020E9461
:10110000ED04882309F459C01C8210933602009321
:101110003502D0924203C092410380914503A091D1
:101120003502B0913602E0914103F09142032C91D7
:1011300090812913AC821196B0933602A0933502A8
:101140003196F0934203E0934103815041F735C05B
:101150000E944C03882389F12BC00E94DA0BFACF3E
:101160008B81809345038FE08C8380914303823091
:1011700031F010F1833031F08430F9F41DC00E9459
:101180000603E8CF0E94E50BE5CFE090430394E02F
:10119000E91212C08B81809345038FE0F82EFC8208
:1011A0000E947103803321F0803C21F4EC8205C061
:1011B0001C8203C0FC8201C0BC82FE0131961F016B
:1011C0000E9464060CCE909152049827909352048A
:1011D00098E0899A1092B20080FF0FC02091B2006F
:1011E0002031E0F389981092B2002091B2002031B2
:1011F000E0F38695915069F708952091B200283068
:10120000E0F389981092B2002091B2002830E0F308
:10121000899A1092B2002091B2002830E0F38998A8
:101220001092B2002091B2002830E0F3E2CF819A10
:101230008FEF0E94E3088FEF0E94E3088FE70E9480
:10124000E308109252048BE10E94E30880914F045E
:101250008F5F80934F040C94E308809152040E94A6
:10126000E308899A1092B2008091B2008830E0F3CE
:10127000819808951092B200799B0AC08091B200C3
:101280008E37D0F38FEF08958091B2008E37D0F76C
:10129000799BFACF8091B2008093510490915304CE
:1012A000981788F01092B200799B09C08091B20023
:1012B0008E37D0F3E7CF8091B2008E3718F7799B45
:1012C000FACF80E0089581E00895FC01108280E06B
:1012D00090E041E050E01092B200799B0AC020916A
:1012E000B2002E37D0F380E008952091B2002E375F
:1012F000D0F7799BFACF3091B20020915304231795
:1013000080F01092B200799B09C02091B2002E3774
:10131000D0F3E9CF2091B2002E3728F7799BFACF8E
:1013200009C060819A01082E01C0220F0A94EAF7D1
:10133000262B208301968830910569F690914E0402
:101340008081892780934E0481E00895CF93DF93B5
:1013500088E18093530480915004853139F08231C3
:1013600029F0813031F0C6E4D0E005C0C0E6DAEE05
:1013700002C0C1E0D0E00E943A0987FF04C0219773
:10138000D1F780E017C0CAE00E943A098F3FC9F345
:10139000C150D1F780915104982F969586958695E6
:1013A000890F809353040E943A098F3F51F3181616
:1013B000D4F381E0DF91CF910895EF92FF920F93E4
:1013C0001F93CF93DF9300D0CDB7DEB77C011B8294
:1013D0000E94A609811102C080E068C010924E04EC
:1013E000CE0103960E9465098823B1F38B818B316E
:1013F00099F7CE0103960E946509882369F39B81C2
:1014000080914F049813E8CFCE0102960E9465099F
:10141000882311F38A818230F8F6CE0101960E946A
:1014200065098823C9F289819A81892BA9F2CE01A5
:1014300003960E946509882379F28B818E3061F6CC
:10144000CE0103960E946509882331F29B81809129
:1014500050049813C1CFCE0103960E9465098823DA
:1014600009F4BACF8B818111B7CF00E010E0C7013A
:10147000800F911F29813A812250310902171307E9
:1014800040F40E946509882309F4A6CF0F5F1F4F1F
:10149000EECFCE0103960E946509882309F49CCF04
:1014A00080914E04811198CF899A81E00F900F901E
:1014B0000F90DF91CF911F910F91FF90EF900895C2
:1014C000CF9381E0809350040E94170980E00E942E
:1014D000E30881E00E94E3088EE00E94E30881E0D7
:1014E0000E94E3080E942D0982E292E00E94DD0939
:1014F000C82F811103C00E94790501C0C1E08C2F63
:10150000CF910895FF920F931F93CF93DF938C0198
:10151000C62FF42ED22F8DE1809350040E9417091C
:1015200080E00E94E30888E00E94E3088EE00E94C9
:10153000E3088DE10E94E30884E00E94E30884E070
:101540000E94E30880E00E94E3088C2F0E94E308D9
:101550008F2D0E94E3088D2F0E94E30880E00E94F7
:10156000E3080E942D0982E292E00E94DD098823AF
:1015700099F08091220281110EC080912302C81738
:1015800011F0811108C080912402811104C0809162
:101590002502F801808381E0DF91CF911F910F91A7
:1015A000FF9008950E94600A882399F021E040E0AE
:1015B00060E388E392E00E94820A882351F022E0EF
:1015C00040E060E387E392E00E94820A91E08111AB
:1015D00001C090E0892F0895809144038F3F21F44A
:1015E000809140038F3F29F186E0809350040E9450
:1015F000170980E00E94E30885E00E94E3088EE07E
:101600000E94E30886E00E94E30880E00E94E3086D
:1016100080E00E94E308809144030E94E3088091E7
:1016200040030E94E3080E942D0982E292E00C949C
:10163000DD0981E00895CF93C1E0809145038111D8
:10164000C0E00E94170980E00E94E30884E00E9445
:10165000E3088EE00E94E308809150040E94E308B2
:101660008C2F0E94E308809145030E94E30880EAE2
:101670000E94E3080E942D09809135029091360264
:10168000CF910C94DD090F931F93CF93DF93C091FB
:101690004503CC2339F08C2F90E00A96182F092FA0
:1016A000D0E003C01AE001E0D1E00E941709802FCA
:1016B0000E94E308812F0E94E3088EE00E94E30865
:1016C000809150040E94E3088D2F0E94E3088C2F24
:1016D0000E94E30880E00E94E30880E00E94E308A3
:1016E00080E00E94E30880E00E94E30880E00E941E
:1016F000E30880E00E94E30880E00E94E308E091B4
:101700003502F091360280810E94E3088091350213
:101710009091360201969093360280933502C15023
:1017200071F70E942D0982E292E0DF91CF911F9123
:101730000F910C94DD0982E1809350040E941709F7
:1017400080E00E94E30887E00E94E3088EE00E94A8
:10175000E30882E10E94E30884E10E94E30880E05C
:101760000E94E3088CEA0E94E30888E80E94E308EC
:1017700083E10E94E30886E70E94E3080E942D09A6
:1017800082E292E00C94DD090E94EC0A882329F0A1
:1017900084E1809350040C941B0B80E008950E9418
:1017A000EC0A882329F086E1809350040C941B0BEB
:1017B00080E008950E94EC0A882329F083E1809359
:1017C00050040C94430B80E008950E94EC0A882397
:1017D00029F085E1809350040C94430B80E0089538
:1017E000E0ECF0E080818D7F808389E190E0909350
:1017F000C5008093C40086E08093C20088E1809396
:10180000C10085E08093810008959091C00095FF0C
:10181000FCCF8093C6008091C00086FFFCCF089566
:1018200010924D0410928500109284008091C000A7
:1018300087FD0FC0809184009091850021E0853C58
:1018400039E0930708F420E020934D04853C99404B
:1018500068F38091C6000895EE0FFF1F881F8BBFAD
:0C1860000790F691E02D1994F894FFCF4A
:10186C003437310000000000000000000D424C48ED
:10187C00656C69F47D347741466D323536305F31B5
:02188C00360024
:00000001FF
