:100000000C9445000C9462000C9462000C94620005
:100010000C9462000C9462000C9462000C946200D8
:100020000C9462000C9462000C9462000C946200C8
:100030000C9462000C94F3040C9462000C94620023
:100040000C9462000C9462000C9462000C946200A8
:100050000C9462000C9462000C9462000C94620098
:100060000C9462000C9462000407200723072A07FF
:10007000300770076A087F078B079B07BA07F307EB
:100080008507D1073E086407530811241FBECFEF30
:10009000D8E0DEBFCDBF11E0A0E0B1E0E6E8F7E1D7
:1000A00002C005900D92A032B107D9F723E0A0E27B
:1000B000B1E001C01D92A235B207E1F70E94C80568
:1000C0000C94C10B0C94000081E080933D021B9BBB
:1000D00008C089EE92E21B9B04C00197E1F780E023
:1000E00008951092B2008091B2008630E0F320E0D3
:1000F00030E080E096E041E050E0935F6091B20034
:100100006917E0F31B9B07C0BA01022E01C0660FFE
:100110000A94EAF7862B2F5F3F4F9E3671F7909136
:10012000B2009F37E0F31B9BDACF10923D02089597
:100130001092B2009091B2009A30E0F31092B200A7
:10014000239A2B981092B2009091B2009A30E0F36B
:100150009AE080FF02C02B9A01C02B98935F86958E
:100160002091B2002917E0F3923799F72B9A239840
:10017000089520913001809144029091450238E029
:10018000AC0142279695879540FF04C041E0842743
:1001900040EA94272695315099F790934502809331
:1001A0004402209330010895EF92FF920F931F9322
:1001B000CF93DF938C01D62F109245021092440208
:1001C00010923201109231017C01C0E00E94640063
:1001D000F70181937F0180913D02882311F0DFEFC9
:1001E00039C0CF5FDC13F2CF80913501811108C097
:1001F0000E946400D82F80913D02882391F02AC08C
:100200000E9464008093310180913D028111E7CF0B
:100210000E9464008093320180913D02882341F363
:10022000DECF809135018823A9F0F80181918F01FB
:10023000809330010E94B900C150B9F72091440267
:100240003091450280913101909132012817390790
:1002500009F0D2EC81E0D03309F080E0DF91CF915A
:100260001F910F91FF90EF900895EF92FF920F93DF
:100270001F93CF93DF938C01C62F239A10924502D0
:100280001092440280913501882359F07801D62FCD
:10029000F70181917F01809330010E94B900D15014
:1002A000B9F7F80181918F01809330010E94980085
:1002B000C150B9F780913501882341F08091440203
:1002C0000E949800809145020E9498002398DF9137
:1002D000CF911F910F91FF90EF900895CF93DF93EF
:1002E000CDB7DEB76D970FB6F894DEBF0FBECDBFAA
:1002F0008091000190910101A09102018B8F9C8F50
:10030000AD8F81E1E4E0F1E0DE01119601900D9204
:100310008A95E1F761E1CE0101960E94350168E01E
:10032000CE0142960E94D4008823C9F0FE01729645
:10033000DE015B96CE01459631912D9132130EC0B0
:10034000E817F907C9F78D89809337018E89809363
:1003500036018F898093350181E001C080E06D9680
:100360000FB6F894DEBF0FBECDBFDF91CF910895D9
:10037000CF93C82F0E946400C15090913D029923F1
:1003800019F0C111F7CF8FEFCF910895CF93DF937D
:1003900000D0CDB7DEB78DEF89831A8262E0CE013F
:1003A00001960E94350181E00E94B801813C21F054
:1003B0000E94090580E001C081E00F900F90DF915D
:1003C000CF910895CF93DF9300D0CDB7DEB71982D8
:1003D0001A8281E08093350162E0CE0101960E948D
:1003E00035010E9409050F900F90DF91CF9108957C
:1003F000CF93DF9300D000D0CDB7DEB7909142020B
:1004000080913E029F3F11F48F3F91F02FEF29839F
:100410001A829B838C8364E0CE0101960E94350191
:1004200082E00E94B80191E0803319F090E001C0B1
:1004300091E0892F0F900F900F900F90DF91CF9147
:100440000895CF93DF9300D000D0CDB7DEB78EEF05
:1004500089831A821B82809143028C83811102C09E
:1004600081E08B8364E0CE0101960E94350182E039
:100470000E94B8018F3F71F4609143028091330173
:10048000909134010E94350188E20E94B80191E008
:10049000803309F090E0892F0F900F900F900F900C
:1004A000DF91CF910895CF93DF9300D0CDB7DEB722
:1004B0000E94F8018823E9F0809143028A838091A9
:1004C0004102823029F0843029F0813029F402C0C1
:1004D00087E001C083E0898362E0CE0101960E943B
:1004E00035016091430280913301909134010E9463
:1004F000D4000F900F90DF91CF910895CF93DF93A9
:1005000000D0CDB7DEB70E94F801882391F084E0D7
:100510008983809143028A8362E0CE0101960E9422
:1005200035016091430280913301909134010E9422
:10053000D4000F900F90DF91CF910895CF93DF9368
:1005400000D0CDB7DEB70E94F801982F8823A9F01C
:100550000E942102982F882381F085E0898381E021
:100560008A8362E0CE0101960E94350180E00E94FC
:10057000B80191E0803309F090E0892F0F900F903F
:10058000DF91CF910895CF93DF9300D0CDB7DEB741
:100590000E94F801882389F082E0898381E08A83C0
:1005A00062E0CE0101960E94350180E00E94B80110
:1005B000803311F481E001C080E00F900F90DF9153
:1005C000CF910895CF93DF9300D0CDB7DEB70E94CF
:1005D000F801982F8823A1F00E942102982F8823E8
:1005E00079F081E089838A8362E0CE0101960E94DE
:1005F000350182E30E94B80191E0803309F090E078
:10060000892F0F900F90DF91CF910895CF93DF93B3
:1006100000D0CDB7DEB70E94F801882381F00E9498
:100620002102882361F084E0898381E08A8362E08B
:10063000CE0101960E94350184E00E94B8010F901E
:100640000F90DF91CF9108952B982B9A08951092D7
:10065000350110923601109237011092380193B192
:1006600093FB992790F9239A2B988DE38A95F1F7BC
:1006700000001C9992602C9824982B9A23989093B0
:10068000370181E0911101C080E00895239A0E9412
:100690002403249A08952C9824980E9424032398D4
:1006A0000895CF93DF930E9446032C980E94240361
:1006B0002C9A0E9424032C982498D8E0C0E0C69578
:1006C0000E9424031C99C068D150C9F70E944B03B3
:1006D0008C2FDF91CF910895CF93DF93CFEFDFEF92
:1006E0000E94510380FD04C0209711F02197F8CF9C
:1006F00081E0CD2B09F480E0DF91CF910895CF9375
:10070000DF93D82F0E9446032C9A0E9424030E9454
:100710002403C8E0D0FF02C02C9A01C02C980E948C
:100720002403D695C150B1F7DF91CF910C944B03C0
:10073000CF93DF932C982498CFEFDFEF0E94240310
:10074000219711F01C9BFACF81E0CD2B09F480E0BA
:10075000DF91CF910895CF9310924A030E944603F0
:100760002C980E9424030E9424030E9424030E94C8
:1007700024030E9498038823A1F0C8E080914A03D3
:10078000869580934A030E9424031C9B05C0809198
:100790004A03806880934A03C15081F70E944B034B
:1007A00081E0CF9108950E946C03882349F00E9454
:1007B000AB03882329F081E090914A039D3009F032
:1007C00080E0089580E00E947F030E94AB03809147
:1007D0004A038850823310F010924A0380914A03F2
:1007E000809335010895CF93DF93D82F0E9446035D
:1007F0002C9A0E9424032C980E9424030E94240314
:100800000E942403C8E0D0FF02C02C9A01C02C989B
:100810000E942403D695C150B1F70E949803882303
:1008200061F00E944B03CFEFDFEF0E94510381FF85
:1008300004C0209711F02197F8CFDF91CF91089550
:10084000809142020E94F30380913E020E94F303D2
:10085000809143020E94F3030C94D303CF93C82FDB
:1008600084EB0E947F038C2F0E94F303CF910C94A2
:10087000D3030E942703811102C080E008950E94E3
:10088000E2038823D1F382E00E947F0382E00E948A
:10089000F30384E00E94F3038BED90E00197F1F7FE
:1008A00000C0000081E00E94F3039FEB2AED80E08E
:1008B000915020408040E1F700C0000082E00E949B
:1008C0002E048823D1F20E94AB0380914A038093C7
:1008D00036018FEF0E947F0380E80E94F3038FECC4
:1008E00097E00197F1F700C000008FEE0E947F03B0
:1008F00082E00E94F30381E00895CF9386E00E9496
:100900002E04811102C080E01EC00E9420048823B2
:10091000D1F3C09143020E946C038823A1F30E948B
:10092000AB03882381F3E0913301F0913401CF01CF
:100930000196909334018093330180914A03808320
:10094000C15049F781E0CF910895CF9387E00E948D
:100950002E048823C1F00E9420048823A1F0C091B6
:100960004302E0913301F0913401CF01019690935D
:1009700034018093330180810E94F303C15089F7D1
:10098000CF910C946C0380E0CF910895CF93C091E8
:100990004202C695CF3090F488E00E942E0488234E
:1009A00069F08C2F0E94F3030E94D303882331F057
:1009B00080E00E94F303CF910C946C0380E0CF9110
:1009C000089583E00E942E04882359F08EED0E9442
:1009D000F3038DEA0E94F30385EA0E94F3030C946B
:1009E0006C0380E008951F920F920FB60F921124AE
:1009F0000C9400000F900FBE0F901F9018958091DF
:100A00004102882329F083E08093B10023982B9A38
:100A1000089510923601109235010895EF92FF92D9
:100A20000F931F93CF93DF931092360110923501ED
:100A300080914102882361F0853008F09DC0C8E3B1
:100A4000D0E014E003E0FF24F39482E0E82E62C0DB
:100A50000E9439048FC08091C00087FD84C08091BE
:100A60004102843009F45BC00E94610A882309F4C2
:100A700056C0009341028091350190913601873034
:100A8000934909F454C080913501909136018A3020
:100A9000934909F44CC080913501909136018F3013
:100AA000934909F444C0809135019091360121E0C9
:100AB0008B30944909F020E0409135015091360186
:100AC000809136018823A9F180913601803988F51B
:100AD0008091350161E030E0863009F060E0862FDA
:100AE000932F382F211128C0413068EE560720F58A
:100AF000992790914102913010F52197B9F1811118
:100B000034C02FE73AE166E0215030406040E1F721
:100B100000C000008091C10084FFA1CF9CCF0E9443
:100B20006E01882309F4A7CF10934102A4CF21E0DE
:100B3000C3CF80E090E0D5CF81E090E0DACF933072
:100B400010F09430D1F64130584E18F0F092410236
:100B5000D4CF222319F0E0924102CFCF332369F2A0
:100B600010934102CACF80E001C081E09091410220
:100B700090933801811105C0109236011092350111
:100B800080E0DF91CF911F910F91FF90EF9008953A
:100B90000FB6F894A89580916000886180936000FA
:100BA000109260000FBE0E94FF040E947F0B0E9403
:100BB0005206EECF9627092E0294202D2F7029275A
:100BC000692F6025660F607E2627602D6927607F6C
:100BD0006695092E000C661F9695969596959F71C1
:100BE00096279827822F08952F923F92EF92FF9297
:100BF0001F93CF93DF93E1016EE280E090E00E94CB
:100C0000DA056F810E94DA05609142020E94DA05DE
:100C100060913E020E94DA056E810E94DA05382F4B
:100C2000292FEC80FD801E81F70161917F01832FC8
:100C3000922F0E94DA05382F292F1150A9F76B81C6
:100C40000E94DA05F82EE92E8EE20E94940B8F8125
:100C50000E94940B809142020E94940B80913E026C
:100C60000E94940B8E810E94940B1E81EC81FD8169
:100C700080810E94940B8C819D8101969D838C8341
:100C80001150A1F78B810E94940B8E2D0E94940B22
:100C90008F2DDF91CF911F91FF90EF903F902F907C
:100CA0000C94940B2F923F924F925F926F927F928F
:100CB0008F929F92AF92BF92CF92DF92EF92FF926C
:100CC0000F931F93CF93DF93CDB7DEB72A970FB65D
:100CD000F894DEBF0FBECDBFF8942E0129E0420E7E
:100CE000511C06E412E022E0B22E39E3C32E31E0BB
:100CF000D32E44E0A42E55E3652E51E0752E0E94BC
:100D00009F0B8F32E1F71A8619865E824D8281E051
:100D10008F830E949F0B888790914B039111EFCF97
:100D20008F3219F40E949F0B88876FE280E090E079
:100D30000E94DA0568850E94DA057C010E949F0BFB
:100D40008093420290914B03992311F081E048C0B7
:100D5000682FC7010E94DA057C010E949F0B8093D7
:100D60003E0290914B039111F1CF682FC7010E9471
:100D7000DA057C010E949F0B8B8390914B039111AC
:100D8000E5CF682FC7010E94DA057C013B8096E41D
:100D9000892E92E0992E0E949F0BF40181934F01BE
:100DA00090914B039111D2CF682FC7010E94DA05B1
:100DB0007C013A943110EFCF0E949F0B8A8380917F
:100DC0004B038111C3CF0E949F0B898380914B03FA
:100DD0008111BCCF29813A81E216F30609F083E044
:100DE0008C83811178C11093340100933301E8851D
:100DF0008E2F90E0FC01F097E131F10508F06AC117
:100E0000EC5CFF4F0C94BB0B80913501882309F4F7
:100E100062C180914102833028F4813040F40E9405
:100E2000E20307C0833049F0843009F054C10E94C6
:100E3000C601811150C18FE04CC00E94EF09F9CF6B
:100E40008CE6898748C18AE08F8385E191E09E83A3
:100E50008D8341C1BF8288EC898786E08A873BC148
:100E6000FE0131961F010E94F40580914102882302
:100E700029F0853028F423982B9A02C00E9427037A
:100E80000E940905FFEF21EE84E0F15020408040F0
:100E9000E1F700C000002A960FB6F894DEBF0FBE3F
:100EA000CDBFDF91CF911F910F91FF90EF90DF9019
:100EB000CF90BF90AF909F908F907F906F905F90FA
:100EC0004F903F902F90089580914602853018F002
:100ED00089E08C8300C1809341020E94FF04FBC023
:100EE00080914102833028F4813030F40E9427033E
:100EF000F2C0843009F0EFC00E94E201ECC0AF8282
:100F00007E826D820E940E0594CF809141028111F4
:100F1000E2C02B98E0C080914102833030F48130F0
:100F200008F0D8C00E94E10484CF833009F0B2C039
:100F30000E942A0B7ECF90914102943018F4923097
:100F400020F0C8C0943009F0C6C08091460289875D
:100F5000943019F4880F880F01C0880F80934202E3
:100F600010923E02911103C00E94C60462CF0E94FB
:100F7000C3025FCF80914602809343028091410279
:100F8000833028F4813038F40E947D041BC0833004
:100F900029F08430F9F40E94530214C00E94530BCC
:100FA00011C08091460280934302809141028230B9
:100FB00039F020F0833059F0843061F4BC820AC0EB
:100FC0000E947E02811106C08FE08C8303C00E94C4
:100FD0005E0BF8CF8C8181117EC0809143028F839C
:100FE0001E830D8378C08B81809343028FE08C83B6
:100FF00080914102833018F4813030F037C0833063
:10100000D1F1843099F167C00E94A504882309F4C6
:1010100062C0D0923401C09233010E947D048823C3
:1010200009F459C01C821093340100933301D0920B
:101030004002C0923F0280914302A0913301B091DF
:101040003401E0913F02F09140022C9190812913EC
:10105000AC821196B0933401A09333013196F09392
:101060004002E0933F02815041F735C00E94E20206
:10107000882389F12BC00E94690BFACF8B81809362
:1010800043028FE08C8380914102823031F010F175
:10109000833031F08430F9F41DC00E949E02E8CF05
:1010A0000E94740BE5CFE090410294E0E91212C077
:1010B0008B81809343028FE0F82EFC820E9406030E
:1010C000803321F0803C21F4EC8205C01C8203C0F7
:1010D000FC8201C0BC82FE0131961F010E94F40512
:1010E0000ECE9091500398279093500398E02B9A3E
:1010F0001092B20080FF0FC02091B2002031E0F3C7
:101100002B981092B2002091B2002031E0F3869526
:10111000915069F708952091B2002830E0F32B98A0
:101120001092B2002091B2002830E0F32B9A109276
:10113000B2002091B2002830E0F32B981092B20058
:101140002091B2002830E0F3E2CF239A8FEF0E9483
:1011500071088FEF0E9471088FE70E94710810924A
:1011600050038BE10E94710880914D038F5F809343
:101170004D030C947108809150030E9471082B9AC2
:101180001092B2008091B2008830E0F32398089565
:101190001092B2001B9B0AC08091B2008E37D0F330
:1011A0008FEF08958091B2008E37D0F71B9BFACF56
:1011B0008091B20080934F0390915103981788F06B
:1011C0001092B2001B9B09C08091B2008E37D0F301
:1011D000E7CF8091B2008E3718F71B9BFACF80E0E3
:1011E000089581E00895FC01108280E090E041E0E4
:1011F00050E01092B2001B9B0AC02091B2002E3723
:10120000D0F380E008952091B2002E37D0F71B9BD9
:10121000FACF3091B20020915103231780F0109241
:10122000B2001B9B09C02091B2002E37D0F3E9CF4A
:101230002091B2002E3728F71B9BFACF09C060819E
:101240009A01082E01C0220F0A94EAF7262B208368
:1012500001968830910569F690914C038081892729
:1012600080934C0381E00895CF93DF9388E18093CE
:10127000510380914E03853139F0823129F081305C
:1012800031F0C3E2D0E005C0C0E6DAEE02C0C1E052
:10129000D0E00E94C80887FF04C02197D1F780E002
:1012A00017C0CAE00E94C8088F3FC9F3C150D1F7E8
:1012B00080914F03982F969586958695890F8093F8
:1012C00051030E94C8088F3F51F31816D4F381E0F0
:1012D000DF91CF910895EF92FF920F931F93CF93D9
:1012E000DF9300D01F92CDB7DEB77C011B820E9436
:1012F0003409811102C080E068C010924C03CE0115
:1013000003960E94F3088823B1F38B818B3199F700
:10131000CE0103960E94F308882369F39B81809194
:101320004D039813E8CFCE0102960E94F30888235C
:1013300011F38A818230F8F6CE0101960E94F308FB
:101340008823C9F289819A81892BA9F2CE0103965B
:101350000E94F308882379F28B818E3061F6CE01EA
:1013600003960E94F308882331F29B8180914E03FB
:101370009813C1CFCE0103960E94F308882309F485
:10138000BACF8B818111B7CF00E010E0C701800F89
:10139000911F29813A81225031090217130740F425
:1013A0000E94F308882309F4A6CF0F5F1F4FEECFEA
:1013B000CE0103960E94F308882309F49CCF809104
:1013C0004C03811198CF2B9A81E00F900F900F90D2
:1013D000DF91CF911F910F91FF90EF900895CF93E0
:1013E00081E080934E030E94A50880E00E9471086E
:1013F00081E00E9471088EE00E94710881E00E94E5
:1014000071080E94BB0880E291E00E946B09C82F1E
:10141000811103C00E94090501C0C1E08C2FCF914A
:101420000895FF920F931F93CF93DF938C01C62FE4
:10143000F42ED22F8DE180934E030E94A50880E008
:101440000E94710888E00E9471088EE00E94710875
:101450008DE10E94710884E00E94710884E00E947E
:10146000710880E00E9471088C2F0E9471088F2DF6
:101470000E9471088D2F0E94710880E00E947108FF
:101480000E94BB0880E291E00E946B09882399F0DA
:101490008091200181110EC080912101C81711F0A7
:1014A000811108C080912201811104C08091230123
:1014B000F801808381E0DF91CF911F910F91FF9020
:1014C00008950E94EF09882399F021E040E060E34D
:1014D00086E391E00E94110A882351F022E040E067
:1014E00060E385E391E00E94110A91E0811101C05F
:1014F00090E0892F0895809142028F3F21F48091DE
:101500003E028F3F29F186E080934E030E94A5089A
:1015100080E00E94710885E00E9471088EE00E94C0
:10152000710886E00E94710880E00E94710880E0E6
:101530000E947108809142020E94710880913E02CF
:101540000E9471080E94BB0880E291E00C946B0934
:1015500081E00895CF93C1E0809143028111C0E002
:101560000E94A50880E00E94710884E00E94710832
:101570008EE00E94710880914E030E9471088C2FAA
:101580000E947108809143020E94710880EA0E94C3
:1015900071080E94BB088091330190913401CF9172
:1015A0000C946B090F931F93CF93DF93C091430269
:1015B000CC2339F08C2F90E00A96182F092FD0E019
:1015C00003C01AE001E0D1E00E94A508802F0E942C
:1015D0007108812F0E9471088EE00E94710880912D
:1015E0004E030E9471088D2F0E9471088C2F0E945B
:1015F000710880E00E94710880E00E94710880E01C
:101600000E94710880E00E94710880E00E947108C9
:1016100080E00E94710880E00E947108E09133012F
:10162000F091340180810E94710880913301909182
:10163000340101969093340180933301C15071F7C6
:101640000E94BB0880E291E0DF91CF911F910F9142
:101650000C946B0982E180934E030E94A50880E000
:101660000E94710887E00E9471088EE00E94710854
:1016700082E10E94710884E10E94710880E00E946A
:1016800071088CEA0E94710888E80E94710883E161
:101690000E94710886E70E9471080E94BB0880E2E0
:1016A00091E00C946B090E947B0A882329F084E165
:1016B00080934E030C94AA0A80E008950E947B0A4E
:1016C000882329F086E180934E030C94AA0A80E0D7
:1016D00008950E947B0A882329F083E180934E03BA
:1016E0000C94D20A80E008950E947B0A882329F096
:1016F00085E180934E030C94D20A80E00895E0ECDB
:10170000F0E080818D7F80838CE090E09093C50035
:101710008093C40086E08093C20088E18093C1007A
:1017200085E08093810008959091C00095FFFCCFE3
:101730008093C6008091C00086FFFCCF0895109270
:101740004B0310928500109284008091C00087FDA9
:101750000FC0809184009091850021E0853C39E0A4
:10176000930708F420E020934B03853C994068F3ED
:101770008091C6000895EE0FFF1F0590F491E02DB3
:061780000994F894FFCF6C
:101786003437310000000000000000000D424C48D4
:10179600656C69F47D347741526D333238503800C8
:00000001FF
