:100000000C948B000C94AA000C94AA000C94AA00E7
:100010000C94AA000C94AA000C94AA000C94AA00B8
:100020000C94AA000C94AA000C94AA000C94AA00A8
:100030000C94AA000C94AA000C94AA000C94AA0098
:100040000C94AA000C94AA000C94AA000C94AA0088
:100050000C9481060C94AA000C94AA000C94AA009B
:100060000C94AA000C94AA000C94AA000C94AA0068
:100070000C94AA000C94AA000C94AA000C94AA0058
:100080000C94AA000C94AA000C94AA000C94AA0048
:100090000C94AA000C94AA000C94AA000C94AA0038
:1000A0000C94AA000C94AA000C94AA000C94AA0028
:1000B0000C94AA000C94AA000C94AA000C94AA0018
:1000C0000C94AA000C94AA000C94AA000C94AA0008
:1000D0000C94AA000C94AA000C94AA000C94AA00F8
:1000E0000C94AA00710780079507A907BD07D107DF
:1000F000E507F907C609E209E509EA09F109330A42
:100100009D0B950ABC0ACC0AEB0A240B450A020B8C
:10011000710B280A860B11241FBECFEFD1E2DEBF80
:10012000CDBF12E0A0E0B2E0E2ECFFE100E00BBFE7
:1001300002C007900D92A432B107D9F724E0A4E2DF
:10014000B2E001C01D92AE35B207E1F70E9484080B
:100150000C94DF0F0C94000081E080934903E09140
:100160003502F091360280812091340290E002C085
:10017000959587952A95E2F780FF12C020EC32E131
:1001800080814091340290E002C0959587954A9510
:10019000E2F780FF05C02150310991F780E0089512
:1001A0001092B2008091B2008630E0F3E091350207
:1001B000F091360240E050E080E096E061E070E0CF
:1001C000935F2091B2002917E0F32081A0913402BF
:1001D00030E002C035952795AA95E2F720FF07C0C9
:1001E0009B01042E01C0220F0A94EAF7822B4F5F75
:1001F0005F4F9E3629F79091B2009F37E0F3208140
:100200009091340230E002C0359527959A95E2F737
:1002100020FFC4CF1092490308951092B20090912C
:10022000B2009A30E0F31092B20040913402E091B3
:100230003A02F0913B02908121E030E0B90102C026
:10024000660F771F4A95E2F7AB01492B4083409137
:100250003402E0913C02F0913D02908102C0220FF5
:10026000331F4A95E2F72095309529232083109279
:10027000B2009091B2009A30E0F39AE041E050E091
:10028000E0913C02F0913D02209134026081DA015C
:1002900002C0AA0FBB1F2A95E2F79D0180FF02C092
:1002A000262B03C02095309526232083935F8695C7
:1002B0002091B2002917E0F3923711F72091340210
:1002C000E0913C02F0913D02408181E090E0BC0170
:1002D00002C0660F771F2A95E2F79B01242B20832B
:1002E00030913402E0913A02F0913B02208102C049
:1002F000880F991F3A95E2F7809590958223808325
:10030000089520913702809150039091510338E075
:10031000AC0142279695879540FF04C041E08427B1
:1003200040EA94272695315099F790935103809392
:100330005003209337020895EF92FF920F931F937B
:10034000CF93DF938C01D62F10925103109250035C
:1003500010923902109238027C01C0E00E94AC0079
:10036000F70181937F0180914903882311F0DFEF2A
:1003700039C0CF5FDC13F2CF80914002811108C0F9
:100380000E94AC00D82F80914903882391F02AC0A5
:100390000E94AC0080933802809149038111E7CF1D
:1003A0000E94AC008093390280914903882341F375
:1003B000DECF809140028823A9F0F80181918F015E
:1003C000809337020E948101C150B9F720915003F8
:1003D00030915103809138029091390228173907E2
:1003E00009F0D2EC81E0D03309F080E0DF91CF91C9
:1003F0001F910F91FF90EF900895EF92FF920F934E
:100400001F93CF93DF938C01C62F30913402E0917C
:100410003A02F0913B02208181E090E001C0880F18
:100420003A95EAF7822B8083109251031092500381
:1004300080914002882359F07801D62FF7018191ED
:100440007F01809337020E948101D150B9F7F801F2
:1004500081918F01809337020E940D01C150B9F73D
:1004600080914002882341F0809150030E940D0149
:10047000809151030E940D0130913402E0913A02C3
:10048000F0913B02208181E090E002C0880F991F2B
:100490003A95E2F78095909582238083DF91CF9102
:1004A0001F910F91FF90EF900895CF93DF93CDB7F9
:1004B000DEB76D970FB6F894DEBF0FBECDBF80914B
:1004C000000290910102A09102028B8F9C8FAD8F50
:1004D00081E1E4E0F2E0DE01119601900D928A954F
:1004E000E1F761E1CE0101960E94FD0168E0CE01D5
:1004F00042960E949C018823C9F0FE017296DE019B
:100500005B96CE01459631912D9132130EC0E817BE
:10051000F907C9F78D89809342028E898093410241
:100520008F898093400281E001C080E06D960FB614
:10053000F894DEBF0FBECDBFDF91CF910895CF936A
:10054000C82F0E94AC00C15090914903992319F023
:10055000C111F7CF8FEFCF910895CF93DF9300D0E4
:10056000CDB7DEB78DEF89831A8262E0CE010196A6
:100570000E94FD0181E00E949F02813C21F00E94C7
:100580008D0680E001C081E00F900F90DF91CF9148
:100590000895CF93DF9300D0CDB7DEB719821A82CA
:1005A00081E08093400262E0CE0101960E94FD014D
:1005B0000E948D060F900F90DF91CF910895CF93F9
:1005C000DF9300D000D0CDB7DEB790914E0380917D
:1005D0004A039F3F11F48F3F91F02FEF29831A8236
:1005E0009B838C8364E0CE0101960E94FD0182E032
:1005F0000E949F0291E0803319F090E001C091E0E9
:10060000892F0F900F900F900F90DF91CF91089549
:10061000CF93DF9300D000D0CDB7DEB78EEF8983C4
:100620001A821B8280914F038C83811102C081E06A
:100630008B8364E0CE0101960E94FD0182E00E945E
:100640009F028F3F71F460914F0380913E02909121
:100650003F020E94FD0188E20E949F0291E08033E8
:1006600009F090E0892F0F900F900F900F90DF917D
:10067000CF910895CF93DF9300D0CDB7DEB70E941E
:10068000DF028823E9F080914F038A8380914D0334
:10069000823029F0843029F0813029F402C087E0CB
:1006A00001C083E0898362E0CE0101960E94FD01D2
:1006B00060914F0380913E0290913F020E949C0105
:1006C0000F900F90DF91CF910895CF93DF9300D0DB
:1006D000CDB7DEB70E94DF02882391F084E08983E2
:1006E00080914F038A8362E0CE0101960E94FD0152
:1006F00060914F0380913E0290913F020E949C01C5
:100700000F900F90DF91CF910895CF93DF9300D09A
:10071000CDB7DEB70E94DF02982F8823A9F00E9490
:100720000803982F882381F085E0898381E08A83FC
:1007300062E0CE0101960E94FD0180E00E949F02CE
:1007400091E0803309F090E0892F0F900F90DF91B6
:10075000CF910895CF93DF9300D0CDB7DEB70E943D
:10076000DF02882389F082E0898381E08A8362E066
:10077000CE0101960E94FD0180E00E949F0280331D
:1007800011F481E001C080E00F900F90DF91CF91D4
:100790000895CF93DF9300D0CDB7DEB70E94DF027C
:1007A000982F8823A1F00E940803982F882379F0BE
:1007B00081E089838A8362E0CE0101960E94FD0177
:1007C00082E30E949F0291E0803309F090E0892F3C
:1007D0000F900F90DF91CF910895CF93DF9300D0CA
:1007E000CDB7DEB70E94DF02882381F00E940803A4
:1007F000882361F084E0898381E08A8362E0CE010E
:1008000001960E94FD0184E00E949F020F900F90CC
:10081000DF91CF91089520913402E0913C02F09154
:100820003D02408181E090E0BC0102C0660F771F6D
:100830002A95E2F79B01209530952423208330915F
:100840003402E0913C02F0913D02208101C0880F0A
:100850003A95EAF7822B8083089510924002109215
:10086000410210924202109243020E9443080E94E9
:100870002A0820913402E0913A02F0913B02408133
:1008800081E090E0BC0102C0660F771F2A95E2F775
:100890009B012095309524232083EFE8F1E03197E8
:1008A000F1F700C00000E0913502F091360220819E
:1008B0004091340230E002C0359527954A95E2F721
:1008C000217040913402E0913A02F0913B02308174
:1008D000BC0102C0660F771F4A95E2F7AB01432BBC
:1008E000408340913402E0913C02F0913D0230811E
:1008F00002C0880F991F4A95E2F78095909583234F
:10090000808370E77A95F1F71B9922602B982398E2
:1009100040913402E0913C02F0913D02308181E04F
:1009200090E0BC0102C0660F771F4A95E2F7AB0169
:10093000432B408375E07A95F1F700004091340233
:10094000E0913A02F0913B02308102C0880F991F7A
:100950004A95E2F780959095832380832093420205
:1009600081E0211101C080E0089530913402E091CE
:100970003A02F0913B02208181E090E001C0880FB3
:100980003A95EAF7822B80830E940B04239A0895FC
:100990002B9823980E940B0430913402E0913A0284
:1009A000F0913B02208181E090E002C0880F991F06
:1009B0003A95E2F780959095822380830895CF93AE
:1009C000DF930E94B5042B980E940B042B9A0E947F
:1009D0000B042B982398D8E0C0E0C6950E940B0426
:1009E0001B99C068D150C9F70E94C8048C2FDF91B1
:1009F000CF910895CF93DF93CFEFDFEF0E94DF0415
:100A000080FD04C0209711F02197F8CF81E0CD2B15
:100A100009F480E0DF91CF910895CF93DF93D82F31
:100A20000E94B5042B9A0E940B040E940B04C8E09C
:100A3000D0FF02C02B9A01C02B980E940B04D695C0
:100A4000C150B1F7DF91CF910C94C804CF93DF93DD
:100A50002B982398CFEFDFEF0E940B04219711F022
:100A60001B9BFACF81E0CD2B09F480E0DF91CF9181
:100A70000895CF93109256040E94B5042B980E94BB
:100A80000B040E940B040E940B040E940B040E94A2
:100A900026058823A1F0C8E08091560486958093AE
:100AA00056040E940B041B9B05C08091560480686D
:100AB00080935604C15081F70E94C80481E0CF9111
:100AC00008950E94FA04882349F00E94390588237A
:100AD00029F081E0909156049D3009F080E008955E
:100AE00080E00E940D050E943905809156048850CF
:100AF000823310F010925604809156048093400285
:100B00000895CF93DF93D82F0E94B5042B9A0E94AB
:100B10000B042B980E940B040E940B040E940B04F0
:100B2000C8E0D0FF02C02B9A01C02B980E940B0492
:100B3000D695C150B1F70E942605882361F00E9426
:100B4000C804CFEFDFEF0E94DF0481FF04C02097CD
:100B500011F02197F8CFDF91CF91089580914E0346
:100B60000E94810580914A030E94810580914F0374
:100B70000E9481050C946105CF93C82F84EB0E94DD
:100B80000D058C2F0E948105CF910C9461050E9468
:100B90002D04811102C080E008950E947005882311
:100BA000D1F382E00E940D0582E00E94810584E07D
:100BB0000E94810587EB91E00197F1F700C00000EA
:100BC00081E00E9481059FE725EB81E09150204064
:100BD0008040E1F700C0000082E00E94BC0588234D
:100BE000D1F20E94390580915604809341028FEF23
:100BF0000E940D0580E80E9481058FE99FE0019722
:100C0000F1F700C000008FEE0E940D0582E00E9407
:100C1000810581E00895CF9386E00E94BC05811193
:100C200002C080E01EC00E94AE058823D1F3C091AF
:100C30004F030E94FA048823A1F30E9439058823F8
:100C400081F3E0913E02F0913F02CF010196909333
:100C50003F0280933E02809156048083C15049F741
:100C600081E0CF910895CF9387E00E94BC0588234F
:100C7000C1F00E94AE058823A1F0C0914F03E0911E
:100C80003E02F0913F02CF01019690933F02809384
:100C90003E0280810E948105C15089F7CF910C945A
:100CA000FA0480E0CF910895CF93C0914E03C6958A
:100CB000CF3090F488E00E94BC05882369F08C2F27
:100CC0000E9481050E946105882331F080E00E9426
:100CD0008105CF910C94FA0480E0CF91089583E0D0
:100CE0000E94BC05882359F08EED0E9481058DEA93
:100CF0000E94810585EA0E9481050C94FA0480E037
:100D000008951F920F920FB60F9211240C940000B9
:100D10000F900FBE0F901F901895109241021092E5
:100D200040020895EF92FF920F931F93CF93DF93AA
:100D3000109241021092400280914D03882361F08D
:100D4000853008F09DC0C3E0D0E014E003E0FF244C
:100D5000F39482E0E82E62C00E94C7058FC08091A4
:100D6000C00087FD84C080914D03843009F45BC0CE
:100D70000E947C0E882309F456C000934D03809195
:100D80004002909141028730934909F454C0809108
:100D90004002909141028A30934909F44CC08091FD
:100DA0004002909141028F30934909F444C08091F0
:100DB00040029091410221E08B30944909F020E0FB
:100DC0004091400250914102809141028823A9F153
:100DD00080914102803988F58091400261E030E0E5
:100DE000863009F060E0862F932F382F211128C01C
:100DF000413068EE560720F5992790914D039130C8
:100E000010F52197B9F1811134C02FEF39EF60E06F
:100E1000215030406040E1F700C000008091C100E7
:100E200084FFA1CF9CCF0E945502882309F4A7CF4D
:100E300010934D03A4CF21E0C3CF80E090E0D5CF45
:100E400081E090E0DACF933010F09430D1F6413069
:100E5000584E18F0F0924D03D4CF222319F0E092AF
:100E60004D03CFCF332369F210934D03CACF80E0F7
:100E700001C081E090914D0390934302811105C020
:100E8000109241021092400280E0DF91CF911F91B9
:100E90000F91FF90EF900895909148039817B1F04B
:100EA00090914D03911112C040913402E0913C02A7
:100EB000F0913D02908121E030E002C0220F331F0B
:100EC0004A95E2F72095309529232083482F50E05A
:100ED0004830510508F0A2C0FA01EE58FF4F0C94BB
:100EE000D60F24E230E030933B0220933A0225E211
:100EF00030E030933D0220933C0223E230E037C0E3
:100F00002AE031E030933B0220933A022BE031E0BB
:100F100030933D0220933C0229E031E030933602C9
:100F2000209335021092340279C02AE031E03093E8
:100F30003B0220933A022BE031E030933D022093B4
:100F40003C0229E031E0309336022093350291E0F3
:100F500063C02AE031E030933B0220933A022BE059
:100F600031E030933D0220933C0229E031E03093A0
:100F700036022093350292E04FC02AE031E03093F0
:100F80003B0220933A022BE031E030933D02209364
:100F90003C0229E031E0309336022093350293E0A1
:100FA0003BC02AE031E030933B0220933A022BE031
:100FB00031E030933D0220933C0229E031E0309350
:100FC00036022093350294E027C02AE031E03093C6
:100FD0003B0220933A022BE031E030933D02209314
:100FE0003C0229E031E0309336022093350295E04F
:100FF00013C02AE031E030933B0220933A022BE009
:1010000031E030933D0220933C0229E031E03093FF
:1010100036022093350296E0909334028093480381
:1010200008952A9AEBE0F1E08081816080838081DD
:1010300082608083808184608083808188608083F7
:1010400080818061808380818062808380818064F0
:10105000808308952A98EBE0F1E080818E7F808381
:1010600080818D7F808380818B7F80838081877F5B
:10107000808380818F7E808380818F7D808380814B
:101080008F7B80830895229AEAE0F1E0808181607D
:10109000808380818260808380818460808380817E
:1010A000886080838081806180838081806280838A
:1010B00080818064808308952298EAE0F1E0808155
:1010C0008E7F808380818D7F808380818B7F8083F2
:1010D0008081877F808380818F7E808380818F7DE8
:1010E000808380818F7B8083089580914D03882346
:1010F00051F084E08093B1000E945C080E941108C6
:1011000080E00C944C0708950FB6F894A895809150
:101110006000886180936000109260000FBE0E94A2
:1011200075080E949A0F0E940E09EECF9627092E8D
:101130000294202D2F702927692F6025660F607E6D
:101140002627602D6927607F6695092E000C661F93
:101150009695969596959F7196279827822F089534
:101160002F923F92EF92FF921F93CF93DF93E10173
:101170006EE280E090E00E9496086F810E949608DF
:1011800060914E030E94960860914A030E9496085F
:101190006E810E949608382F292FEC80FD801E81D9
:1011A000F70161917F01832F922F0E949608382FBB
:1011B000292F1150A9F76B810E949608F82EE92E6D
:1011C0008EE20E94AF0F8F810E94AF0F80914E037D
:1011D0000E94AF0F80914A030E94AF0F8E810E9440
:1011E000AF0F1E81EC81FD8180810E94AF0F8C8149
:1011F0009D8101969D838C831150A1F78B810E9464
:10120000AF0F8E2D0E94AF0F8F2DDF91CF911F91C9
:10121000FF90EF903F902F900C94AF0F2F923F9242
:101220004F925F926F927F928F929F92AF92BF92F6
:10123000CF92DF92EF92FF920F931F93CF93DF93A2
:10124000CDB7DEB72C970FB6F894DEBF0FBECDBF7B
:10125000F8944E0129E0820E911C92E5E92E93E06C
:10126000F92E24E4A22E22E0B22E01E010E030E4B8
:10127000432E32E0532E45E1642E42E0742E0E944C
:10128000BA0F8F32E1F71A8619869E828D8241E06D
:101290004F830E94BA0F8887909157049111EFCF26
:1012A0008F3219F40E94BA0F88876FE280E090E0D5
:1012B0000E94960868850E9496086C010E94BA0FE9
:1012C00080934E0390915704992311F081E04AC016
:1012D000682FC6010E9496086C010E94BA0F809385
:1012E0004A03909157049111F1CF682FC6010E94D3
:1012F00096086C010E94BA0F8B839091570491114C
:10130000E5CF682FC6010E9496086C013B8082E5FC
:1013100093E09C878B870E94BA0FEB85FC858193B5
:10132000FC87EB87909157049111D0CF682FC601AD
:101330000E9496086C013A943110EDCF0E94BA0FCA
:101340008A83809157048111C1CF0E94BA0F89838B
:10135000809157048111BACF29813A81C216D306F0
:1013600009F083E08C838111EAC1F0923F02E092A0
:101370003E02E8858E2F90E0FC01F097E131F10507
:1013800008F0DBC1E658FF4F0C94D60F8091400265
:10139000882309F4D4C180914D03833028F481302F
:1013A00040F40E94700507C0833049F0843009F092
:1013B000C6C10E94AD028111C2C18FE0BFC10E94AF
:1013C0000A0EF9CF8CE68987BAC18DE08F837E82C1
:1013D0006D82B5C182E08F8388EC898786E08A8739
:1013E000AEC1AE014F5F5F4F1A010E94B0088091FD
:1013F0004D03811106C00E942D040E945C080E94CA
:101400002A0880E00E944C070E948D065FEF83EC63
:1014100099E0515080409040E1F700C000002C96C8
:101420000FB6F894DEBF0FBECDBFDF91CF911F91F5
:101430000F91FF90EF90DF90CF90BF90AF909F9073
:101440008F907F906F905F904F903F902F90089576
:1014500080915203853010F089E070C180934D0374
:101460000E9475086CC180915203883098F40E94E4
:101470004C0780914D03833028F4813068F40E943A
:101480002D045DC1843041F05AC1809152038830EF
:1014900008F459C088E052C1D0904A030E94C902A2
:1014A000E1E0DE124CC180913402E0913A02F09109
:1014B0003B022081A80102C0440F551F8A95E2F724
:1014C000CA01822B808380913402E0913C02F0912A
:1014D0003D022081A80102C0440F551F8A95E2F702
:1014E000CA0180959095822380835FEF85EA9EE014
:1014F000515080409040E1F700C0000080913402DC
:10150000E0913C02F0913D022081A80102C0440F0D
:10151000551F8A95E2F7CA01822B8083809134029D
:10152000E0913A02F0913B021AC080915203883058
:1015300008F0B0CF0E944C0754E05F835E824D827A
:101540000E94920638CF0E944C0780914D03811172
:10155000F6C080913402E0913C02F0913D0220817E
:10156000A80102C0440F551F8A95E2F7CA01809571
:10157000909582238083E3C080914D03833030F4C3
:10158000813008F0DAC00E946F0615CF833009F071
:10159000B4C00E94450F0FCF90914D03943018F4C2
:1015A000923020F0CAC0943009F0C9C08091520333
:1015B0008987943019F4880F880F01C0880F8093B1
:1015C0004E0310924A03911103C00E945406F3CEB9
:1015D0000E94AA03F0CE8091520380934F03809122
:1015E0004D03833028F4813038F40E940B061BC071
:1015F000833029F08430F9F40E943A0314C00E9429
:101600006E0F11C08091520380934F0380914D0360
:10161000823039F020F0833059F0843061F482E078
:1016200005C00E946503811106C08FE08C8303C052
:101630000E94790FF8CF8C81811181C080914F0376
:101640008F83FE82ED827BC08B8180934F038FE07E
:101650008C8380914D03833018F4813030F039C091
:101660008330E1F18430A9F16AC00E9433068823F7
:1016700009F465C0B0923F02A0923E020E940B06A0
:10168000882309F45CC01C82F0923F02E0923E0283
:10169000B0924C03A0924B0380914F03A0913E0265
:1016A000B0913F02E0914B03F0914C032C9190815B
:1016B000291711F054E05C831196B0933F02A09378
:1016C0003E023196F0934C03E0934B03815031F787
:1016D00036C00E94C903882391F12BC00E94840F59
:1016E000FACF8B8180934F038FE08C8380914D03E1
:1016F000823031F010F1833031F0843001F51DC0BB
:101700000E948503E8CF0E948F0FE5CFC0904D0364
:1017100084E0C81212C08B8180934F038FE0D82ED3
:10172000DC820E94ED03803321F0803C21F4CC82E6
:1017300006C01C8204C0DC8202C082E08C83FE01F1
:1017400031961F010E94B0089ACD90915C049827B1
:1017500090935C0498E021E030E0E0913C02F0914D
:101760003D02409134026081D90102C0AA0FBB1F23
:101770004A95E2F7AD01462B40831092B20080FFFC
:1017800020C04091B2004031E0F340913402E0913A
:101790003C02F0913D026081D90102C0AA0FBB1F3B
:1017A0004A95E2F7AD01409550954623408310924B
:1017B000B2004091B2004031E0F38695915069F655
:1017C00008954091B2004830E0F340913402E09136
:1017D0003C02F0913D026081D90102C0AA0FBB1FFB
:1017E0004A95E2F7AD01409550954623408310920B
:1017F000B2004091B2004830E0F340913402E091F1
:101800003C02F0913D026081D90102C0AA0FBB1FCA
:101810004A95E2F7AD01462B40831092B200409109
:10182000B2004830E0F340913402E0913C02F09184
:101830003D026081D90102C0AA0FBB1F4A95E2F7A1
:10184000AD0140955095462340831092B2004091DF
:10185000B2004830E0F3B1CF30913402E0913A0267
:10186000F0913B02208181E090E001C0880F3A9521
:10187000EAF7822B80838FEF0E94A50B8FEF0E94E7
:10188000A50B8FE70E94A50B10925C048BE10E94D0
:10189000A50B809159048F5F809359040C94A50B7C
:1018A00080915C040E94A50B30913402E0913C02CF
:1018B000F0913D02208181E090E001C0880F3A95CF
:1018C000EAF7822B80831092B2008091B2008830B8
:1018D000E0F330913402E0913A02F0913B02208132
:1018E00081E090E002C0880F991F3A95E2F7809559
:1018F00090958223808308951092B200E091350282
:10190000F091360280812091340290E002C09595DA
:1019100087952A95E2F780FF0AC08091B2008E3742
:1019200088F38FEF08958091B2008E37D0F78081D1
:101930002091340290E002C0959587952A95E2F7B0
:1019400080FFF1CF8091B20080935B0490915D04A1
:10195000981738F11092B200E0913502F0913602FA
:1019600080812091340290E002C0959587952A9558
:10197000E2F780FF09C08091B2008E3788F3D1CFA3
:101980008091B2008E3768F680812091340290E019
:1019900002C0959587952A95E2F780FFF1CF80E008
:1019A000089581E00895FC01108280E090E041E01C
:1019B00050E01092B200A0913502B09136022C9105
:1019C0006091340230E002C0359527956A95E2F7C0
:1019D00020FF0AC02091B2002E3788F380E00895DE
:1019E0002091B2002E37D0F72C916091340230E074
:1019F00002C0359527956A95E2F720FFF1CF309127
:101A0000B20020915D04231730F11092B200A09132
:101A10003502B09136022C916091340230E002C060
:101A2000359527956A95E2F720FF09C02091B2000D
:101A30002E3788F3D3CF2091B2002E3778F62C9131
:101A40006091340230E002C0359527956A95E2F73F
:101A500020FFF1CF09C060819A01082E01C0220F3A
:101A60000A94EAF7262B208301968830910509F025
:101A7000A0CF90915804808189278093580481E0F9
:101A80000895CF93DF9388E180935D0480915A0499
:101A9000853139F0823129F0813031F0C6E4D0E06F
:101AA00005C0C0E6DAEE02C0C1E0D0E00E947C0CC6
:101AB00087FF04C02197D1F780E017C0CAE00E94D9
:101AC0007C0C8F3FC9F3C150D1F780915B04982FF4
:101AD000969586958695890F80935D040E947C0C6F
:101AE0008F3F51F31816D4F381E0DF91CF91089521
:101AF000EF92FF920F931F93CF93DF9300D01F922B
:101B0000CDB7DEB77C011B820E94410D811102C05E
:101B100080E076C010925804CE0103960E94D30C48
:101B20008823B1F38B818B3199F7CE0103960E9404
:101B3000D30C882369F39B81809159049813E8CFD3
:101B4000CE0102960E94D30C882311F38A81823041
:101B5000F8F6CE0101960E94D30C8823C9F2898140
:101B60009A81892BA9F2CE0103960E94D30C882377
:101B700079F28B818E3061F6CE0103960E94D30CF0
:101B8000882331F29B8180915A049813C1CFCE01F2
:101B900003960E94D30C882309F4BACF8B8181115C
:101BA000B7CF00E010E0C701800F911F29813A8173
:101BB000225031090217130740F40E94D30C8823E6
:101BC00009F4A6CF0F5F1F4FEECFCE0103960E9400
:101BD000D30C882309F49CCF80915804811198CFAD
:101BE00030913402E0913C02F0913D02208181E08D
:101BF00090E001C0880F3A95EAF7822B808381E05C
:101C00000F900F900F90DF91CF911F910F91FF9048
:101C1000EF900895CF9381E080935A040E942C0C9A
:101C200080E00E94A50B81E00E94A50B8EE00E943F
:101C3000A50B81E00E94A50B0E94500C84E292E06B
:101C40000E94780DC82F811103C00E948D0601C02B
:101C5000C1E08C2FCF910895FF920F931F93CF93E4
:101C6000DF938C01C62FF42ED22F8DE180935A047E
:101C70000E942C0C80E00E94A50B88E00E94A50B1E
:101C80008EE00E94A50B8DE10E94A50B84E00E94CE
:101C9000A50B84E00E94A50B80E00E94A50B8C2F71
:101CA0000E94A50B8F2D0E94A50B8D2F0E94A50BC6
:101CB00080E00E94A50B0E94500C84E292E00E94FA
:101CC000780D882399F08091240281110EC08091B3
:101CD0002502C81711F0811108C0809126028111D8
:101CE00004C080912702F801808381E0DF91CF91C9
:101CF0001F910F91FF9008950E940A0E882399F07A
:101D000021E040E060E381E492E00E942C0E882311
:101D100051F022E040E060E380E492E00E942C0E6B
:101D200091E0811101C090E0892F089580914E03C8
:101D30008F3F21F480914A038F3F29F186E0809301
:101D40005A040E942C0C80E00E94A50B85E00E94A2
:101D5000A50B8EE00E94A50B86E00E94A50B80E0FB
:101D60000E94A50B80E00E94A50B80914E030E946B
:101D7000A50B80914A030E94A50B0E94500C84E29F
:101D800092E00C94780D81E00895CF93C1E08091AA
:101D90004F038111C0E00E942C0C80E00E94A50B33
:101DA00084E00E94A50B8EE00E94A50B80915A044E
:101DB0000E94A50B8C2F0E94A50B80914F030E94BF
:101DC000A50B80EA0E94A50B0E94500C80913E0258
:101DD00090913F02CF910C94780D0F931F93CF9366
:101DE000DF93C0914F03CC2339F08C2F90E00A96FB
:101DF000182F092FD0E003C01AE001E0D1E00E94C3
:101E00002C0C802F0E94A50B812F0E94A50B8EE029
:101E10000E94A50B80915A040E94A50B8D2F0E9451
:101E2000A50B8C2F0E94A50B80E00E94A50B80E0E3
:101E30000E94A50B80E00E94A50B80E00E94A50BEC
:101E400080E00E94A50B80E00E94A50B80E00E942C
:101E5000A50BE0913E02F0913F0280810E94A50B0C
:101E600080913E0290913F02019690933F028093B1
:101E70003E02C15071F70E94500C84E292E0DF9163
:101E8000CF911F910F910C94780D82E180935A04A9
:101E90000E942C0C80E00E94A50B87E00E94A50BFD
:101EA0008EE00E94A50B82E10E94A50B84E10E94B6
:101EB000A50B80E00E94A50B8CEA0E94A50B88E888
:101EC0000E94A50B83E10E94A50B86E70E94A50B4B
:101ED0000E94500C84E292E00C94780D0E94960EC1
:101EE000882329F084E180935A040C94C50E80E085
:101EF00008950E94960E882329F086E180935A0463
:101F00000C94C50E80E008950E94960E882329F057
:101F100083E180935A040C94ED0E80E008950E94B2
:101F2000960E882329F085E180935A040C94ED0ED7
:101F300080E00895E0ECF0E080818D7F808389E18E
:101F400090E09093C5008093C40086E08093C20027
:101F500088E18093C10085E080938100089590918D
:101F6000C00095FFFCCF8093C6008091C00086FF23
:101F7000FCCF0895109257041092850010928400AF
:101F80008091C00087FD0FC08091840090918500F2
:101F900021E0853C39E0930708F420E020935704C2
:101FA000853C994068F38091C6000895EE0FFF1FAD
:101FB0000024001C0BBE0790F691E02D0994F894C4
:021FC000FFCF51
:101FC2003437310000000000000000000D424C4890
:101FD200656C69F47D6D347741526D313238305F12
:041FE2003136000094
:00000001FF
