:100000000C94BD000C94DE000C94DE000C94DE0019
:100010000C94DE000C94DE000C94DE000C94DE00E8
:100020000C94DE000C94DE000C94DE000C94DE00D8
:100030000C94DE000C94DE000C94DE000C94DE00C8
:100040000C94DE000C94DE000C94DE000C94DE00B8
:100050000C94BD060C94DE000C94DE000C94DE00C3
:100060000C94DE000C94DE000C94DE000C94DE0098
:100070000C94DE000C94DE000C94DE000C94DE0088
:100080000C94DE000C94DE000C94DE000C94DE0078
:100090000C94DE000C94DE000C94DE000C94DE0068
:1000A0000C94DE000C94DE000C94DE000C94DE0058
:1000B0000C94DE000C94DE000C94DE000C94DE0048
:1000C0000C94DE000C94DE000C94DE000C94DE0038
:1000D0000C94DE000C94DE000C94DE000C94DE0028
:1000E0000C94DE00B007BF07D407E807FC07100830
:1000F00024083808070A230A260A2B0A320A740A37
:10010000DE0BD60AFD0A0D0B2C0B650B860A430B82
:10011000B20B690AC70B0C94740A0C94FD0A0C9478
:100120000D0B0C94DE0B0C94860A0C94260A0C948E
:10013000650B0C94D4070C94320A0C942C0B0C9481
:10014000E8070C9410080C94690A0C94230A0C9488
:10015000B20B0C94B0070C94BF070C942B0A0C94B0
:10016000430B0C94070A0C9438080C94FC070C946D
:10017000C70B0C9424080C94D60A11241FBECFEF91
:10018000D1E2DEBFCDBF00E00CBF12E0A0E0B2E0E4
:10019000E0E4F0E200E00BBF02C007900D92A43251
:1001A000B107D9F724E0A4E2B2E001C01D92AE3558
:1001B000B207E1F70E94C3080C941E100C940000D3
:1001C00081E080934903E0913502F091360280810D
:1001D0002091340290E002C0959587952A95E2F728
:1001E00080FF12C020EC32E180814091340290E027
:1001F00002C0959587954A95E2F780FF05C021508A
:10020000310991F780E008951092B2008091B20018
:100210008630E0F3E0913502F091360240E050E0A4
:1002200080E096E061E070E0935F2091B2002917D2
:10023000E0F32081A091340230E002C0359527958B
:10024000AA95E2F720FF07C09B01042E01C0220FF0
:100250000A94EAF7822B4F5F5F4F9E3629F7909101
:10026000B2009F37E0F320819091340230E002C069
:10027000359527959A95E2F720FFC4CF1092490350
:1002800008951092B2009091B2009A30E0F310926B
:10029000B20040913402E0913A02F0913B02908129
:1002A00021E030E0B90102C0660F771F4A95E2F7FE
:1002B000AB01492B408340913402E0913C02F09124
:1002C0003D02908102C0220F331F4A95E2F720952C
:1002D0003095292320831092B2009091B2009A3079
:1002E000E0F39AE041E050E0E0913C02F0913D0201
:1002F000209134026081DA0102C0AA0FBB1F2A9547
:10030000E2F79D0180FF02C0262B03C020953095A7
:1003100026232083935F86952091B2002917E0F36E
:10032000923711F720913402E0913C02F0913D02A6
:10033000408181E090E0BC0102C0660F771F2A95E2
:10034000E2F79B01242B208330913402E0913A02A2
:10035000F0913B02208102C0880F991F3A95E2F785
:100360008095909582238083089520913702809113
:1003700050039091510338E0AC0142279695879540
:1003800040FF04C041E0842740EA9427269531507D
:1003900099F7909351038093500320933702089567
:1003A000EF92FF920F931F93CF93DF938C01D62F81
:1003B0001092510310925003109239021092380299
:1003C0007C01C0E00E94E000F70181937F018091F1
:1003D0004903882311F0DFEF39C0CF5FDC13F2CF80
:1003E00080914002811108C00E94E000D82F8091C6
:1003F0004903882391F02AC00E94E00080933802CC
:10040000809149038111E7CF0E94E0008093390277
:1004100080914903882341F3DECF809140028823F5
:10042000A9F0F80181918F01809337020E94B501F4
:10043000C150B9F720915003309151038091380297
:10044000909139022817390709F0D2EC81E0D033B6
:1004500009F080E0DF91CF911F910F91FF90EF9015
:100460000895EF92FF920F931F93CF93DF938C0128
:10047000C62F30913402E0913A02F0913B02208184
:1004800081E090E001C0880F3A95EAF7822B8083E3
:10049000109251031092500380914002882359F02A
:1004A0007801D62FF70181917F01809337020E9456
:1004B000B501D150B9F7F80181918F0180933702CE
:1004C0000E944101C150B9F780914002882341F058
:1004D000809150030E944101809151030E9441018B
:1004E00030913402E0913A02F0913B02208181E0A8
:1004F00090E002C0880F991F3A95E2F78095909599
:1005000082238083DF91CF911F910F91FF90EF9015
:100510000895CF93DF93CDB7DEB76D970FB6F894FC
:10052000DEBF0FBECDBF8091000290910102A0916D
:1005300002028B8F9C8FAD8F81E1E4E0F2E0DE015F
:10054000119601900D928A95E1F761E1CE01019635
:100550000E94310268E0CE0142960E94D0018823B9
:10056000C9F0FE017296DE015B96CE01459631918F
:100570002D9132130EC0E817F907C9F78D898093C2
:1005800042028E89809341028F898093400281E0EC
:1005900001C080E06D960FB6F894DEBF0FBECDBFF0
:1005A000DF91CF910895CF93C82F0E94E000C150F2
:1005B00090914903992319F0C111F7CF8FEFCF9193
:1005C0000895CF93DF931F921F92CDB7DEB78DEFC3
:1005D00089831A8262E0CE0101960E94310281E095
:1005E0000E94D302813C21F00E94C90680E001C034
:1005F00081E00F900F90DF91CF910895CF93DF931B
:100600001F921F92CDB7DEB719821A8281E08093C4
:10061000400262E0CE0101960E9431020E94C906AA
:100620000F900F90DF91CF910895CF93DF9300D07B
:100630001F92CDB7DEB790914E0380914A039F3F42
:1006400011F48F3F91F02FEF29831A829B838C83C3
:1006500064E0CE0101960E94310282E00E94D30242
:1006600091E0803319F090E001C091E0892F0F9064
:100670000F900F900F90DF91CF910895CF93DF935C
:1006800000D01F92CDB7DEB78EEF89831A821B820E
:1006900080914F038C83811102C081E08B8364E0E1
:1006A000CE0101960E94310282E00E94D3028F3F68
:1006B00071F460914F0380913E0290913F020E943D
:1006C000310288E20E94D30291E0803309F090E089
:1006D000892F0F900F900F900F90DF91CF91089579
:1006E000CF93DF931F921F92CDB7DEB70E94150301
:1006F0008823E9F080914F038A8380914D038230F3
:1007000029F0843029F0813029F402C087E001C04B
:1007100083E0898362E0CE0101960E9431026091FC
:100720004F0380913E0290913F020E94D0010F90B2
:100730000F90DF91CF910895CF93DF931F921F9277
:10074000CDB7DEB70E941503882391F084E089833A
:1007500080914F038A8362E0CE0101960E943102AC
:1007600060914F0380913E0290913F020E94D00120
:100770000F900F90DF91CF910895CF93DF931F9249
:100780001F92CDB7DEB70E941503982F8823A9F0DA
:100790000E943E03982F882381F085E0898381E0C1
:1007A0008A8362E0CE0101960E94310280E00E94BD
:1007B000D30291E0803309F090E0892F0F900F90E1
:1007C000DF91CF910895CF93DF931F921F92CDB702
:1007D000DEB70E941503882389F082E0898381E0D7
:1007E0008A8362E0CE0101960E94310280E00E947D
:1007F000D302803311F481E001C080E00F900F90AC
:10080000DF91CF910895CF93DF931F921F92CDB7C1
:10081000DEB70E941503982F8823A1F00E943E03A3
:10082000982F882379F081E089838A8362E0CE0162
:1008300001960E94310282E30E94D30291E080334C
:1008400009F090E0892F0F900F90DF91CF910895DC
:10085000CF93DF931F921F92CDB7DEB70E9415038F
:10086000882381F00E943E03882361F084E089831D
:1008700081E08A8362E0CE0101960E94310284E029
:100880000E94D3020F900F90DF91CF910895209195
:100890003402E0913C02F0913D02408181E090E021
:1008A000BC0102C0660F771F2A95E2F79B012095D5
:1008B00030952423208330913402E0913C02F09162
:1008C0003D02208101C0880F3A95EAF7822B808390
:1008D000089510924002109241021092420210922A
:1008E00043020E9482080E94690820913402E0912C
:1008F0003A02F0913B02408181E090E0BC0102C0ED
:10090000660F771F2A95E2F79B01209530952423E7
:100910002083EFE8F1E03197F1F700C00000E091AB
:100920003502F091360220814091340230E002C05D
:10093000359527954A95E2F7217040913402E09170
:100940003A02F0913B023081BC0102C0660F771F72
:100950004A95E2F7AB01432B408340913402E0918A
:100960003C02F0913D02308102C0880F991F4A95E8
:10097000E2F7809590958323808370E77A95F1F76D
:100980001B9922602B98239840913402E0913C02FD
:10099000F0913D02308181E090E0BC0102C0660F21
:1009A000771F4A95E2F7AB01432B408375E07A95B8
:1009B000F1F7000040913402E0913A02F0913B02DD
:1009C000308102C0880F991F4A95E2F78095909573
:1009D000832380832093420281E0211101C080E0C3
:1009E000089530913402E0913A02F0913B02208167
:1009F00081E090E001C0880F3A95EAF7822B80836E
:100A00000E944704239A08952B9823980E94470434
:100A100030913402E0913A02F0913B02208181E072
:100A200090E002C0880F991F3A95E2F78095909563
:100A3000822380830895CF93DF930E94F1042B9843
:100A40000E9447042B9A0E9447042B982398D8E0D1
:100A5000C0E0C6950E9447041B99C068D150C9F7F1
:100A60000E9404058C2FDF91CF910895CF93DF93DF
:100A7000CFEFDFEF0E941B0580FD04C0209711F02F
:100A80002197F8CF81E0CD2B09F480E0DF91CF9161
:100A90000895CF93DF93D82F0E94F1042B9A0E94E0
:100AA00047040E944704C8E0D0FF02C02B9A01C04F
:100AB0002B980E944704D695C150B1F7DF91CF9192
:100AC0000C940405CF93DF932B982398CFEFDFEF9F
:100AD0000E944704219711F01B9BFACF81E0CD2B98
:100AE00009F480E0DF91CF910895CF9310925604DE
:100AF0000E94F1042B980E9447040E9447040E9420
:100B000047040E9447040E9462058823A1F0C8E0C0
:100B1000809156048695809356040E9447041B9B3F
:100B200005C080915604806880935604C15081F7B7
:100B30000E94040581E0CF9108950E943605882324
:100B400049F00E947505882329F081E090915604B0
:100B50009D3009F080E0089580E00E9449050E94E0
:100B60007505809156048850823310F01092560417
:100B700080915604809340020895CF93DF93D82F3D
:100B80000E94F1042B9A0E9447042B980E9447046C
:100B90000E9447040E944704C8E0D0FF02C02B9A7D
:100BA00001C02B980E944704D695C150B1F70E940E
:100BB0006205882361F00E940405CFEFDFEF0E94F9
:100BC0001B0581FF04C0209711F02197F8CFDF911A
:100BD000CF91089580914E030E94BD0580914A03F4
:100BE0000E94BD0580914F030E94BD050C949D0598
:100BF000CF93C82F84EB0E9449058C2F0E94BD051E
:100C0000CF910C949D050E946904811102C080E07F
:100C100008950E94AC058823D1F382E00E94490523
:100C200082E00E94BD0584E00E94BD0587EB91E053
:100C30000197F1F700C0000081E00E94BD059FE729
:100C400025EB81E0915020408040E1F700C000009A
:100C500082E00E94F8058823D1F20E9475058091F8
:100C60005604809341028FEF0E94490580E80E945C
:100C7000BD058FE99FE00197F1F700C000008FEEFE
:100C80000E94490582E00E94BD0581E00895CF934E
:100C900086E00E94F805811102C080E01EC00E941B
:100CA000EA058823D1F3C0914F030E9436058823BB
:100CB000A1F30E947505882381F3E0913E02F09133
:100CC0003F02CF01019690933F0280933E028091B4
:100CD00056048083C15049F781E0CF910895CF93A6
:100CE00087E00E94F8058823C1F00E94EA05882366
:100CF000A1F0C0914F03E0913E02F0913F02CF017D
:100D0000019690933F0280933E0280810E94BD0530
:100D1000C15089F7CF910C94360580E0CF910895AA
:100D2000CF93C0914E03C695CF3090F488E00E94D7
:100D3000F805882369F08C2F0E94BD050E949D054F
:100D4000882331F080E00E94BD05CF910C943605D8
:100D500080E0CF91089583E00E94F805882359F040
:100D60008EED0E94BD058DEA0E94BD0585EA0E94B8
:100D7000BD050C94360580E008951F920F920FB6C2
:100D80000F9211240C9400000F900FBE0F901F9033
:100D9000189510924102109240020895EF92FF922E
:100DA0000F931F93CF93DF93109241021092400252
:100DB00080914D03882361F0853008F09DC0C3E029
:100DC000D0E014E003E0FF24F39482E0E82E62C058
:100DD0000E9403068FC08091C00087FD84C080916F
:100DE0004D03843009F45BC00E94BC0E882309F4D3
:100DF00056C000934D03809140029091410287308C
:100E0000934909F454C080914002909141028A3084
:100E1000934909F44CC080914002909141028F3077
:100E2000934909F444C0809140029091410221E02D
:100E30008B30944909F020E04091400250914102EA
:100E4000809141028823A9F180914102803988F57F
:100E50008091400261E030E0863009F060E0862F4A
:100E6000932F382F211128C0413068EE560720F506
:100E7000992790914D03913010F52197B9F1811187
:100E800034C02FEF39EF60E0215030406040E1F78F
:100E900000C000008091C10084FFA1CF9CCF0E94C0
:100EA0008902882309F4A7CF10934D03A4CF21E032
:100EB000C3CF80E090E0D5CF81E090E0DACF9330EF
:100EC00010F09430D1F64130584E18F0F0924D03A6
:100ED000D4CF222319F0E0924D03CFCF332369F210
:100EE00010934D03CACF80E001C081E090914D0383
:100EF00090934302811105C010924102109240026A
:100F000080E0DF91CF911F910F91FF90EF900895B6
:100F1000282F809148038217B1F080914D038111F1
:100F200012C040913402E0913C02F0913D023081C8
:100F300081E090E002C0880F991F4A95E2F7809502
:100F4000909583238083822F90E08830910508F06C
:100F5000A4C0FC018827EE58FF4F8F4F0C94161049
:100F600084E290E090933B0280933A0285E290E025
:100F700090933D0280933C0283E290E037C08AE088
:100F800091E090933B0280933A028BE091E0909342
:100F90003D0280933C0289E091E090933602809379
:100FA00035021092340279C08AE091E090933B02BE
:100FB00080933A028BE091E090933D0280933C0253
:100FC00089E091E0909336028093350281E063C01E
:100FD0008AE091E090933B0280933A028BE091E0AB
:100FE00090933D0280933C0289E091E09093360219
:100FF0008093350282E04FC08AE091E090933B02FB
:1010000080933A028BE091E090933D0280933C0202
:1010100089E091E0909336028093350283E03BC0F3
:101020008AE091E090933B0280933A028BE091E05A
:1010300090933D0280933C0289E091E090933602C8
:101040008093350284E027C08AE091E090933B02D0
:1010500080933A028BE091E090933D0280933C02B2
:1010600089E091E0909336028093350285E013C0C9
:101070008AE091E090933B0280933A028BE091E00A
:1010800090933D0280933C0289E091E09093360278
:101090008093350286E080933402209348030895BC
:1010A0002A9AEBE0F1E08081816080838081826018
:1010B0008083808184608083808188608083808158
:1010C000806180838081806280838081806480836E
:1010D00008952A98EBE0F1E080818E7F8083808103
:1010E0008D7F808380818B7F80838081877F8083D9
:1010F00080818F7E808380818F7D808380818F7BC4
:1011000080830895229AEAE0F1E080818160808303
:101110008081826080838081846080838081886018
:1011200080838081806180838081806280838081F0
:101130008064808308952298EAE0F1E080818E7FC8
:10114000808380818D7F808380818B7F808380817D
:10115000877F808380818F7E808380818F7D808365
:1011600080818F7B8083089580914D03882351F087
:1011700084E08093B1000E949B080E94500880E0A8
:101180000C94880708950FB6F894A8958091600094
:10119000886180936000109260000FBE0E94B408C6
:1011A0000E94DA0F0E944D09EECF9627092E029475
:1011B000202D2F702927692F6025660F607E262736
:1011C000602D6927607F6695092E000C661F969535
:1011D000969596959F7196279827822F08952F921E
:1011E0003F92EF92FF921F93CF93DF93E1016EE264
:1011F00080E090E00E94D5086F810E94D508609140
:101200004E030E94D50860914A030E94D5086E8162
:101210000E94D508382F292FEC80FD801E81F70110
:1012200061917F01832F922F0E94D508382F292F9B
:101230001150A9F76B810E94D508F82EE92E8EE295
:101240000E94EF0F8F810E94EF0F80914E030E944A
:10125000EF0F80914A030E94EF0F8E810E94EF0FE3
:101260001E81EC81FD8180810E94EF0F8C819D8128
:1012700001969D838C831150A1F78B810E94EF0F03
:101280008E2D0E94EF0F8F2DDF91CF911F91FF9038
:10129000EF903F902F900C94EF0F2F923F924F9230
:1012A0005F926F927F928F929F92AF92BF92CF92F6
:1012B000DF92EF92FF920F931F93CF93DF93CDB7FF
:1012C000DEB72C970FB6F894DEBF0FBECDBFF894F3
:1012D0004E0129E0820E911C92E5E92E93E0F92E51
:1012E00024E4A22E22E0B22E01E010E030E4432EEE
:1012F00032E0532E45E1642E42E0742E0E94FA0F34
:101300008F32E1F71A8619869E828D8241E04F83E3
:101310000E94FA0F8887909157049111EFCF8F3276
:1013200019F40E94FA0F88876FE280E090E00E9433
:10133000D50868850E94D5086C010E94FA0F809339
:101340004E0390915704992311F081E04AC0682F11
:10135000C6010E94D5086C010E94FA0F80934A03CF
:10136000909157049111F1CF682FC6010E94D508C2
:101370006C010E94FA0F8B83909157049111E5CF75
:10138000682FC6010E94D5086C013B8082E593E07E
:101390009C878B870E94FA0FEB85FC858193FC87E5
:1013A000EB87909157049111D0CF682FC6010E940E
:1013B000D5086C013A943110EDCF0E94FA0F8A8360
:1013C000809157048111C1CF0E94FA0F89838091C7
:1013D00057048111BACF29813A81C216D30609F088
:1013E00083E08C838111ECC1F0923F02E0923E02D7
:1013F000E8858E2F90E0FC01F097E131F10508F0CF
:10140000DDC18827E658FF4F8F4F0C94161080914E
:101410004002882309F4D4C180914D03833028F41D
:10142000813040F40E94AC0507C0833049F084301D
:1014300009F0C6C10E94E1028111C2C18FE0BFC1A3
:101440000E944A0EF9CF8CE68987BAC18DE08F835E
:101450007E826D82B5C182E08F8388EC898786E0C9
:101460008A87AEC1AE014F5F5F4F1A010E94EF083D
:1014700080914D03811106C00E9469040E949B085F
:101480000E94690880E00E9488070E94C9065FEFF9
:1014900083EC99E0515080409040E1F700C000009B
:1014A0002C960FB6F894DEBF0FBECDBFDF91CF9163
:1014B0001F910F91FF90EF90DF90CF90BF90AF9072
:1014C0009F908F907F906F905F904F903F902F9064
:1014D000089580915203853010F089E070C18093A7
:1014E0004D030E94B4086CC180915203883098F477
:1014F0000E94880780914D03833028F4813068F47E
:101500000E9469045DC1843041F05AC18091520348
:10151000883008F459C088E052C1D0904A030E9434
:10152000FE02E1E0DE124CC180913402E0913A0209
:10153000F0913B022081A80102C0440F551F8A95FB
:10154000E2F7CA01822B808380913402E0913C0251
:10155000F0913D022081A80102C0440F551F8A95D9
:10156000E2F7CA0180959095822380835FEF85EA38
:101570009EE0515080409040E1F700C00000809113
:101580003402E0913C02F0913D022081A80102C0AA
:10159000440F551F8A95E2F7CA01822B8083809100
:1015A0003402E0913A02F0913B021AC0809152035A
:1015B000883008F0B0CF0E94880754E05F835E82D5
:1015C0004D820E94CE0638CF0E94880780914D033D
:1015D0008111F6C080913402E0913C02F0913D020D
:1015E0002081A80102C0440F551F8A95E2F7CA0165
:1015F0008095909582238083E3C080914D03833052
:1016000030F4813008F0DAC00E94AB0615CF833089
:1016100009F0B4C00E94850F0FCF90914D03943014
:1016200018F4923020F0CAC0943009F0C9C08091FB
:1016300052038987943019F4880F880F01C0880FEE
:1016400080934E0310924A03911103C00E949006AA
:10165000F3CE0E94E303F0CE8091520380934F03B8
:1016600080914D03833028F4813038F40E9447067E
:101670001BC0833029F08430F9F40E94700314C039
:101680000E94AE0F11C08091520380934F0380914E
:101690004D03823039F020F0833059F0843061F40A
:1016A00082E005C00E949C03811106C08FE08C83FC
:1016B00003C00E94B90FF8CF8C81811181C0809145
:1016C0004F038F83FE82ED827BC08B8180934F031B
:1016D0008FE08C8380914D03833018F4813030F09B
:1016E00039C08330E1F18430A9F16AC00E946F06ED
:1016F000882309F465C0B0923F02A0923E020E9486
:101700004706882309F45CC01C82F0923F02E092F5
:101710003E02B0924C03A0924B0380914F03A091E4
:101720003E02B0913F02E0914B03F0914C032C91AB
:101730009081291711F054E05C831196B0933F0219
:10174000A0933E023196F0934C03E0934B038150FB
:1017500031F736C00E940304882391F12BC00E9408
:10176000C40FFACF8B8180934F038FE08C838091DD
:101770004D03823031F010F1833031F0843001F5C7
:101780001DC00E94BD03E8CF0E94CF0FE5CFC090DF
:101790004D0384E0C81212C08B8180934F038FE009
:1017A000D82EDC820E942804803321F0803C21F472
:1017B000CC8206C01C8204C0DC8202C082E08C8322
:1017C000FE0131961F010E94EF0898CD90915C04B4
:1017D000982790935C0498E021E030E0E0913C028F
:1017E000F0913D02409134026081D90102C0AA0FFC
:1017F000BB1F4A95E2F7AD01462B40831092B20021
:1018000080FF20C04091B2004031E0F340913402AB
:10181000E0913C02F0913D026081D90102C0AA0F23
:10182000BB1F4A95E2F7AD01409550954623408392
:101830001092B2004091B2004031E0F38695915091
:1018400069F608954091B2004830E0F340913402C7
:10185000E0913C02F0913D026081D90102C0AA0FE3
:10186000BB1F4A95E2F7AD01409550954623408352
:101870001092B2004091B2004830E0F3409134023F
:10188000E0913C02F0913D026081D90102C0AA0FB3
:10189000BB1F4A95E2F7AD01462B40831092B20080
:1018A0004091B2004830E0F340913402E0913C02B4
:1018B000F0913D026081D90102C0AA0FBB1F4A9579
:1018C000E2F7AD0140955095462340831092B20057
:1018D0004091B2004830E0F3B1CF30913402E09152
:1018E0003A02F0913B02208181E090E001C0880F34
:1018F0003A95EAF7822B80838FEF0E94E60B8FEFF9
:101900000E94E60B8FE70E94E60B10925C048BE1CD
:101910000E94E60B809159048F5F809359040C94C8
:10192000E60B80915C040E94E60B30913402E0915A
:101930003C02F0913D02208181E090E001C0880FDF
:101940003A95EAF7822B80831092B2008091B20020
:101950008830E0F330913402E0913A02F0913B029A
:10196000208181E090E002C0880F991F3A95E2F74C
:10197000809590958223808308951092B200E09123
:101980003502F091360280812091340290E002C04D
:10199000959587952A95E2F780FF0AC08091B2005D
:1019A0008E3788F38FEF08958091B2008E37D0F78D
:1019B00080812091340290E002C0959587952A9508
:1019C000E2F780FFF1CF8091B20080935B049091A9
:1019D0005D04981738F11092B200E0913502F09151
:1019E000360280812091340290E002C0959587955F
:1019F0002A95E2F780FF09C08091B2008E3788F304
:101A0000D1CF8091B2008E3768F680812091340268
:101A100090E002C0959587952A95E2F780FFF1CF77
:101A200080E0089581E00895FC01108280E090E05C
:101A300041E050E01092B200A0913502B091360220
:101A40002C916091340230E002C0359527956A955B
:101A5000E2F720FF0AC02091B2002E3788F380E021
:101A600008952091B2002E37D0F72C916091340266
:101A700030E002C0359527956A95E2F720FFF1CF57
:101A80003091B20020915D04231730F11092B20022
:101A9000A0913502B09136022C916091340230E071
:101AA00002C0359527956A95E2F720FF09C020917D
:101AB000B2002E3788F3D3CF2091B2002E3778F6BC
:101AC0002C916091340230E002C0359527956A95DB
:101AD000E2F720FFF1CF09C060819A01082E01C012
:101AE000220F0A94EAF7262B20830196883091056D
:101AF00009F0A0CF909158048081892780935804E1
:101B000081E00895CF93DF9388E180935D04809115
:101B10005A04853139F0823129F0813031F0C6E440
:101B2000D0E005C0C0E6DAEE02C0C1E0D0E00E941D
:101B3000BD0C87FF04C02197D1F780E017C0CAE031
:101B40000E94BD0C8F3FC9F3C150D1F780915B0457
:101B5000982F969586958695890F80935D040E94AF
:101B6000BD0C8F3F51F31816D4F381E0DF91CF9174
:101B70000895EF92FF920F931F93CF93DF9300D0BE
:101B8000CDB7DEB77C011B820E94820D811102C09D
:101B900080E076C010925804CE0103960E94140D86
:101BA0008823B1F38B818B3199F7CE0103960E9484
:101BB000140D882369F39B81809159049813E8CF11
:101BC000CE0102960E94140D882311F38A8182307F
:101BD000F8F6CE0101960E94140D8823C9F289817E
:101BE0009A81892BA9F2CE0103960E94140D8823B5
:101BF00079F28B818E3061F6CE0103960E94140D2E
:101C0000882331F29B8180915A049813C1CFCE0171
:101C100003960E94140D882309F4BACF8B81811199
:101C2000B7CF00E010E0C701800F911F29813A81F2
:101C3000225031090217130740F40E94140D882323
:101C400009F4A6CF0F5F1F4FEECFCE0103960E947F
:101C5000140D882309F49CCF80915804811198CFEA
:101C600030913402E0913C02F0913D02208181E00C
:101C700090E001C0880F3A95EAF7822B808381E0DB
:101C80000F900F900F90DF91CF911F910F91FF90C8
:101C9000EF900895CF9381E080935A040E946D0CD9
:101CA00080E00E94E60B81E00E94E60B8EE00E943D
:101CB000E60B81E00E94E60B0E94910C84E292E028
:101CC0000E94B90DC82F811103C00E94C90601C02E
:101CD000C1E08C2FCF910895FF920F931F93CF9364
:101CE000DF938C01C62FF42ED22F8DE180935A04FE
:101CF0000E946D0C80E00E94E60B88E00E94E60BDB
:101D00008EE00E94E60B8DE10E94E60B84E00E94CB
:101D1000E60B84E00E94E60B80E00E94E60B8C2F2D
:101D20000E94E60B8F2D0E94E60B8D2F0E94E60B82
:101D300080E00E94E60B0E94910C84E292E00E94F7
:101D4000B90D882399F08091240281110EC08091F1
:101D50002502C81711F0811108C080912602811157
:101D600004C080912702F801808381E0DF91CF9148
:101D70001F910F91FF9008950E944A0E882399F0B9
:101D800021E040E060E381E492E00E946C0E882351
:101D900051F022E040E060E380E492E00E946C0EAB
:101DA00091E0811101C090E0892F089580914E0348
:101DB0008F3F21F480914A038F3F29F186E0809381
:101DC0005A040E946D0C80E00E94E60B85E00E94A0
:101DD000E60B8EE00E94E60B86E00E94E60B80E0B8
:101DE0000E94E60B80E00E94E60B80914E030E9469
:101DF000E60B80914A030E94E60B0E94910C84E25C
:101E000092E00C94B90D81E00895CF93C1E08091E8
:101E10004F038111C0E00E946D0C80E00E94E60B30
:101E200084E00E94E60B8EE00E94E60B80915A044B
:101E30000E94E60B8C2F0E94E60B80914F030E94BC
:101E4000E60B80EA0E94E60B0E94910C80913E0214
:101E500090913F02CF910C94B90D0F931F93CF93A4
:101E6000DF93C0914F03CC2339F08C2F90E00A967A
:101E7000182F092FD0E003C01AE001E0D1E00E9442
:101E80006D0C802F0E94E60B812F0E94E60B8EE0E6
:101E90000E94E60B80915A040E94E60B8D2F0E944F
:101EA000E60B8C2F0E94E60B80E00E94E60B80E0A0
:101EB0000E94E60B80E00E94E60B80E00E94E60BA9
:101EC00080E00E94E60B80E00E94E60B80E00E942A
:101ED000E60BE0913E02F0913F0280810E94E60B0A
:101EE00080913E0290913F02019690933F02809331
:101EF0003E02C15071F70E94910C84E292E0DF91A2
:101F0000CF911F910F910C94B90D82E180935A04E7
:101F10000E946D0C80E00E94E60B87E00E94E60BB9
:101F20008EE00E94E60B82E10E94E60B84E10E94B3
:101F3000E60B80E00E94E60B8CEA0E94E60B88E844
:101F40000E94E60B83E10E94E60B86E70E94E60B07
:101F50000E94910C84E292E00C94B90D0E94D60E7E
:101F6000882329F084E180935A040C94050F80E0C3
:101F700008950E94D60E882329F086E180935A04A2
:101F80000C94050F80E008950E94D60E882329F056
:101F900083E180935A040C942D0F80E008950E94F1
:101FA000D60E882329F085E180935A040C942D0FD6
:101FB00080E00895E0ECF0E080818D7F808389E10E
:101FC00090E09093C5008093C40086E08093C200A7
:101FD00088E18093C10085E080938100089590910D
:101FE000C00095FFFCCF8093C6008091C00086FFA3
:101FF000FCCF08951092570410928500109284002F
:102000008091C00087FD0FC0809184009091850071
:1020100021E0853C39E0930708F420E02093570441
:10202000853C994068F38091C6000895EE0FFF1F2C
:10203000881F8BBF0790F691E02D1994F894FFCF7D
:102040003437310000000000000000000D424C4811
:10205000656C69F47D6D347741526D323536305F91
:042060003136000015
:00000001FF
