:100000000C94A5000C94C6000C94C6000C94C60079
:100010000C94C6000C94C6000C94C6000C94C60048
:100020000C94C6000C94C6000C94C6000C94C60038
:100030000C94C6000C94C6000C94C6000C94C60028
:100040000C94C6000C94C6000C94C6000C94C60018
:100050000C9464050C94C6000C94C6000C94C60065
:100060000C94C6000C94C6000C94C6000C94C600F8
:100070000C94C6000C94C6000C94C6000C94C600E8
:100080000C94C6000C94C6000C94C6000C94C600D8
:100090000C94C6000C94C6000C94C6000C94C600C8
:1000A0000C94C6000C94C6000C94C6000C94C600B8
:1000B0000C94C6000C94C6000C94C6000C94C600A8
:1000C0000C94C6000C94C6000C94C6000C94C60098
:1000D0000C94C6000C94C6000C94C6000C94C60088
:1000E0000C94C6007707930796079D07A307E307BD
:1000F000DD08F207FE070E082D086608F807440819
:10010000B108D707C6080C94C6080C940E080C94C6
:1001100066080C9496070C94DD080C94A3070C94C5
:10012000E3070C9477070C94D7070C942D080C94D4
:10013000F8070C9444080C94F2070C94B1080C9442
:100140009D070C94FE070C94930711241FBECFEF5C
:10015000D1E2DEBFCDBF00E00CBF12E0A0E0B2E014
:10016000EEE6F8E100E00BBF02C007900D92A2326C
:10017000B107D9F724E0A2E2B2E001C01D92A43594
:10018000B207E1F70E9439060C94350C0C9400007C
:1001900081E080933F031B9B08C083ED95E41B9B8C
:1001A00004C00197E1F780E008951092B2008091B9
:1001B000B2008630E0F320E030E080E096E041E0FD
:1001C00050E0935F6091B2006917E0F31B9B07C09A
:1001D000BA01022E01C0660F0A94EAF7862B2F5F40
:1001E0003F4F9E3671F79091B2009F37E0F31B9B13
:1001F000DACF10923F0308951092B2009091B200AE
:100200009A30E0F31092B200239A2B981092B20029
:100210009091B2009A30E0F39AE080FF02C02B9AEE
:1002200001C02B98935F86952091B2002917E0F3C7
:10023000923799F72B9A2398089520913202809152
:1002400046039091470338E0AC0142279695879585
:1002500040FF04C041E0842740EA942726953150AE
:1002600099F79093470380934603209332020895B1
:10027000EF92FF920F931F93CF93DF938C01D62FB2
:1002800010924703109246031092340210923302E8
:100290007C01C0E00E94C800F70181937F0180913A
:1002A0003F03882311F0DFEF39C0CF5FDC13F2CFBB
:1002B00080913702811108C00E94C800D82F809118
:1002C0003F03882391F02AC00E94C8008093330224
:1002D00080913F038111E7CF0E94C80080933402D0
:1002E00080913F03882341F3DECF8091370288233A
:1002F000A9F0F80181918F01809332020E941D01C3
:10030000C150B9F7209146033091470380913302E1
:10031000909134022817390709F0D2EC81E0D033EC
:1003200009F080E0DF91CF911F910F91FF90EF9046
:100330000895EF92FF920F931F93CF93DF938C0159
:10034000C62F239A109247031092460380913702DA
:10035000882359F07801D62FF70181917F0180938E
:1003600032020E941D01D150B9F7F80181918F012D
:10037000809332020E94FC00C150B9F7809137028D
:10038000882341F0809146030E94FC00809147033E
:100390000E94FC002398DF91CF911F910F91FF9055
:1003A000EF900895CF93DF93CDB7DEB76D970FB67B
:1003B000F894DEBF0FBECDBF809100029091010284
:1003C000A09102028B8F9C8FAD8F81E1E4E0F2E07F
:1003D000DE01119601900D928A95E1F761E1CE015F
:1003E00001960E94990168E0CE0142960E94380170
:1003F0008823C9F0FE017296DE015B96CE01459618
:1004000031912D9132130EC0E817F907C9F78D8984
:10041000809339028E89809338028F8980933702C6
:1004200081E001C080E06D960FB6F894DEBF0FBE8C
:10043000CDBFDF91CF910895CF93C82F0E94C80000
:10044000C15090913F03992319F0C111F7CF8FEF5D
:10045000CF910895CF93DF931F921F92CDB7DEB750
:100460008DEF89831A8262E0CE0101960E94990184
:1004700081E00E941C02813C21F00E947A0580E00C
:1004800001C081E00F900F90DF91CF910895CF933D
:10049000DF931F921F92CDB7DEB719821A8281E0D7
:1004A0008093370262E0CE0101960E9499010E947A
:1004B0007A050F900F90DF91CF910895CF93DF933E
:1004C00000D01F92CDB7DEB79091440380914003D6
:1004D0009F3F11F48F3F91F02FEF29831A829B8366
:1004E0008C8364E0CE0101960E94990182E00E9413
:1004F0001C0291E0803319F090E001C091E0892F57
:100500000F900F900F900F90DF91CF910895CF93A0
:10051000DF9300D01F92CDB7DEB78EEF89831A82AA
:100520001B82809145038C83811102C081E08B8303
:1005300064E0CE0101960E94990182E00E941C02B3
:100540008F3F71F46091450380913502909136029E
:100550000E94990188E20E941C0291E0803309F018
:1005600090E0892F0F900F900F900F90DF91CF9117
:100570000895CF93DF931F921F92CDB7DEB70E94ED
:100580005E028823E9F0809145038A8380914303CA
:10059000823029F0843029F0813029F402C087E0CC
:1005A00001C083E0898362E0CE0101960E94990137
:1005B0006091450380913502909136020E94380186
:1005C0000F900F90DF91CF910895CF93DF931F92FB
:1005D0001F92CDB7DEB70E945E02882391F084E0BF
:1005E0008983809145038A8362E0CE0101960E944F
:1005F00099016091450380913502909136020E94E5
:1006000038010F900F90DF91CF910895CF93DF9332
:100610001F921F92CDB7DEB70E945E02982F8823EB
:10062000A9F00E948702982F882381F085E08983B2
:1006300081E08A8362E0CE0101960E94990180E008
:100640000E941C0291E0803309F090E0892F0F9006
:100650000F90DF91CF910895CF93DF931F921F9258
:10066000CDB7DEB70E945E02882389F082E08983DD
:1006700081E08A8362E0CE0101960E94990180E0C8
:100680000E941C02803311F481E001C080E00F90D1
:100690000F90DF91CF910895CF93DF931F921F9218
:1006A000CDB7DEB70E945E02982F8823A1F00E948A
:1006B0008702982F882379F081E089838A8362E01A
:1006C000CE0101960E94990182E30E941C0291E0F2
:1006D000803309F090E0892F0F900F90DF91CF9138
:1006E0000895CF93DF931F921F92CDB7DEB70E947C
:1006F0005E02882381F00E948702882361F084E0F3
:10070000898381E08A8362E0CE0101960E9499018B
:1007100084E00E941C020F900F90DF91CF9108950A
:100720002B98000000002B9A089510923702109227
:1007300038021092390210923A0293B193FB992732
:1007400090F9239A2B9880E88A95F1F71C9992608A
:100750002C9824982B9A8AE08A95F1F700C0239868
:100760009093390281E0911101C080E00895239AAD
:100770000E949003249A08952C9824980E94900334
:1007800023980895CF93DF930E94B7032C980E947B
:1007900090032C9A0E9490032C982498D8E0C0E0F3
:1007A000C6950E9490031C99C068D150C9F70E9459
:1007B000BC038C2FDF91CF910895CF93DF93CFEFC0
:1007C000DFEF0E94C20380FD04C0209711F0219743
:1007D000F8CF81E0CD2B09F480E0DF91CF9108952F
:1007E000CF93DF93D82F0E94B7032C9A0E949003D7
:1007F0000E949003C8E0D0FF02C02C9A01C02C9840
:100800000E949003D695C150B1F7DF91CF910C941F
:10081000BC03CF93DF932C982498CFEFDFEF0E9497
:100820009003219711F01C9BFACF81E0CD2B09F4A6
:1008300080E0DF91CF910895CF9310924C040E94F5
:10084000B7032C980E9490030E9490030E9490038B
:100850000E9490030E9409048823A1F0C8E08091BF
:100860004C04869580934C040E9490031C9B05C009
:1008700080914C04806880934C04C15081F70E94A1
:10088000BC0381E0CF9108950E94DD03882349F0E5
:100890000E941C04882329F081E090914C049D3033
:1008A00009F080E0089580E00E94F0030E941C049B
:1008B00080914C048850823310F010924C04809147
:1008C0004C04809337020895CF93DF93D82F0E9472
:1008D000B7032C9A0E9490032C980E9490030E94C8
:1008E00090030E949003C8E0D0FF02C02C9A01C080
:1008F0002C980E949003D695C150B1F70E9409042C
:10090000882361F00E94BC03CFEFDFEF0E94C20397
:1009100081FF04C0209711F02197F8CFDF91CF918C
:100920000895809144030E946404809140030E94D2
:100930006404809145030E9464040C944404CF93A2
:10094000C82F84EB0E94F0038C2F0E946404CF9187
:100950000C9444040E949503811102C080E0089524
:100960000E9453048823D1F382E00E94F00382E0C6
:100970000E94640484E00E94640487EB91E0019784
:10098000F1F700C0000081E00E9464049FE725EBBE
:1009900081E0915020408040E1F700C0000082E0FB
:1009A0000E949F048823D1F20E941C0480914C0471
:1009B000809338028FEF0E94F00380E80E94640465
:1009C0008FE99FE00197F1F700C000008FEE0E94D1
:1009D000F00382E00E94640481E00895CF9386E0F2
:1009E0000E949F04811102C080E01EC00E949104F9
:1009F0008823D1F3C09145030E94DD038823A1F32E
:100A00000E941C04882381F3E0913502F0913602A4
:100A1000CF010196909336028093350280914C0469
:100A20008083C15049F781E0CF910895CF9387E04B
:100A30000E949F048823C1F00E9491048823A1F0A2
:100A4000C0914503E0913502F0913602CF01019645
:100A5000909336028093350280810E946404C150D5
:100A600089F7CF910C94DD0380E0CF910895CF9367
:100A7000C0914403C695CF3090F488E00E949F0453
:100A8000882369F08C2F0E9464040E944404882308
:100A900031F080E00E946404CF910C94DD0380E08B
:100AA000CF91089583E00E949F04882359F08EED32
:100AB0000E9464048DEA0E94640485EA0E94640432
:100AC0000C94DD0380E008951F920F920FB60F92F1
:100AD00011240C9400000F900FBE0F901F901895DA
:100AE00080914303882329F084E08093B100239808
:100AF0002B9A089510923802109237020895EF92BF
:100B0000FF920F931F93CF93DF93109238021092AE
:100B1000370280914303882361F0853008F09DC03F
:100B2000C8E3D0E014E003E0FF24F39482E0E82E71
:100B300062C00E94AA048FC08091C00087FD84C05B
:100B400080914303843009F45BC00E94D30A882358
:100B500009F456C000934303809137029091380204
:100B60008730934909F454C080913702909138023C
:100B70008A30934909F44CC0809137029091380231
:100B80008F30934909F444C0809137029091380224
:100B900021E08B30944909F020E0409137025091D8
:100BA0003802809138028823A9F180913802803977
:100BB00088F58091370261E030E0863009F060E02E
:100BC000862F932F382F211128C0413068EE560709
:100BD00020F5992790914303913010F52197B9F1B1
:100BE000811134C02FEF34E36CE02150304060407D
:100BF000E1F700C000008091C10084FFA1CF9CCF2D
:100C00000E94D201882309F4A7CF10934303A4CFF5
:100C100021E0C3CF80E090E0D5CF81E090E0DACF53
:100C2000933010F09430D1F64130584E18F0F092D5
:100C30004303D4CF222319F0E0924303CFCF3323D1
:100C400069F210934303CACF80E001C081E0909124
:100C5000430390933A02811105C01092380210921A
:100C6000370280E0DF91CF911F910F91FF90EF90BD
:100C700008950FB6F894A8958091600088618093DC
:100C80006000109260000FBE0E9470050E94F10B80
:100C90000E94C306EECF9627092E0294202D2F70B6
:100CA0002927692F6025660F607E2627602D69271A
:100CB000607F6695092E000C661F96959695969511
:100CC0009F7196279827822F08952F923F92EF9237
:100CD000FF921F93CF93DF93E1016EE280E090E0FB
:100CE0000E944B066F810E944B06609144030E9454
:100CF0004B06609140030E944B066E810E944B069A
:100D0000382F292FEC80FD801E81F70161917F0132
:100D1000832F922F0E944B06382F292F1150A9F7AD
:100D20006B810E944B06F82EE92E8EE20E94060C83
:100D30008F810E94060C809144030E94060C8091D2
:100D400040030E94060C8E810E94060C1E81EC81DD
:100D5000FD8180810E94060C8C819D8101969D837E
:100D60008C831150A1F78B810E94060C8E2D0E945E
:100D7000060C8F2DDF91CF911F91FF90EF903F9048
:100D80002F900C94060C2F923F924F925F926F928D
:100D90007F928F929F92AF92BF92CF92DF92EF920B
:100DA000FF920F931F93CF93DF93CDB7DEB72A97B0
:100DB0000FB6F894DEBF0FBECDBFF8942E0129E028
:100DC000420E511C08E413E022E0B22E3BE3C32E96
:100DD00032E0D32E44E0A42E57E3652E52E0752E68
:100DE0000E94110C8F32E1F71A8619865E824D82BD
:100DF00081E08F830E94110C888790914D0491119E
:100E0000EFCF8F3219F40E94110C88876FE280E0D7
:100E100090E00E944B0668850E944B067C010E9470
:100E2000110C8093440390914D04992311F081E0BB
:100E300048C0682FC7010E944B067C010E94110C1C
:100E40008093400390914D049111F1CF682FC70119
:100E50000E944B067C010E94110C8B8390914D04E3
:100E60009111E5CF682FC7010E944B067C013B80A2
:100E700098E4892E93E0992E0E94110CF40181933D
:100E80004F0190914D049111D2CF682FC7010E945C
:100E90004B067C013A943110EFCF0E94110C8A83EB
:100EA00080914D048111C3CF0E94110C89838091E0
:100EB0004D048111BCCF29813A81E216F30609F075
:100EC00083E08C8381117AC110933602009335023E
:100ED000E8858E2F90E0FC01F097E131F10508F0F4
:100EE0006CC18827EE58FF4F8F4F0C942D0C8091CA
:100EF0003702882309F462C180914303833028F4C8
:100F0000813040F40E94530407C0833049F084309C
:100F100009F054C10E942A02811150C18FE04CC0D7
:100F20000E94610AF9CF8CE6898748C18CE08F83E3
:100F300085E192E09E838D8341C1BF8288EC8987E1
:100F400086E08A873BC1FE0131961F010E9465063B
:100F500080914303882329F0853028F423982B9A25
:100F600002C00E9495030E947A05FFEF23EC89E0FE
:100F7000F15020408040E1F700C000002A960FB6F3
:100F8000F894DEBF0FBECDBFDF91CF911F910F91BF
:100F9000FF90EF90DF90CF90BF90AF909F908F9099
:100FA0007F906F905F904F903F902F900895809129
:100FB0004803853018F089E08C8300C18093430397
:100FC0000E947005FBC080914303833028F4813078
:100FD00030F40E949503F2C0843009F0EFC00E9403
:100FE0004702ECC0AF827E826D820E947F0594CF63
:100FF000809143038111E2C02B98E0C080914303AC
:10100000833030F4813008F0D8C00E94520584CF7C
:10101000833009F0B2C00E949C0B7ECF90914303B5
:10102000943018F4923020F0C8C0943009F0C6C053
:10103000809148038987943019F4880F880F01C084
:10104000880F8093440310924003911103C00E94C3
:10105000370562CF0E942C035FCF809148038093B5
:10106000450380914303833028F4813038F40E9493
:10107000EE041BC0833029F08430F9F40E94B902D9
:1010800014C00E94C50B11C0809148038093450392
:1010900080914303823039F020F0833059F084305E
:1010A00061F4BC820AC00E94E502811106C08FE093
:1010B0008C8303C00E94D00BF8CF8C8181117EC03D
:1010C000809145038F831E830D8378C08B8180932D
:1010D00045038FE08C8380914303833018F4813083
:1010E00030F037C08330D1F1843099F167C00E946D
:1010F0001605882309F462C0D0923602C0923502E8
:101100000E94EE04882309F459C01C821093360211
:1011100000933502D0924203C0924103809145036F
:10112000A0913502B0913602E0914103F091420363
:101130002C9190812913AC821196B0933602A09322
:1011400035023196F0934203E0934103815041F719
:1011500035C00E944C03882389F12BC00E94DB0B11
:10116000FACF8B81809345038FE08C83809143037A
:10117000823031F010F1833031F08430F9F41DC049
:101180000E940603E8CF0E94E60BE5CFE090430300
:1011900094E0E91212C08B81809345038FE0F82E12
:1011A000FC820E947103803321F0803C21F4EC82A8
:1011B00005C01C8203C0FC8201C0BC82FE013196C6
:1011C0001F010E9465060CCE9091520498279093BF
:1011D000520498E02B9A1092B20080FF0FC0209129
:1011E000B2002031E0F32B981092B2002091B200AF
:1011F0002031E0F38695915069F708952091B2006F
:101200002830E0F32B981092B2002091B2002830E1
:10121000E0F32B9A1092B2002091B2002830E0F354
:101220002B981092B2002091B2002830E0F3E2CF68
:10123000239A8FEF0E94E4088FEF0E94E4088FE763
:101240000E94E408109252048BE10E94E40880910D
:101250004F048F5F80934F040C94E40880915204F4
:101260000E94E4082B9A1092B2008091B20088305C
:10127000E0F3239808951092B2001B9B0AC080915E
:10128000B2008E37D0F38FEF08958091B2008E3781
:10129000D0F71B9BFACF8091B200809351049091BC
:1012A0005304981788F01092B2001B9B09C08091DC
:1012B000B2008E37D0F3E7CF8091B2008E3718F7A7
:1012C0001B9BFACF80E0089581E00895FC01108215
:1012D00080E090E041E050E01092B2001B9B0AC019
:1012E0002091B2002E37D0F380E008952091B20013
:1012F0002E37D0F71B9BFACF3091B20020915304C8
:10130000231780F01092B2001B9B09C02091B200FD
:101310002E37D0F3E9CF2091B2002E3728F71B9B50
:10132000FACF09C060819A01082E01C0220F0A94E9
:10133000EAF7262B208301968830910569F6909173
:101340004E048081892780934E0481E00895CF93D5
:10135000DF9388E18093530480915004853139F004
:10136000823129F0813031F0C6E4D0E005C0C0E61A
:10137000DAEE02C0C1E0D0E00E943B0987FF04C062
:101380002197D1F780E017C0CAE00E943B098F3F48
:10139000C9F3C150D1F780915104982F9695869545
:1013A0008695890F809353040E943B098F3F51F328
:1013B0001816D4F381E0DF91CF910895EF92FF9258
:1013C0000F931F93CF93DF9300D0CDB7DEB77C018F
:1013D0001B820E94A709811102C080E068C01092A0
:1013E0004E04CE0103960E9466098823B1F38B81D7
:1013F0008B3199F7CE0103960E946609882369F321
:101400009B8180914F049813E8CFCE0102960E94F1
:101410006609882311F38A818230F8F6CE0101969D
:101420000E9466098823C9F289819A81892BA9F2D1
:10143000CE0103960E946609882379F28B818E3053
:1014400061F6CE0103960E946609882331F29B81E2
:10145000809150049813C1CFCE0103960E94660973
:10146000882309F4BACF8B818111B7CF00E010E057
:10147000C701800F911F29813A812250310902173B
:10148000130740F40E946609882309F4A6CF0F5F72
:101490001F4FEECFCE0103960E946609882309F400
:1014A0009CCF80914E04811198CF2B9A81E00F90B0
:1014B0000F900F90DF91CF911F910F91FF90EF90C0
:1014C0000895CF9381E0809350040E94180980E032
:1014D0000E94E40881E00E94E4088EE00E94E40893
:1014E00081E00E94E4080E942E0982E292E00E94BC
:1014F000DE09C82F811103C00E947A0501C0C1E036
:101500008C2FCF910895FF920F931F93CF93DF936A
:101510008C01C62FF42ED22F8DE1809350040E94AF
:10152000180980E00E94E40888E00E94E4088EE048
:101530000E94E4088DE10E94E40884E00E94E4082F
:1015400084E00E94E40880E00E94E4088C2F0E945E
:10155000E4088F2D0E94E4088D2F0E94E40880E0AB
:101560000E94E4080E942E0982E292E00E94DE09B5
:10157000882399F08091220281110EC0809123026C
:10158000C81711F0811108C080912402811104C094
:1015900080912502F801808381E0DF91CF911F9136
:1015A0000F91FF9008950E94610A882399F021E02D
:1015B00040E060E388E392E00E94830A882351F0D0
:1015C00022E040E060E387E392E00E94830A91E03A
:1015D000811101C090E0892F0895809144038F3FCD
:1015E00021F4809140038F3F29F186E080935004DD
:1015F0000E94180980E00E94E40885E00E94E40847
:101600008EE00E94E40886E00E94E40880E00E94E8
:10161000E40880E00E94E408809144030E94E4080A
:10162000809140030E94E4080E942E0982E292E029
:101630000C94DE0981E00895CF93C1E080914503C9
:101640008111C0E00E94180980E00E94E40884E053
:101650000E94E4088EE00E94E408809150040E94F9
:10166000E4088C2F0E94E408809145030E94E4085E
:1016700080EA0E94E4080E942E0980913502909130
:101680003602CF910C94DE090F931F93CF93DF9313
:10169000C0914503CC2339F08C2F90E00A96182F87
:1016A000092FD0E003C01AE001E0D1E00E94180940
:1016B000802F0E94E408812F0E94E4088EE00E949F
:1016C000E408809150040E94E4088D2F0E94E408F1
:1016D0008C2F0E94E40880E00E94E40880E00E94D1
:1016E000E40880E00E94E40880E00E94E40880E0D2
:1016F0000E94E40880E00E94E40880E00E94E40880
:10170000E0913502F091360280810E94E4088091D8
:1017100035029091360201969093360280933502FD
:10172000C15071F70E942E0982E292E0DF91CF91C1
:101730001F910F910C94DE0982E1809350040E9466
:10174000180980E00E94E40887E00E94E4088EE027
:101750000E94E40882E10E94E40884E10E94E40817
:1017600080E00E94E4088CEA0E94E40888E80E9475
:10177000E40883E10E94E40886E70E94E4080E94EE
:101780002E0982E292E00C94DE090E94ED0A882381
:1017900029F084E1809350040C941C0B80E00895A0
:1017A0000E94ED0A882329F086E1809350040C946E
:1017B0001C0B80E008950E94ED0A882329F083E144
:1017C000809350040C94440B80E008950E94ED0A2D
:1017D000882329F085E1809350040C94440B80E029
:1017E0000895E0ECF0E080818D7F808389E190E0D6
:1017F0009093C5008093C40086E08093C20088E186
:101800008093C10085E08093810008959091C0008D
:1018100095FFFCCF8093C6008091C00086FFFCCF6F
:10182000089510924D0410928500109284008091CA
:10183000C00087FD0FC0809184009091850021E059
:10184000853C39E0930708F420E020934D04853C63
:10185000994068F38091C6000895EE0FFF1F881F1E
:0E1860008BBF0790F691E02D1994F894FFCFFE
:10186E003437310000000000000000000D424C48EB
:10187E00656C69F47D347741526D323536305F31A7
:02188E00360022
:00000001FF
