:100000000C9483000C94A2000C94A2000C94A20007
:100010000C94A2000C94A2000C94A2000C94A200D8
:100020000C94A2000C94A2000C94A2000C94A200C8
:100030000C94A2000C94A2000C94A2000C94A200B8
:100040000C94A2000C94A2000C94A2000C94A200A8
:100050000C9438050C94A2000C94A2000C94A200FD
:100060000C94A2000C94A2000C94A2000C94A20088
:100070000C94A2000C94A2000C94A2000C94A20078
:100080000C94A2000C94A2000C94A2000C94A20068
:100090000C94A2000C94A2000C94A2000C94A20058
:1000A0000C94A2000C94A2000C94A2000C94A20048
:1000B0000C94A2000C94A2000C94A2000C94A20038
:1000C0000C94A2000C94A2000C94A2000C94A20028
:1000D0000C94A2000C94A2000C94A2000C94A20018
:1000E0000C94A2004907650768076F077507B507F5
:1000F000AF08C407D007E007FF073808CA0716088B
:100100008308A907980811241FBECFEFD1E2DEBFF4
:10011000CDBF12E0A0E0B2E0E6E1F8E100E00BBF05
:1001200002C007900D92A232B107D9F724E0A2E2F3
:10013000B2E001C01D92A435B207E1F70E940D069E
:100140000C94090C0C94000081E080933F031A9BEF
:1001500008C083ED95E41A9B04C00197E1F780E0A5
:1001600008951092B2008091B2008630E0F320E052
:1001700030E080E096E041E050E0935F6091B200B3
:100180006917E0F31A9B07C0BA01022E01C0660F7F
:100190000A94EAF7862B2F5F3F4F9E3671F79091B6
:1001A000B2009F37E0F31A9BDACF10923F03089515
:1001B0001092B2009091B2009A30E0F31092B20027
:1001C000229A2A981092B2009091B2009A30E0F3ED
:1001D0009AE080FF02C02A9A01C02A98935F869510
:1001E0002091B2002917E0F3923799F72A9A2298C2
:1001F000089520913202809146039091470338E0A0
:10020000AC0142279695879540FF04C041E08427C2
:1002100040EA94272695315099F7909347038093AD
:100220004603209332020895EF92FF920F931F939B
:10023000CF93DF938C01D62F109247031092460381
:1002400010923402109233027C01C0E00E94A4009C
:10025000F70181937F0180913F03882311F0DFEF45
:1002600039C0CF5FDC13F2CF80913702811108C013
:100270000E94A400D82F80913F03882391F02AC0C8
:100280000E94A4008093330280913F038111E7CF45
:100290000E94A4008093340280913F03882341F39D
:1002A000DECF809137028823A9F0F80181918F0178
:1002B000809332020E94F900C150B9F720914603A1
:1002C0003091470380913302909134022817390707
:1002D00009F0D2EC81E0D03309F080E0DF91CF91DA
:1002E0001F910F91FF90EF900895EF92FF920F935F
:1002F0001F93CF93DF938C01C62F229A109247034E
:100300001092460380913702882359F07801D62F46
:10031000F70181917F01809332020E94F900D15050
:10032000B9F7F80181918F01809332020E94D800C1
:10033000C150B9F780913702882341F0809146037C
:100340000E94D800809147030E94D8002298DF9134
:10035000CF911F910F91FF90EF900895CF93DF936E
:10036000CDB7DEB76D970FB6F894DEBF0FBECDBF29
:100370008091000290910102A09102028B8F9C8FCC
:10038000AD8F81E1E4E0F2E0DE01119601900D9283
:100390008A95E1F761E1CE0101960E94750168E05E
:1003A000CE0142960E9414018823C9F0FE01729684
:1003B000DE015B96CE01459631912D9132130EC030
:1003C000E817F907C9F78D89809339028E898093E0
:1003D00038028F898093370281E001C080E06D96FA
:1003E0000FB6F894DEBF0FBECDBFDF91CF91089559
:1003F000CF93C82F0E94A400C15090913F0399232E
:1004000019F0C111F7CF8FEFCF910895CF93DF93FC
:1004100000D0CDB7DEB78DEF89831A8262E0CE01BE
:1004200001960E94750181E00E94F801813C21F053
:100430000E944E0580E001C081E00F900F90DF9197
:10044000CF910895CF93DF9300D0CDB7DEB7198257
:100450001A8281E08093370262E0CE0101960E9409
:1004600075010E944E050F900F90DF91CF91089576
:10047000CF93DF9300D000D0CDB7DEB79091440387
:10048000809140039F3F11F48F3F91F02FEF29831C
:100490001A829B838C8364E0CE0101960E947501D1
:1004A00082E00E94F80191E0803319F090E001C0F1
:1004B00091E0892F0F900F900F900F90DF91CF91C7
:1004C0000895CF93DF9300D000D0CDB7DEB78EEF85
:1004D00089831A821B82809145038C83811102C01B
:1004E00081E08B8364E0CE0101960E94750182E079
:1004F0000E94F8018F3F71F46091450380913502AD
:10050000909136020E94750188E20E94F80191E004
:10051000803309F090E0892F0F900F900F900F908B
:10052000DF91CF910895CF93DF9300D0CDB7DEB7A1
:100530000E9438028823E9F0809145038A838091E4
:100540004303823029F0843029F0813029F402C03D
:1005500087E001C083E0898362E0CE0101960E94BA
:1005600075016091450380913502909136020E9499
:1005700014010F900F90DF91CF910895CF93DF93E7
:1005800000D0CDB7DEB70E943802882391F084E016
:100590008983809145038A8362E0CE0101960E949F
:1005A00075016091450380913502909136020E9459
:1005B00014010F900F90DF91CF910895CF93DF93A7
:1005C00000D0CDB7DEB70E943802982F8823A9F05B
:1005D0000E946102982F882381F085E0898381E061
:1005E0008A8362E0CE0101960E94750180E00E943C
:1005F000F80191E0803309F090E0892F0F900F907F
:10060000DF91CF910895CF93DF9300D0CDB7DEB7C0
:100610000E943802882389F082E0898381E08A83FE
:1006200062E0CE0101960E94750180E00E94F8010F
:10063000803311F481E001C080E00F900F90DF91D2
:10064000CF910895CF93DF9300D0CDB7DEB70E944E
:100650003802982F8823A1F00E946102982F8823E6
:1006600079F081E089838A8362E0CE0101960E945D
:10067000750182E30E94F80191E0803309F090E077
:10068000892F0F900F90DF91CF910895CF93DF9333
:1006900000D0CDB7DEB70E943802882381F00E94D7
:1006A0006102882361F084E0898381E08A8362E0CB
:1006B000CE0101960E94750184E00E94F8010F901E
:1006C0000F90DF91CF9108952A98000000002A9A98
:1006D0000895109237021092380210923902109247
:1006E0003A0293B192FB992790F9229A2A9880E8CE
:1006F0008A95F1F71B9992602B9823982A9A8AE0A1
:100700008A95F1F700C022989093390281E0911107
:1007100001C080E00895229A0E946403239A0895FC
:100720002B9823980E94640322980895CF93DF9317
:100730000E948B032B980E9464032B9A0E946403EF
:100740002B982398D8E0C0E0C6950E9464031B99BB
:10075000C068D150C9F70E9490038C2FDF91CF91D0
:100760000895CF93DF93CFEFDFEF0E94960380FDD4
:1007700004C0209711F02197F8CF81E0CD2B09F428
:1007800080E0DF91CF910895CF93DF93D82F0E941F
:100790008B032B9A0E9464030E946403C8E0D0FF7D
:1007A00002C02B9A01C02B980E946403D695C150B9
:1007B000B1F7DF91CF910C949003CF93DF932B98F7
:1007C0002398CFEFDFEF0E946403219711F01B9B6A
:1007D000FACF81E0CD2B09F480E0DF91CF9108952D
:1007E000CF9310924C040E948B032B980E946403B9
:1007F0000E9464030E9464030E9464030E94DD035C
:100800008823A1F0C8E080914C04869580934C0425
:100810000E9464031B9B05C080914C0480688093F8
:100820004C04C15081F70E94900381E0CF9108955C
:100830000E94B103882349F00E94F003882329F025
:1008400081E090914C049D3009F080E0089580E0B3
:100850000E94C4030E94F00380914C0488508233AC
:1008600010F010924C0480914C048093370208954C
:10087000CF93DF93D82F0E948B032B9A0E9464039F
:100880002B980E9464030E9464030E946403C8E0E2
:10089000D0FF02C02B9A01C02B980E946403D6950A
:1008A000C150B1F70E94DD03882361F00E949003DC
:1008B000CFEFDFEF0E94960381FF04C0209711F075
:1008C0002197F8CFDF91CF910895809144030E9442
:1008D0003804809140030E943804809145030E94AF
:1008E00038040C941804CF93C82F84EB0E94C403DF
:1008F0008C2F0E943804CF910C9418040E94690335
:10090000811102C080E008950E9427048823D1F35A
:1009100082E00E94C40382E00E94380484E00E94C6
:10092000380487EB91E00197F1F700C0000081E007
:100930000E9438049FE725EB81E0915020408040E1
:10094000E1F700C0000082E00E9473048823D1F226
:100950000E94F00380914C04809338028FEF0E9434
:10096000C40380E80E9438048FE99FE00197F1F703
:1009700000C000008FEE0E94C40382E00E94380491
:1009800081E00895CF9386E00E947304811102C034
:1009900080E01EC00E9465048823D1F3C091450306
:1009A0000E94B1038823A1F30E94F003882381F3FE
:1009B000E0913502F0913602CF0101969093360214
:1009C0008093350280914C048083C15049F781E0C7
:1009D000CF910895CF9387E00E9473048823C1F0DC
:1009E0000E9465048823A1F0C0914503E09135027F
:1009F000F0913602CF010196909336028093350232
:100A000080810E943804C15089F7CF910C94B103C2
:100A100080E0CF910895CF93C0914403C695CF3025
:100A200090F488E00E947304882369F08C2F0E9460
:100A300038040E941804882331F080E00E943804B2
:100A4000CF910C94B10380E0CF91089583E00E9490
:100A50007304882359F08EED0E9438048DEA0E94B9
:100A6000380485EA0E9438040C94B10380E00895AC
:100A70001F920F920FB60F9211240C9400000F904A
:100A80000FBE0F901F90189580914303882329F083
:100A900084E08093B10022982A9A08951092380237
:100AA000109237020895EF92FF920F931F93CF9306
:100AB000DF9310923802109237028091430388230B
:100AC00061F0853008F09DC0C8E3D0E014E003E099
:100AD000FF24F39482E0E82E62C00E947E048FC05F
:100AE0008091C00087FD84C080914303843009F465
:100AF0005BC00E94A60A882309F456C000934303F2
:100B000080913702909138028730934909F454C09C
:100B100080913702909138028A30934909F44CC091
:100B200080913702909138028F30934909F444C084
:100B3000809137029091380221E08B30944909F07E
:100B400020E040913702509138028091380288238A
:100B5000A9F180913802803988F58091370261E0EF
:100B600030E0863009F060E0862F932F382F211176
:100B700028C0413068EE560720F59927909143032D
:100B8000913010F52197B9F1811134C02FEF34E382
:100B90006CE0215030406040E1F700C000008091DF
:100BA000C10084FFA1CF9CCF0E94AE01882309F42D
:100BB000A7CF10934303A4CF21E0C3CF80E090E000
:100BC000D5CF81E090E0DACF933010F09430D1F6B9
:100BD0004130584E18F0F0924303D4CF222319F03D
:100BE000E0924303CFCF332369F210934303CACF7C
:100BF00080E001C081E09091430390933A0281111B
:100C000005C0109238021092370280E0DF91CF9138
:100C10001F910F91FF90EF9008950FB6F894A8954B
:100C200080916000886180936000109260000FBE28
:100C30000E9444050E94C40B0E949706EECF96279F
:100C4000092E0294202D2F702927692F6025660F09
:100C5000607E2627602D6927607F6695092E000C2F
:100C6000661F9695969596959F7196279827822F41
:100C700008952F923F92EF92FF921F93CF93DF93AD
:100C8000E1016EE280E090E00E941F066F810E9409
:100C90001F06609144030E941F06609140030E945A
:100CA0001F066E810E941F06382F292FEC80FD80C1
:100CB0001E81F70161917F01832F922F0E941F06F1
:100CC000382F292F1150A9F76B810E941F06F82E8B
:100CD000E92E8EE20E94D90B8F810E94D90B809160
:100CE00044030E94D90B809140030E94D90B8E814E
:100CF0000E94D90B1E81EC81FD8180810E94D90B5D
:100D00008C819D8101969D838C831150A1F78B81ED
:100D10000E94D90B8E2D0E94D90B8F2DDF91CF9180
:100D20001F91FF90EF903F902F900C94D90B2F9232
:100D30003F924F925F926F927F928F929F92AF926B
:100D4000BF92CF92DF92EF92FF920F931F93CF93B8
:100D5000DF93CDB7DEB72A970FB6F894DEBF0FBE8C
:100D6000CDBFF8942E0129E0420E511C08E413E097
:100D700022E0B22E3BE3C32E32E0D32E44E0A42E79
:100D800057E3652E52E0752E0E94E40B8F32E1F797
:100D90001A8619865E824D8281E08F830E94E40B61
:100DA000888790914D049111EFCF8F3219F40E94F2
:100DB000E40B88876FE280E090E00E941F06688560
:100DC0000E941F067C010E94E40B809344039091D3
:100DD0004D04992311F081E048C0682FC7010E949B
:100DE0001F067C010E94E40B8093400390914D0408
:100DF0009111F1CF682FC7010E941F067C010E944C
:100E0000E40B8B8390914D049111E5CF682FC701BE
:100E10000E941F067C013B8098E4892E93E0992E66
:100E20000E94E40BF40181934F0190914D049111C4
:100E3000D2CF682FC7010E941F067C013A9431105F
:100E4000EFCF0E94E40B8A8380914D048111C3CFC0
:100E50000E94E40B898380914D048111BCCF2981CC
:100E60003A81E216F30609F083E08C83811178C1A0
:100E70001093360200933502E8858E2F90E0FC0136
:100E8000F097E131F10508F06AC1EE58FF4F0C947C
:100E9000000C80913702882309F462C180914303DA
:100EA000833028F4813040F40E94270407C0833047
:100EB00049F0843009F054C10E940602811150C1EA
:100EC0008FE04CC00E94340AF9CF8CE6898748C174
:100ED0008CE08F8385E192E09E838D8341C1BF8248
:100EE00088EC898786E08A873BC1FE0131961F0125
:100EF0000E94390680914303882329F0853028F425
:100F000022982A9A02C00E9469030E944E05FFEFB0
:100F100023EC89E0F15020408040E1F700C0000060
:100F20002A960FB6F894DEBF0FBECDBFDF91CF91EA
:100F30001F910F91FF90EF90DF90CF90BF90AF90F7
:100F40009F908F907F906F905F904F903F902F90E9
:100F5000089580914803853018F089E08C8300C1A2
:100F6000809343030E944405FBC080914303833078
:100F700028F4813030F40E946903F2C0843009F013
:100F8000EFC00E942202ECC0AF827E826D820E947E
:100F9000530594CF809143038111E2C02A98E0C0A9
:100FA00080914303833030F4813008F0D8C00E9430
:100FB000260584CF833009F0B2C00E946F0B7ECF2C
:100FC00090914303943018F4923020F0C8C09430CC
:100FD00009F0C6C0809148038987943019F4880FBE
:100FE000880F01C0880F8093440310924003911131
:100FF00003C00E940B0562CF0E9403035FCF809164
:1010000048038093450380914303833028F4813063
:1010100038F40E94C2041BC0833029F08430F9F4F4
:101020000E94930214C00E94980B11C08091480343
:101030008093450380914303823039F020F0833060
:1010400059F0843061F4BC820AC00E94BE02811152
:1010500006C08FE08C8303C00E94A30BF8CF8C8165
:1010600081117EC0809145038F831E830D8378C0DC
:101070008B81809345038FE08C8380914303833081
:1010800018F4813030F037C08330D1F1843099F1D9
:1010900067C00E94EA04882309F462C0D092360235
:1010A000C09235020E94C204882309F459C01C82F0
:1010B0001093360200933502D0924203C09241034E
:1010C00080914503A0913502B0913602E091410331
:1010D000F09142032C9190812913AC821196B09328
:1010E0003602A09335023196F0934203E093410318
:1010F000815041F735C00E942203882389F12BC01B
:101100000E94AE0BFACF8B81809345038FE08C83D6
:1011100080914303823031F010F1833031F084301C
:10112000F9F41DC00E94DE02E8CF0E94B90BE5CFA2
:10113000E090430394E0E91212C08B818093450351
:101140008FE0F82EFC820E944603803321F0803C21
:1011500021F4EC8205C01C8203C0FC8201C0BC8269
:10116000FE0131961F010E9439060ECE9091520465
:1011700098279093520498E02A9A1092B20080FF28
:101180000FC02091B2002031E0F32A981092B200F3
:101190002091B2002031E0F38695915069F70895CF
:1011A0002091B2002830E0F32A981092B2002091EA
:1011B000B2002830E0F32A9A1092B2002091B200D7
:1011C0002830E0F32A981092B2002091B200283023
:1011D000E0F3E2CF229A8FEF0E94B6088FEF0E94D1
:1011E000B6088FE70E94B608109252048BE10E9465
:1011F000B60880914F048F5F80934F040C94B6081B
:10120000809152040E94B6082A9A1092B2008091EE
:10121000B2008830E0F3229808951092B2001A9B31
:101220000AC08091B2008E37D0F38FEF089580917D
:10123000B2008E37D0F71A9BFACF8091B20080931C
:10124000510490915304981788F01092B2001A9BA1
:1012500009C08091B2008E37D0F3E7CF8091B20001
:101260008E3718F71A9BFACF80E0089581E0089531
:10127000FC01108280E090E041E050E01092B2006A
:101280001A9B0AC02091B2002E37D0F380E0089557
:101290002091B2002E37D0F71A9BFACF3091B200CE
:1012A00020915304231780F01092B2001A9B09C0BA
:1012B0002091B2002E37D0F3E9CF2091B2002E3723
:1012C00028F71A9BFACF09C060819A01082E01C045
:1012D000220F0A94EAF7262B208301968830910585
:1012E00069F690914E048081892780934E0481E0B5
:1012F0000895CF93DF9388E1809353048091500445
:10130000853139F0823129F0813031F0C6E4D0E006
:1013100005C0C0E6DAEE02C0C1E0D0E00E940D09CF
:1013200087FF04C02197D1F780E017C0CAE00E9470
:101330000D098F3FC9F3C150D1F780915104982F07
:10134000969586958695890F809353040E940D0982
:101350008F3F51F31816D4F381E0DF91CF910895B8
:10136000EF92FF920F931F93CF93DF9300D01F92C2
:10137000CDB7DEB77C011B820E947909811102C0C2
:1013800080E068C010924E04CE0103960E94380996
:101390008823B1F38B818B3199F7CE0103960E949C
:1013A0003809882369F39B8180914F049813E8CF13
:1013B000CE0102960E943809882311F38A81823077
:1013C000F8F6CE0101960E9438098823C9F2898176
:1013D0009A81892BA9F2CE0103960E9438098823AD
:1013E00079F28B818E3061F6CE0103960E94380926
:1013F000882331F29B81809150049813C1CFCE0194
:1014000003960E943809882309F4BACF8B81811191
:10141000B7CF00E010E0C701800F911F29813A810A
:10142000225031090217130740F40E94380988231B
:1014300009F4A6CF0F5F1F4FEECFCE0103960E9497
:101440003809882309F49CCF80914E04811198CFEC
:101450002A9A81E00F900F900F90DF91CF911F910A
:101460000F91FF90EF900895CF9381E08093500407
:101470000E94EA0880E00E94B60881E00E94B60857
:101480008EE00E94B60881E00E94B6080E94000922
:1014900082E292E00E94B009C82F811103C00E942D
:1014A0004E0501C0C1E08C2FCF910895FF920F939C
:1014B0001F93CF93DF938C01C62FF42ED22F8DE193
:1014C000809350040E94EA0880E00E94B60888E0F9
:1014D0000E94B6088EE00E94B6088DE10E94B60810
:1014E00084E00E94B60884E00E94B60880E00E9472
:1014F000B6088C2F0E94B6088F2D0E94B6088D2F3B
:101500000E94B60880E00E94B6080E94000982E2AC
:1015100092E00E94B009882399F080912202811103
:101520000EC080912302C81711F0811108C080916C
:101530002402811104C080912502F801808381E09A
:10154000DF91CF911F910F91FF9008950E94340A6F
:10155000882399F021E040E060E388E392E00E9474
:10156000560A882351F022E040E060E387E392E0EE
:101570000E94560A91E0811101C090E0892F0895E0
:10158000809144038F3F21F4809140038F3F29F1E4
:1015900086E0809350040E94EA0880E00E94B6082A
:1015A00085E00E94B6088EE00E94B60886E00E94A0
:1015B000B60880E00E94B60880E00E94B6088091DC
:1015C00044030E94B608809140030E94B6080E941E
:1015D000000982E292E00C94B00981E00895CF9373
:1015E000C1E0809145038111C0E00E94EA0880E0DB
:1015F0000E94B60884E00E94B6088EE00E94B608F9
:10160000809150040E94B6088C2F0E94B6088091E9
:1016100045030E94B60880EA0E94B6080E940009AD
:101620008091350290913602CF910C94B0090F93BE
:101630001F93CF93DF93C0914503CC2339F08C2FB8
:1016400090E00A96182F092FD0E003C01AE001E0BD
:10165000D1E00E94EA08802F0E94B608812F0E94E4
:10166000B6088EE00E94B608809150040E94B60829
:101670008D2F0E94B6088C2F0E94B60880E00E9431
:10168000B60880E00E94B60880E00E94B60880E0BC
:101690000E94B60880E00E94B60880E00E94B6086A
:1016A00080E00E94B608E0913502F0913602808118
:1016B0000E94B6088091350290913602019690936F
:1016C000360280933502C15071F70E94000982E210
:1016D00092E0DF91CF911F910F910C94B00982E1BC
:1016E000809350040E94EA0880E00E94B60887E0D8
:1016F0000E94B6088EE00E94B60882E10E94B608F9
:1017000084E10E94B60880E00E94B6088CEA0E943C
:10171000B60888E80E94B60883E10E94B60886E70A
:101720000E94B6080E94000982E292E00C94B0097F
:101730000E94C00A882329F084E1809350040C940D
:10174000EF0A80E008950E94C00A882329F086E10C
:10175000809350040C94EF0A80E008950E94C00A20
:10176000882329F083E1809350040C94170B80E0C8
:1017700008950E94C00A882329F085E180935004CF
:101780000C94170B80E00895E0ECF0E080818D7FF1
:10179000808389E190E09093C5008093C40086E047
:1017A0008093C20088E18093C10085E0809381002E
:1017B00008959091C00095FFFCCF8093C600809162
:1017C000C00086FFFCCF089510924D041092850052
:1017D000109284008091C00087FD0FC0809184002A
:1017E0009091850021E0853C39E0930708F420E0E2
:1017F00020934D04853C994068F38091C60008957C
:10180000EE0FFF1F0024001C0BBE0790F691E02D89
:061810000994F894FFCFDB
:101816003437310000000000000000000D424C4843
:10182600656C69F47D347741526D313238305F3101
:0218360036007A
:00000001FF
