:100000000C944D000C946A000C946A000C946A00E5
:100010000C946A000C946A000C946A000C946A00B8
:100020000C946A000C946A000C946A000C946A00A8
:100030000C946A000C943E060C946A000C946A00BE
:100040000C946A000C946A000C946A000C946A0088
:100050000C946A000C946A000C946A000C946A0078
:100060000C946A000C946A002B073A0749075D0755
:10007000720786079A07AE073B0957095A095F09B5
:100080006609A809120B0A0A310A410A600A990A8C
:10009000BA09770AE60A9D09FB0A11241FBECFEFB1
:1000A000D4E0DEBFCDBF11E0A0E0B1E0E6EAFEE1C2
:1000B00002C005900D92A232B107D9F723E0A2E267
:1000C000B1E001C01D92AC35B207E1F70E94F9071B
:1000D0000C94510F0C94000081E080934702E09152
:1000E0003301F091340180812091320190E002C00F
:1000F000959587952A95E2F780FF12C02AEB38E0A4
:1001000080814091320190E002C0959587954A9593
:10011000E2F780FF05C02150310991F780E0089592
:100120001092B2008091B2008630E0F3E09133018A
:10013000F091340140E050E080E096E061E070E052
:10014000935F2091B2002917E0F32081A091320142
:1001500030E002C035952795AA95E2F720FF07C049
:100160009B01042E01C0220F0A94EAF7822B4F5FF5
:100170005F4F9E3629F79091B2009F37E0F32081C0
:100180009091320130E002C0359527959A95E2F7BB
:1001900020FFC4CF1092470208951092B2009091B0
:1001A000B2009A30E0F31092B20040913201E09137
:1001B0003801F0913901908121E030E0B90102C0AD
:1001C000660F771F4A95E2F7AB01492B40834091B8
:1001D0003201E0913A01F0913B01908102C0220F7F
:1001E000331F4A95E2F720953095292320831092FA
:1001F000B2009091B2009A30E0F39AE041E050E012
:10020000E0913A01F0913B01209132016081DA01E5
:1002100002C0AA0FBB1F2A95E2F79D0180FF02C012
:10022000262B03C02095309526232083935F869547
:100230002091B2002917E0F3923711F72091320193
:10024000E0913A01F0913B01408181E090E0BC01F6
:1002500002C0660F771F2A95E2F79B01242B2083AB
:1002600030913201E0913801F0913901208102C0D2
:10027000880F991F3A95E2F78095909582238083A5
:1002800008952091350180914E0290914F0238E0FF
:10029000AC0142279695879540FF04C041E0842732
:1002A00040EA94272695315099F790934F02809316
:1002B0004E02209335010895EF92FF920F931F9302
:1002C000CF93DF938C01D62F10924F0210924E02E3
:1002D00010923701109236017C01C0E00E946C0040
:1002E000F70181937F0180914702882311F0DFEFAE
:1002F00039C0CF5FDC13F2CF80913E01811108C07D
:100300000E946C00D82F80914702882391F02AC068
:100310000E946C0080933601809147028111E7CFE3
:100320000E946C008093370180914702882341F33B
:10033000DECF80913E018823A9F0F80181918F01E1
:10034000809335010E944101C150B9F720914E02BE
:1003500030914F028091360190913701281739076B
:1003600009F0D2EC81E0D03309F080E0DF91CF9149
:100370001F910F91FF90EF900895EF92FF920F93CE
:100380001F93CF93DF938C01C62F30913201E09100
:100390003801F0913901208181E090E001C0880F9F
:1003A0003A95EAF7822B808310924F0210924E0208
:1003B00080913E01882359F07801D62FF701819171
:1003C0007F01809335010E944101D150B9F7F801B6
:1003D00081918F01809335010E94CD00C150B9F702
:1003E00080913E01882341F080914E020E94CD0011
:1003F00080914F020E94CD0030913201E09138018E
:10040000F0913901208181E090E002C0880F991FAE
:100410003A95E2F78095909582238083DF91CF9182
:100420001F910F91FF90EF900895CF93DF93CDB779
:10043000DEB76D970FB6F894DEBF0FBECDBF8091CB
:10044000000190910101A09102018B8F9C8FAD8FD3
:1004500081E1E4E0F1E0DE01119601900D928A95D0
:10046000E1F761E1CE0101960E94BD0168E0CE0195
:1004700042960E945C018823C9F0FE017296DE015B
:100480005B96CE01459631912D9132130EC0E8173F
:10049000F907C9F78D89809340018E8980933F01C8
:1004A0008F8980933E0181E001C080E06D960FB698
:1004B000F894DEBF0FBECDBFDF91CF910895CF93EB
:1004C000C82F0E946C00C15090914702992319F0E7
:1004D000C111F7CF8FEFCF910895CF93DF9300D065
:1004E000CDB7DEB78DEF89831A8262E0CE01019627
:1004F0000E94BD0181E00E945F02813C21F00E94C8
:100500004A0680E001C081E00F900F90DF91CF910B
:100510000895CF93DF9300D0CDB7DEB719821A824A
:1005200081E080933E0162E0CE0101960E94BD0110
:100530000E944A060F900F90DF91CF910895CF93BC
:10054000DF9300D000D0CDB7DEB790914C02809100
:1005500048029F3F11F48F3F91F02FEF29831A82B9
:100560009B838C8364E0CE0101960E94BD0182E0F2
:100570000E945F0291E0803319F090E001C091E0A9
:10058000892F0F900F900F900F90DF91CF910895CA
:10059000CF93DF9300D000D0CDB7DEB78EEF898345
:1005A0001A821B8280914D028C83811102C081E0EE
:1005B0008B8364E0CE0101960E94BD0182E00E941F
:1005C0005F028F3F71F460914D0280913C019091E8
:1005D0003D010E94BD0188E20E945F0291E08033EC
:1005E00009F090E0892F0F900F900F900F90DF91FE
:1005F000CF910895CF93DF9300D0CDB7DEB70E949F
:100600009F028823E9F080914D028A8380914B02FA
:10061000823029F0843029F0813029F402C087E04B
:1006200001C083E0898362E0CE0101960E94BD0192
:1006300060914D0280913C0190913D010E945C01CE
:100640000F900F90DF91CF910895CF93DF9300D05B
:10065000CDB7DEB70E949F02882391F084E08983A2
:1006600080914D028A8362E0CE0101960E94BD0115
:1006700060914D0280913C0190913D010E945C018E
:100680000F900F90DF91CF910895CF93DF9300D01B
:10069000CDB7DEB70E949F02982F8823A9F00E9451
:1006A000C802982F882381F085E0898381E08A83BE
:1006B00062E0CE0101960E94BD0180E00E945F02CF
:1006C00091E0803309F090E0892F0F900F90DF9137
:1006D000CF910895CF93DF9300D0CDB7DEB70E94BE
:1006E0009F02882389F082E0898381E08A8362E027
:1006F000CE0101960E94BD0180E00E945F0280331E
:1007000011F481E001C080E00F900F90DF91CF9154
:100710000895CF93DF9300D0CDB7DEB70E949F023C
:10072000982F8823A1F00E94C802982F882379F07F
:1007300081E089838A8362E0CE0101960E94BD0137
:1007400082E30E945F0291E0803309F090E0892FFC
:100750000F900F90DF91CF910895CF93DF9300D04A
:10076000CDB7DEB70E949F02882381F00E94C802A5
:10077000882361F084E0898381E08A8362E0CE018E
:1007800001960E94BD0184E00E945F020F900F90CD
:10079000DF91CF91089520913201E0913A01F091DB
:1007A0003B01408181E090E0BC0102C0660F771FF1
:1007B0002A95E2F79B0120953095242320833091E0
:1007C0003201E0913A01F0913B01208101C0880F94
:1007D0003A95EAF7822B8083089510923E01109299
:1007E0003F0110924001109241010E94D8070E94DF
:1007F000CF0720913201E0913801F0913901408119
:1008000081E090E0BC0102C0660F771F2A95E2F7F5
:100810009B012095309524232083E7ECF0E031976D
:10082000F1F700C00000E0913301F0913401208124
:100830004091320130E002C0359527954A95E2F7A4
:10084000217040913201E0913801F09139013081FD
:10085000BC0102C0660F771F4A95E2F7AB01432B3C
:10086000408340913201E0913A01F0913B013081A7
:1008700002C0880F991F4A95E2F7809590958323CF
:10088000808375E37A95F1F700001C9922602C981B
:10089000249840913201E0913A01F0913B0130817E
:1008A00081E090E0BC0102C0660F771F4A95E2F735
:1008B000AB01432B408340913201E0913801F0912C
:1008C0003901308102C0880F991F4A95E2F780955F
:1008D0009095832380832093400181E0211101C002
:1008E00080E0089530913201E0913801F0913901B2
:1008F000208181E090E001C0880F3A95EAF7822BD1
:1009000080830E94CB03249A08952C9824980E94F7
:10091000CB0330913201E0913801F091390120810F
:1009200081E090E002C0880F991F3A95E2F7809528
:100930009095822380830895CF93DF930E94720461
:100940002C980E94CB032C9A0E94CB032C982498BD
:10095000D8E0C0E0C6950E94CB031C99C068D15076
:10096000C9F70E9485048C2FDF91CF910895CF9312
:10097000DF93CFEFDFEF0E949C0480FD04C020973F
:1009800011F02197F8CF81E0CD2B09F480E0DF91C1
:10099000CF910895CF93DF93D82F0E9472042C9AA1
:1009A0000E94CB030E94CB03C8E0D0FF02C02C9A68
:1009B00001C02C980E94CB03D695C150B1F7DF91AE
:1009C000CF910C948504CF93DF932C982498CFEF8C
:1009D000DFEF0E94CB03219711F01C9BFACF81E03F
:1009E000CD2B09F480E0DF91CF910895CF93109241
:1009F00054030E9472042C980E94CB030E94CB03E4
:100A00000E94CB030E94CB030E94E3048823A1F041
:100A1000C8E0809154038695809354030E94CB03D1
:100A20001C9B05C080915403806880935403C1507F
:100A300081F70E94850481E0CF9108950E94B70458
:100A4000882349F00E94F604882329F081E09091E0
:100A500054039D3009F080E0089580E00E94CA04AC
:100A60000E94F604809154038850823310F0109253
:100A700054038091540380933E010895CF93DF93F4
:100A8000D82F0E9472042C9A0E94CB032C980E94AB
:100A9000CB030E94CB030E94CB03C8E0D0FF02C06F
:100AA0002C9A01C02C980E94CB03D695C150B1F767
:100AB0000E94E304882361F00E948504CFEFDFEFFA
:100AC0000E949C0481FF04C0209711F02197F8CF69
:100AD000DF91CF91089580914C020E943E05809154
:100AE00048020E943E0580914D020E943E050C94F2
:100AF0001E05CF93C82F84EB0E94CA048C2F0E943E
:100B00003E05CF910C941E050E94ED03811102C099
:100B100080E008950E942D058823D1F382E00E9491
:100B2000CA0482E00E943E0584E00E943E058BEDEF
:100B300090E00197F1F700C0000081E00E943E05BF
:100B40009FEB2AED80E0915020408040E1F700C00B
:100B5000000082E00E9479058823D1F20E94F60409
:100B60008091540380933F018FEF0E94CA0480E874
:100B70000E943E058FEC97E00197F1F700C000005E
:100B80008FEE0E94CA0482E00E943E0581E0089533
:100B9000CF9386E00E947905811102C080E01EC0DB
:100BA0000E946B058823D1F3C0914D020E94B704C7
:100BB0008823A1F30E94F604882381F3E0913C018D
:100BC000F0913D01CF01019690933D0180933C014E
:100BD000809154038083C15049F781E0CF910895FB
:100BE000CF9387E00E9479058823C1F00E946B05AE
:100BF0008823A1F0C0914D02E0913C01F0913D01AC
:100C0000CF01019690933D0180933C0180810E9429
:100C10003E05C15089F7CF910C94B70480E0CF9185
:100C20000895CF93C0914C02C695CF3090F488E0E0
:100C30000E947905882369F08C2F0E943E050E944E
:100C40001E05882331F080E00E943E05CF910C9470
:100C5000B70480E0CF91089583E00E94790588234E
:100C600059F08EED0E943E058DEA0E943E0585EA10
:100C70000E943E050C94B70480E008951F920F92E5
:100C80000FB60F9211240C9400000F900FBE0F901E
:100C90001F90189510923F0110923E010895EF9217
:100CA000FF920F931F93CF93DF9310923F01109207
:100CB0003E0180914B02882361F0853008F09AC094
:100CC000C3E0D0E014E003E0FF24F39482E0E82ED8
:100CD0005FC00E9484058CC08091C00087FD81C0E8
:100CE00080914B02843009F458C00E94F10D882392
:100CF00009F453C000934B0280913E0190913F0153
:100D00008730934909F451C080913E0190913F0191
:100D10008A30934909F449C080913E0190913F0186
:100D20008F30934909F441C080913E0190913F0179
:100D300021E08B30944909F020E040913E01509130
:100D40003F0180913F01882391F180913F018039DB
:100D500070F580913E0161E030E0863009F060E09E
:100D6000862F932F382F211125C0413068EE56076A
:100D700008F5992790914B029130F8F42197A1F151
:100D8000811131C08FE39CE90197F1F700C00000A9
:100D90008091C10084FFA4CF9FCF0E9415028823B9
:100DA00009F4AACF10934B02A7CF21E0C6CF80E071
:100DB00090E0D8CF81E090E0DDCF933010F0943018
:100DC000E9F64130584E18F0F0924B02D7CF22236B
:100DD00019F0E0924B02D2CF332381F210934B02F1
:100DE000CDCF80E001C081E090914B029093410112
:100DF000811105C010923F0110923E0180E0DF9109
:100E0000CF911F910F91FF90EF900895909146021E
:100E10009817B1F090914B02911112C0409132019C
:100E2000E0913A01F0913B01908121E030E002C075
:100E3000220F331F4A95E2F720953095292320830E
:100E4000482F50E04830510508F09DC0FA01EC5C95
:100E5000FF4F0C944B0F24E230E030933901209384
:100E6000380125E230E030933B0120933A0123E240
:100E700030E05AC024E230E0309339012093380149
:100E800025E230E030933B0120933A0123E230E049
:100E900037C024E230E0309339012093380125E255
:100EA00030E030933B0120933A0123E230E030936D
:100EB00034012093330191E064C024E230E03093A8
:100EC00039012093380125E230E030933B01209333
:100ED0003A0123E230E03093340120933301109241
:100EE000320151C027E230E03093390120933801BC
:100EF00028E230E030933B0120933A0126E230E0D3
:100F0000309334012093330192E03BC027E230E07C
:100F1000309339012093380128E230E030933B01CF
:100F200020933A0126E230E03093340120933301DC
:100F300093E027C027E230E0309339012093380155
:100F400028E230E030933B0120933A0126E230E082
:100F5000309334012093330194E013C027E230E052
:100F6000309339012093380128E230E030933B017F
:100F700020933A0126E230E030933401209333018C
:100F800095E0909332018093460208952B9A2A9A15
:100F9000299A289A429A439A449A459A08952B98F6
:100FA0002A982998289842984398449845980895F3
:100FB000239A229A219A209A3A9A3B9A3C9A3D9AED
:100FC000089523982298219820983A983B983C9825
:100FD0003D98089580914B02882351F083E08093DF
:100FE000B1000E94E1070E94C60780E00C9406074A
:100FF00008950FB6F894A895809160008861809359
:101000006000109260000FBE0E94EA070E940F0F5E
:101010000E948308EECF9627092E0294202D2F7070
:101020002927692F6025660F607E2627602D692796
:10103000607F6695092E000C661F9695969596958D
:101040009F7196279827822F08952F923F92EF92B3
:10105000FF921F93CF93DF93E1016EE280E090E077
:101060000E940B086F810E940B0860914C020E9445
:101070000B08609148020E940B086E810E940B08C9
:10108000382F292FEC80FD801E81F70161917F01AF
:10109000832F922F0E940B08382F292F1150A9F768
:1010A0006B810E940B08F82EE92E8EE20E94240F1D
:1010B0008F810E94240F80914C020E94240F809106
:1010C00048020E94240F8E810E94240F1E81EC8111
:1010D000FD8180810E94240F8C819D8101969D83DA
:1010E0008C831150A1F78B810E94240F8E2D0E94BA
:1010F000240F8F2DDF91CF911F91FF90EF903F90A4
:101100002F900C94240F2F923F924F925F926F92E8
:101110007F928F929F92AF92BF92CF92DF92EF9287
:10112000FF920F931F93CF93DF93CDB7DEB72C972A
:101130000FB6F894DEBF0FBECDBFF8944E0129E084
:10114000820E911C90E5E92E92E0F92E22E4A22E67
:1011500021E0B22E01E010E03EE3432E31E0532EB9
:1011600045E1642E41E0742E0E942F0F8F32E1F78B
:101170001A8619869E828D8241E04F830E942F0F2E
:101180008887909155039111EFCF8F3219F40E9407
:101190002F0F88876FE280E090E00E940B0868853F
:1011A0000E940B086C010E942F0F80934C029091BB
:1011B0005503992311F081E04AC0682FC6010E94AF
:1011C0000B086C010E942F0F8093480290915503E9
:1011D0009111F1CF682FC6010E940B086C010E948B
:1011E0002F0F8B83909155039111E5CF682FC60186
:1011F0000E940B086C013B8080E592E09C878B8706
:101200000E942F0FEB85FC858193FC87EB879091E3
:1012100055039111D0CF682FC6010E940B086C01B5
:101220003A943110EDCF0E942F0F8A83809155039D
:101230008111C1CF0E942F0F8983809155038111A5
:10124000BACF29813A81C216D30609F083E08C8394
:101250008111EAC1F0923D01E0923C01E8858E2FB8
:1012600090E0FC01F097E131F10508F0DBC1E45CAE
:10127000FF4F0C944B0F80913E01882309F4D4C199
:1012800080914B02833028F4813040F40E942D0578
:1012900007C0833049F0843009F0C6C10E946D0256
:1012A0008111C2C18FE0BFC10E947F0DF9CF8CE6D2
:1012B0008987BAC18BE08F837E826D82B5C182E05F
:1012C0008F8388EC898786E08A87AEC1AE014F5F45
:1012D0005F4F1A010E94250880914B02811106C0C0
:1012E0000E94ED030E94E1070E94CF0780E00E9468
:1012F00006070E944A065FEF81EE94E0515080405D
:101300009040E1F700C000002C960FB6F894DEBFC5
:101310000FBECDBFDF91CF911F910F91FF90EF9046
:10132000DF90CF90BF90AF909F908F907F906F9005
:101330005F904F903F902F9008958091500285309C
:1013400010F089E070C180934B020E94EA076CC1E3
:1013500080915002883098F40E94060780914B02D9
:10136000833028F4813068F40E94ED035DC184303D
:1013700041F05AC180915002883008F459C088E089
:1013800052C1D09048020E948902E1E0DE124CC1B5
:1013900080913201E0913801F09139012081A8015A
:1013A00002C0440F551F8A95E2F7CA01822B808341
:1013B00080913201E0913A01F0913B012081A80136
:1013C00002C0440F551F8A95E2F7CA018095909597
:1013D000822380835FEF82E597E051508040904008
:1013E000E1F700C0000080913201E0913A01F091F4
:1013F0003B012081A80102C0440F551F8A95E2F7E6
:10140000CA01822B808380913201E0913801F091F2
:1014100039011AC080915002883008F0B0CF0E9484
:10142000060754E05F835E824D820E944F0638CFEC
:101430000E94060780914B028111F6C08091320113
:10144000E0913A01F0913B012081A80102C0440FD4
:10145000551F8A95E2F7CA01809590958223808373
:10146000E3C080914B02833030F4813008F0DAC061
:101470000E942C0615CF833009F0B4C00E94BA0E2A
:101480000FCF90914B02943018F4923020F0CAC0E4
:10149000943009F0C9C0809150028987943019F4C2
:1014A000880F880F01C0880F80934C021092480269
:1014B000911103C00E941106F3CE0E946A03F0CE80
:1014C0008091500280934D0280914B02833028F42A
:1014D000813038F40E94C8051BC0833029F0843065
:1014E000F9F40E94FA0214C00E94E30E11C0809128
:1014F000500280934D0280914B02823039F020F0EF
:10150000833059F0843061F482E005C00E942503E5
:10151000811106C08FE08C8303C00E94EE0EF8CFCD
:101520008C81811181C080914D028F83FE82ED827A
:101530007BC08B8180934D028FE08C8380914B0226
:10154000833018F4813030F039C08330E1F18430D9
:10155000A9F16AC00E94F005882309F465C0B09221
:101560003D01A0923C010E94C805882309F45CC09B
:101570001C82F0923D01E0923C01B0924A02A0929E
:10158000490280914D02A0913C01B0913D01E09152
:101590004902F0914A022C919081291711F054E0F0
:1015A0005C831196B0933D01A0933C013196F0937A
:1015B0004A02E0934902815031F736C00E94890304
:1015C000882391F12BC00E94F90EFACF8B81809372
:1015D0004D028FE08C8380914B02823031F010F10C
:1015E000833031F0843001F51DC00E944503E8CFFF
:1015F0000E94040FE5CFC0904B0284E0C81212C0D5
:101600008B8180934D028FE0D82EDC820E94AD0347
:10161000803321F0803C21F4CC8206C01C8204C0BF
:10162000DC8202C082E08C83FE0131961F010E94A1
:1016300025089ACD90915A03982790935A0398E0E1
:1016400021E030E0E0913A01F0913B01409132011C
:101650006081D90102C0AA0FBB1F4A95E2F7AD0114
:10166000462B40831092B20080FF20C04091B20010
:101670004031E0F340913201E0913A01F0913B01B9
:101680006081D90102C0AA0FBB1F4A95E2F7AD01E4
:1016900040955095462340831092B2004091B2008D
:1016A0004031E0F38695915069F608954091B2007B
:1016B0004830E0F340913201E0913A01F0913B0172
:1016C0006081D90102C0AA0FBB1F4A95E2F7AD01A4
:1016D00040955095462340831092B2004091B2004D
:1016E0004830E0F340913201E0913A01F0913B0142
:1016F0006081D90102C0AA0FBB1F4A95E2F7AD0174
:10170000462B40831092B2004091B2004830E0F383
:1017100040913201E0913A01F0913B016081D901A1
:1017200002C0AA0FBB1F4A95E2F7AD014095509544
:10173000462340831092B2004091B2004830E0F35B
:10174000B1CF30913201E0913801F091390120811F
:1017500081E090E001C0880F3A95EAF7822B808300
:101760008FEF0E941A0B8FEF0E941A0B8FE70E94D7
:101770001A0B10925A038BE10E941A0B80915703A7
:101780008F5F809357030C941A0B80915A030E9429
:101790001A0B30913201E0913A01F0913B01208126
:1017A00081E090E001C0880F3A95EAF7822B8083B0
:1017B0001092B2008091B2008830E0F33091320193
:1017C000E0913801F0913901208181E090E002C080
:1017D000880F991F3A95E2F7809590958223808330
:1017E00008951092B200E0913301F09134018081AC
:1017F0002091320190E002C0959587952A95E2F7F5
:1018000080FF0AC08091B2008E3788F38FEF089571
:101810008091B2008E37D0F780812091320190E024
:1018200002C0959587952A95E2F780FFF1CF8091C8
:10183000B2008093590390915B03981738F110928E
:10184000B200E0913301F0913401808120913201A6
:1018500090E002C0959587952A95E2F780FF09C030
:101860008091B2008E3788F3D1CF8091B2008E374D
:1018700068F680812091320190E002C095958795AD
:101880002A95E2F780FFF1CF80E0089581E0089586
:10189000FC01108280E090E041E050E01092B20044
:1018A000A0913301B09134012C916091320130E06C
:1018B00002C0359527956A95E2F720FF0AC020916E
:1018C000B2002E3788F380E008952091B2002E37C1
:1018D000D0F72C916091320130E002C03595279508
:1018E0006A95E2F720FFF1CF3091B20020915B03BF
:1018F000231730F11092B200A0913301B09134015E
:101900002C916091320130E002C0359527956A959F
:10191000E2F720FF09C02091B2002E3788F3D3CF21
:101920002091B2002E3778F62C916091320130E090
:1019300002C0359527956A95E2F720FFF1CF09C0DF
:1019400060819A01082E01C0220F0A94EAF7262B23
:10195000208301968830910509F0A0CF909156031D
:10196000808189278093560381E00895CF93DF9388
:1019700088E180935B0380915803853139F082318F
:1019800029F0813031F0C3E2D0E005C0C0E6DAEEE4
:1019900002C0C1E0D0E00E94F10B87FF04C0219794
:1019A000D1F780E017C0CAE00E94F10B8F3FC9F366
:1019B000C150D1F780915903982F969586958695B9
:1019C000890F80935B030E94F10B8F3F51F3181630
:1019D000D4F381E0DF91CF910895EF92FF920F93BE
:1019E0001F93CF93DF9300D01F92CDB7DEB77C015A
:1019F0001B820E94B60C811102C080E076C010925A
:101A00005603CE0103960E94480C8823B1F38B81C4
:101A10008B3199F7CE0103960E94480C882369F315
:101A20009B81809157039813E8CFCE0102960E94C4
:101A3000480C882311F38A818230F8F6CE01019692
:101A40000E94480C8823C9F289819A81892BA9F2C6
:101A5000CE0103960E94480C882379F28B818E3048
:101A600061F6CE0103960E94480C882331F29B81D7
:101A7000809158039813C1CFCE0103960E94480C61
:101A8000882309F4BACF8B818111B7CF00E010E031
:101A9000C701800F911F29813A8122503109021715
:101AA000130740F40E94480C882309F4A6CF0F5F67
:101AB0001F4FEECFCE0103960E94480C882309F4F5
:101AC0009CCF80915603811198CF30913201E091E3
:101AD0003A01F0913B01208181E090E001C0880F44
:101AE0003A95EAF7822B808381E00F900F900F9058
:101AF000DF91CF911F910F91FF90EF900895CF93B9
:101B000081E0809358030E94A10B80E00E941A0B91
:101B100081E00E941A0B8EE00E941A0B81E00E9465
:101B20001A0B0E94C50B82E291E00E94ED0CC82FB7
:101B3000811103C00E944A0601C0C1E08C2FCF91E1
:101B40000895FF920F931F93CF93DF938C01C62FBD
:101B5000F42ED22F8DE1809358030E94A10B80E0D8
:101B60000E941A0B88E00E941A0B8EE00E941A0B4A
:101B70008DE10E941A0B84E00E941A0B84E00E94FF
:101B80001A0B80E00E941A0B8C2F0E941A0B8F2DCB
:101B90000E941A0B8D2F0E941A0B80E00E941A0BD4
:101BA0000E94C50B82E291E00E94ED0C882399F01F
:101BB0008091220181110EC080912301C81711F07C
:101BC000811108C080912401811104C080912501F8
:101BD000F801808381E0DF91CF911F910F91FF90F9
:101BE00008950E947F0D882399F021E040E060E392
:101BF0008FE391E00E94A10D882351F022E040E0A4
:101C000060E38EE391E00E94A10D91E0811101C09B
:101C100090E0892F089580914C028F3F21F48091AC
:101C200048028F3F29F186E0809358030E94A10B60
:101C300080E00E941A0B85E00E941A0B8EE00E9441
:101C40001A0B86E00E941A0B80E00E941A0B80E0BB
:101C50000E941A0B80914C020E941A0B809148023C
:101C60000E941A0B0E94C50B82E291E00C94ED0CCD
:101C700081E00895CF93C1E080914D028111C0E0D1
:101C80000E94A10B80E00E941A0B84E00E941A0BB4
:101C90008EE00E941A0B809158030E941A0B8C2F21
:101CA0000E941A0B80914D020E941A0B80EA0E943A
:101CB0001A0B0E94C50B80913C0190913D01CF9180
:101CC0000C94ED0C0F931F93CF93DF93C0914D02B3
:101CD000CC2339F08C2F90E00A96182F092FD0E0F2
:101CE00003C01AE001E0D1E00E94A10B802F0E9406
:101CF0001A0B812F0E941A0B8EE00E941A0B809102
:101D000058030E941A0B8D2F0E941A0B8C2F0E94D1
:101D10001A0B80E00E941A0B80E00E941A0B80E0F0
:101D20000E941A0B80E00E941A0B80E00E941A0B9E
:101D300080E00E941A0B80E00E941A0BE0913C01A7
:101D4000F0913D0180810E941A0B80913C0190919D
:101D50003D01019690933D0180933C01C15071F784
:101D60000E94C50B82E291E0DF91CF911F910F910C
:101D70000C94ED0C82E1809358030E94A10B80E04B
:101D80000E941A0B87E00E941A0B8EE00E941A0B29
:101D900082E10E941A0B84E10E941A0B80E00E94EB
:101DA0001A0B8CEA0E941A0B88E80E941A0B83E136
:101DB0000E941A0B86E70E941A0B0E94C50B82E252
:101DC00091E00C94ED0C0E940B0E882329F084E125
:101DD000809358030C943A0E80E008950E940B0EF5
:101DE000882329F086E1809358030C943A0E80E012
:101DF00008950E940B0E882329F083E180935803F5
:101E00000C94620E80E008950E940B0E882329F046
:101E100085E1809358030C94620E80E00895E0EC15
:101E2000F0E080818D7F80838CE090E09093C5000E
:101E30008093C40086E08093C20088E18093C10053
:101E400085E08093810008959091C00095FFFCCFBC
:101E50008093C6008091C00086FFFCCF0895109249
:101E6000550310928500109284008091C00087FD78
:101E70000FC0809184009091850021E0853C39E07D
:101E8000930708F420E020935503853C994068F3BC
:101E90008091C6000895EE0FFF1F0590F491E02D8C
:061EA0000994F894FFCF45
:101EA6003437310000000000000000000D424C48AD
:101EB600656C69F47D6D347741526D3136385F3823
:021EC60000001A
:00000001FF
