:020000040800F2
:10000000001000200D0100085501000855010008EE
:1000100055010008550100085501000800000000C6
:100020000000000000000000000000005501000872
:1000300055010008000000005501000855010008A6
:100040005501000855010008550100085501000838
:100050005501000855010008550100085501000828
:100060000000000055010008550100085501000876
:100070005501000855010008550100080000000066
:100080005501000855010008000000005501000856
:1000900055010008550100085501000855010008E8
:1000A00055010008550100085501000855010008D8
:1000B00055010008000000000000000000000000E2
:0C00C00055010008000000005501000878
:1000CC0010B5054C237833B9044B13B10448AFF386
:1000DC0000800123237010BD1802002000000000D6
:1000EC00A00C000808B5034B1BB103490348AFF340
:1000FC00008008BD000000001C020020A00C0008BD
:10010C00002103E00B4B5B58435004310A480B4B66
:10011C0042189A42F6D30A4A02E0002342F8043B02
:10012C00084B9A42F9D300F0BBFA00F069FD00F0DD
:10013C00E9FA7047C00C0008000000200000002005
:10014C000000002034020020FEE70000114B1A686A
:10015C0042F001021A601A689207FCD55A686FF3D4
:10016C0001025A605A6812F00C0FC2F38101F9D1E6
:10017C001A6822F0867222F480321A6041F61072EC
:10018C005960DA624FF480121A634FF41F029A60BE
:10019C00704700BF00100240030C03F1804303F5CD
:1001AC00043300F01F001A68012303FA00F030EA50
:1001BC0002030CBF012000207047030C03F18043A5
:1001CC0003F50433012200F01F0002FA00F0914203
:1001DC001A680CBF104322EA000018607047000038
:1001EC0004281FD8DFE800F003090E1319000E4B8A
:1001FC001A6861F300021A6070470B4B1A6861F3BE
:10020C001042F8E7084B1A6861F31862F3E7064BE3
:10021C001A6A61F300021A627047034B5A6A61F35F
:10022C0000025A62704700BF00100240024B5A682D
:10023C0060F307125A60704700100240024B5A6874
:10024C0060F30A225A60704700100240024B5A6851
:10025C0060F3CD225A6070470010024010B51A4B63
:10026C005A6820B960F3104218485A6009E042F409
:10027C0080325A6001285A6821D16FF351421448D8
:10028C005A606FF41874A0F56E122244114CA242FD
:10029C0018D9114A02441148824294BF022200220A
:1002AC00586861F3954058605868C1F3011161F3C7
:1002BC005E705860D96A62F31A61D96210BD42F45B
:1002CC000032D1E70022EBE70010024000093D00AC
:1002DC0000127A00DEC810006BCA88FF7AE50700AE
:1002EC00024B5A6860F301025A60704700100240DA
:1002FC00024B5868C0F38100704700BF00100240E9
:10030C00044B5A6D01280CBF42F030026FF30512FA
:10031C005A65704700100240014BD860704700BF0F
:10032C0000200240084BDA68D10709D4DA6852077A
:10033C0008D4DB6813F0100F14BF022003207047A1
:10034C0000207047012070470020024010B5044681
:10035C00FFF7E8FF30B90CB9042010BDFFF7E2FF3E
:10036C00013CF7E7002C08BF0420F6E7034B044AD6
:10037C005A6002F188325A60704700BF0020024078
:10038C0023016745024A136943F0800313617047E8
:10039C000020024010B5094C236943F0020323618D
:1003AC006061236943F0400323614FF08040FFF705
:1003BC00CDFF23696FF34103236110BD0020024080
:1003CC0010B5074C236943F00103236101604FF41E
:1003DC008010FFF7BBFF23696FF30003236110BD8F
:1003EC00002002402DE9F0410C880025032601274E
:1003FC000CB9BDE8F081E30735D51FFA85FE02681C
:10040C004FEA4E0C06FA0CF322EA030202608A79D8
:10041C00D0F8008002FA0CF242EA0802026042684C
:10042C0007FA0EF822EA080242600A79D0F8048032
:10043C0002FA0EF242EA08024260826822EA0302E1
:10044C008260CA79D0F808E002FA0CF242EA0E0295
:10045C008260C26822EA0303C3604B79C26803FA64
:10046C000CF31343C36064080135C1E74FF6FF7208
:10047C004FF08073C0E9002370472DE9F84342EA3E
:10048C0001039B0705460E46144626D14FEA9108F8
:10049C00FFF76CFFC4F3090313B92046FFF77AFF8B
:1004AC0005EB88082F46A4EB050947450BD1FFF750
:1004BC0069FF32462146284600F0C6FBB0FA80F0B0
:1004CC004009BDE8F883396809EB0700FFF778FFAE
:1004DC000320FFF721FF0437E7E70020F1E700F0E6
:1004EC00C3BB0000114B1B78012B03D0104B002217
:1004FC001A8070470F4A136803F16043B3F5803FCD
:10050C00F4D8536803F17843A3F58053B3F5802FE7
:10051C00ECD872B6084B19686FF300011960D2E978
:10052C0000329D4683F3088810477047007C000812
:10053C000000002000100008000400404FF0904222
:10054C00116821F030011160D36823F0300343EAC5
:10055C000013D36070470120FFF7F0BF70B514484B
:10056C00ADF5806DFFF718FE01281ED1114CA37854
:10057C000D2B1AD0013BDBB2FD2B16D84FF4806249
:10058C002146684600F070FB0B4E0D238DF80230AF
:10059C006D46224628464FF4807104F58074FFF7AF
:1005AC006CFFB44205F58075F3D10DF5806D70BD0F
:1005BC001C002400007C0008008000080549064B44
:1005CC004A6A92B25A804B6A9B1A9BB29842FAD8EA
:1005DC00704700BF00040040000000204FF0904323
:1005EC0004229A611A6822F0300242F010021A605A
:1005FC005A6822F004025A603420FFF7DFBFF8B5C6
:10060C004FF0904604270546B7623420FFF7D6FF1B
:10061C000824EB074CBFB761B7623420013CFFF7ED
:10062C00CDFF14F0FF044FEA5505F2D14FF0904383
:10063C0004229A61F8BD08B5FFF7D0FFC120FFF77F
:10064C00DEFFBDE80840FFF786BF08B5FFF7C6FF21
:10065C003020FFF7D4FFBDE80840FFF77CBF08B59A
:10066C00FFF7BCFFC220FFF7CAFFBDE80840FFF749
:10067C0072BF000038B5FFF7B1FF084D002415F824
:10068C00010BFFF7BCFF01343420FFF797FF092C57
:10069C00F5D1BDE83840FFF75EBF00BFE80F00089A
:1006AC0070470023F0B504464AF2010718469942F8
:1006BC0000DCF0BDE55C082285EA000616F0010FAF
:1006CC004FEA500018BF784002F1FF3218BF80B2D9
:1006DC0012F0FF024FEA5505EED10133E7E70000B7
:1006EC0010B5074C0146201DFFF7DBFF21444A796A
:1006FC000B7943EA02231B1A5842584110BD00BF24
:10070C00000000202DE98048B64B83B040F2531214
:10071C0000AF1A60FFF71AFD01210020FFF760FD02
:10072C000120FFF739FD01280446F9D11D210020D5
:10073C00FFF794FD21460220FFF752FD1920FFF729
:10074C002BFD01280446F9D10020FFF76FFD002096
:10075C00FFF77CFD0020FFF771FD2046FFF7D0FD71
:10076C000220FFF7BDFDFFF7C3FD02280446FAD1B6
:10077C000020FFF7C5FD9C480121FFF71EFD9B4B98
:10078C009B4877229A624FF6FF72DA621A6842F03F
:10079C0001021A601A686FF309221A601A686FF363
:1007AC0006121A605A6942F001025A610121FFF7E0
:1007BC0004FD01218F48FFF700FD3846FFF756FE78
:1007CC004FF080730420C7E9000339464FF0904086
:1007DC00FFF708FE2046FFF7B1FE4FF4FA70FFF763
:1007EC00EDFE854C00254FF090463369590758BFF4
:1007FC00B4F806314FF00A005CBF0133A4F806319F
:10080C00FFF7DCFEB4F80631B3F5E17F88BF4FF497
:10081C007A650135B5F57A6FE7DBB3F5E17F06D97B
:10082C007648FFF7B9FC012801D0FFF75BFE0120E9
:10083C00FFF784FE4FF4FA70FFF7C0FE05464FF049
:10084C00904633695A0758BFB4F806314FF00A0086
:10085C005CBF0133A4F80631FFF7B0FE013DF0D1C7
:10086C00B4F80631FBB12846A4F80651FFF766FE32
:10087C004FF4FA70FFF7A2FE05464FF0904633692D
:10088C005B0758BFB4F806314FF00A005CBF013368
:10089C00A4F80631FFF792FE013DF0D1B4F8063111
:1008AC000BB1FFF71FFE0020FFF748FEFFF756FEC7
:1008BC004E4E5348DFF8489100254FF4817229467B
:1008CC00C4F8085184F80C5100F0DCF9FFF743FE32
:1008DC00A846002384F80D31726A92B262804FF000
:1008EC00904144F620600B695D0747D5726A94F815
:1008FC000C1192B262804FF090452B6958074DD481
:10090C001A20FFF75BFE2B6913F0040B3DD14FF05F
:10091C00904A3420FFF752FEDAF8105094F80D315B
:10092C00C5F3800505FA0BF51D430BF1010BEDB278
:10093C00BBF1080F84F80D51EBD1FFF73FFEDAF84D
:10094C0010305B0721D594F80E21012384F80C316B
:10095C00002A59D0B4F81021D4F8083102329A4246
:10096C0027D0013389F80050C4F8083108F1010888
:10097C00B8F5817F09F10109ABD117E0736A9B1AB5
:10098C009BB28342AFD96523238094F80C316BB9A9
:10099C002388642B8DD9FFF7A5FD8AE7736A9B1A10
:1009AC009BB2B3F5827FA8D90029A6D094F80E315A
:1009BC0093B3B4F810512846FFF792FE002845D0A7
:1009CC004FF4807200210F4800F05CF90C492A4664
:1009DC0001F5877000F048F9FFF737FE002384F823
:1009EC000E31D5E70020024001001C00000400403D
:1009FC001200140011001400000000201C00240040
:100A0C000400002012010020736A61885B1A9BB2FB
:100A1C00FA2B10D9C4F80821237D20797D2B18D10D
:100A2C00237B0D2BB4D1637B422BB1D1FFF722FE7C
:100A3C0000232376ACE740F20113984508BF2388C6
:100A4C0089F8005004BF143323808FE7FFF707FEAB
:100A5C009EE7237E7D2B05D1237C0D2B02D1637C5D
:100A6C00422BE3D094F82C307D2B07D194F8243012
:100A7C000D2B03D194F82530422BD7D080B9A27915
:100A8C0063791343E279134301D165232380FFF784
:100A9C00A5FDC120FFF7B3FD23880133238045E07A
:100AAC0001281ED10220FFF71BFE0028CED0D4F85F
:100ABC001422504B9A4202D8FFF7BDFD68E74E4B0B
:100ACC00B4F810119A4204D1022984BF0D2384F882
:100ADC0014314A48FFF7D1FC0028EDD0FFF7B5FDE3
:100AEC0056E7FF2810D10420FFF7FAFD0028ADD0FF
:100AFC0000232380E3885BBA9BB203F10063C4F844
:100B0C001432FFF7A2FDD4E6FE2812D10420FFF721
:100B1C00E7FD00289AD0A379012B14BFE3794FF499
:100B2C008073A4F81031012384F80E31FFF713FD04
:100B3C002EE7FD280AD10220FFF7D2FD002885D030
:100B4C00FFF74CFDC120FFF75AFDEFE702280AD151
:100B5C00FFF7C6FD00283FF479AFD4F81422254BDB
:100B6C009A42A9D9BAE7032891D10220E946FFF7A6
:100B7C00B7FD18B9FFF773FDCD4609E76579D4F8D1
:100B8C000831002D08BF4FF480750133C4F80831CB
:100B9C00FFF724FD05F10A0323F00703ADEB030D6A
:100BAC0005F1030842460021684600F06BF82A461E
:100BBC00D4F814126846FFF792FC29466846FFF7F2
:100BCC0070FD6B1C0DF805000231000A0DF80300D6
:100BDC0030230DF80130EA4600251AF80500FFF71E
:100BEC000EFD01353420FFF7E9FCA845F5DCFFF7D5
:100BFC00B2FCC1E7FF0F0008007C000812010020C6
:100C0C0070B50D4D0D4C641BA4100026A64209D1E5
:100C1C000B4D0C4C00F03EF8641BA4100026A642B1
:100C2C0005D170BD55F8043B98470136EEE755F8F1
:100C3C00043B98470136F2E7B80C0008B80C0008E2
:100C4C00B80C0008BC0C000810B5013902449042E5
:100C5C0001D1002005E0037811F8014FA34201D027
:100C6C00181B10BD0130F2E70A44914200F1FF332A
:100C7C0000D1704710B511F8014B03F8014F9142A8
:100C8C00F9D110BD02440346934200D1704703F8DA
:100C9C00011BF9E7F8B500BFF8BC08BC9E467047CD
:0C0CAC00F8B500BFF8BC08BC9E467047BD
:040CB800F10000083F
:040CBC00CD0000085F
:100FE000DAE32559D963B84E343731021F060601BA
:040FF00030000000CD
:040000050800010DE1
:00000001FF
